:020000040800F2
:10500000F81900208D580008955800089758000896
:10501000995800089B5800089D580008000000009F
:105020000000000000000000000000009F58000881
:10503000A158000800000000A3580008A558000867
:10504000A7580008A7580008A7580008A758000844
:10505000A7580008A7580008A7580008A758000834
:10506000A7580008A7580008A7580008A758000824
:10507000A7580008A7580008A7580008A758000814
:10508000A7580008A7580008A7580008415400086E
:1050900049540008A7580008A7580008A758000856
:1050A000A7580008A7580008A7580008A7580008E4
:1050B000A7580008A7580008A7580008A7580008D4
:1050C000A7580008A7580008A7580008A7580008C4
:1050D000A7580008A7580008A7580008A7580008B4
:1050E000A7580008A75800085154000800F002F81B
:1050F00000F05AF80AA090E8000C82448344AAF118
:105100000107DA4501D100F04FF8AFF2090EBAE815
:105110000F0013F0010F18BFFB1A43F001031847EB
:1051200088480000A84800000A444FF0000C10F81E
:10513000013B13F0070408BF10F8014B1D1108BF15
:1051400010F8015B641E05D010F8016B641E01F8B5
:10515000016BF9D113F0080F1EBF10F8014BAD1C05
:105160000C1B09D16D1E58BF01F801CBFAD505E023
:1051700014F8016B01F8016B6D1EF9D59142D6D37D
:10518000704700000023002400250026103A28BFA5
:1051900078C1FBD8520728BF30C148BF0B607047A9
:1051A0001FB51FBD10B510BD04F040FB1146FFF741
:1051B000F7FF00F0FAF804F05EFB03B4FFF7F2FF2C
:1051C00003BC04F065FB000070B505460121042016
:1051D00000F006FF3DB18248006880B220F0020472
:1051E0007F48046014E07E48006880B240F002040A
:1051F0007B4804607B48006820F47F207949086080
:105200000846006840F44C30086000207649086089
:1052100070BD70B5002475480068B0F1FF3F07D13C
:1052200072484068B0F1FF3F02D14FF4005070BDAA
:105230006E480468B4F1005F01D2C013F7E76B4811
:10524000446804F0010010B94FF48050EFE72546A0
:10525000A8470020EBE708B54FF47A71414300916D
:1052600000BF00994A1E00920029FAD108BD10B56E
:105270004FF4FA7000F0DDFA0020FFF7A5FF4FF4BD
:10528000FA7000F0D6FA0120FFF79EFF02F034FE1C
:1052900002F01AFE02F006F810BD10B5544800687E
:1052A000B0F5806F26D009DCA8B101284DD0B0F54B
:1052B000807F11D0B0F5007F59D114E0B0F5006FB8
:1052C00028D0B0F5805F2ED0B0F5005F34D0B0F5B7
:1052D000804F4CD115E062E000204549086045A0B0
:1052E00003F0C3FF5BE001204149086043A003F0E5
:1052F000BCFF54E000203E49086042A003F0B5FF27
:105300004DE000203A49086040A003F0AEFFFFF7EF
:10531000AEFF44E00020364908603EA003F0A5FF40
:10532000FFF7A5FF3BE00020314908603BA003F0F8
:105330009CFFFFF79CFF32E000202D49086039A058
:1053400003F093FFFFF793FF29E00020284908604E
:1053500036A003F08AFF0020FFF736FF4FF4FA7003
:1053600000F067FAFFF755FF2149086017E04FF496
:1053700080701F4908601FA003F077FF0020FFF72F
:1053800023FF4FF4FA7000F054FA0120FFF71CFFDE
:1053900002F0B2FD02F098FD01F084FF00BF00BFF3
:1053A00010BD01202349086070474FF4A0414FF021
:1053B000006000F0C2FA00F0FFF900F0E3F90EE03F
:1053C00000201D4908604FF4FA7000F032FA012005
:1053D0001A49C1F894014FF4FA7000F02AFAEFE785
:1053E000405C004004080140B00121420050000828
:1053F00000000020524541445900000053554343EA
:1054000045535300554E4B4F574E00004C415247A9
:1054100045000000464C41534800000045525241AF
:10542000505000004E4F415050000000415050522B
:10543000554E000004000020940123420000234246
:1054400010B502F0D0F810BD10B503F06FF810BD24
:10545000704700000CB50020019000906C48006877
:1054600040F480306A49086000BF6948006800F471
:10547000003000900198401C0190009818B90198E4
:10548000B0F5A06FF1D16248006800F4003010B1AF
:105490000120009001E0002000900098012843D1F5
:1054A0005C48006840F010005A49086008460068EF
:1054B00020F0030008600846006840F00200086021
:1054C000534840685249486008464068486008466A
:1054D000406840F4806048600846406820F47C10D2
:1054E00048600846406840F4E81048600846006894
:1054F00040F08070086000BF4548006800F0007010
:105500000028F9D04248406820F003004049486034
:105510000846406840F00200486000BF3C484068D0
:1055200000F00C000828F9D10CBD10B5FFF792FF70
:1055300010BD10B53648006840F0010034490860DD
:1055400008464068344908403149486008460068C8
:10555000324908402E4908600846006820F480203F
:1055600008600846406820F4FE0048604FF41F00C1
:105570008860FFF7DAFF4FF000602949086010BD2E
:1055800010B5002100200022214B5B6803F00C01C4
:1055900021B1042906D0082928D107E0214B224C4B
:1055A000236027E01F4B204C236023E0184B5B68EF
:1055B00003F47010164B5B6803F48032022303EB94
:1055C000904022B9194B4343174C23600DE0104B18
:1055D0005B6803F4003323B1144B4343124C236044
:1055E00003E0104B4343104C236003E00D4B0E4C83
:1055F000236000BF00BF064B5B68C3F303130C4C72
:10560000E15C094B1B68CB40074C236010BD0000D8
:1056100000100240002002400000FFF8FFFFF6FEED
:1056200008ED00E000127A000800002000093D00AB
:105630000C0000200146088870472DE9F04105461E
:105640000E461746002407E036F81410284600F0EE
:1056500020FFAD1C601C84B2BC42F5DBBDE8F081CC
:1056600070B503460C461546444EB34209D300229A
:1056700004E0002024F81200501C82B2AA42F8DB99
:1056800070BD002207E01846FFF7D4FF24F812008F
:105690009B1C501C82B2AA42F5DB00BFF0E72DE94B
:1056A000F05F80468946164600F0ABFDA8F1006B1E
:1056B0004FEADB27CBF3490ACAF58064A64200DC37
:1056C00034464DE04FF0006101EBC7204A142C49ED
:1056D000FFF7C6FF00250BE00AEB0500284931F86B
:1056E00010004FF6FF71884200D003E0681C85B2BD
:1056F000A542F1DB00BFA5421BDA4FF0006101EBD0
:10570000C72000F0C3FD002508E039F8150005EBBF
:105710000A011B4A22F81100681C85B2A542F4DB7D
:105720004FF0006101EBC7204A141549FFF785FFD0
:1057300004E0224649464046FFF77FFFA64200D1DB
:105740000FE07F1C4FF0000A09EB4409A044301B16
:1057500086B2B6F5806F02DD4FF4806400E0344617
:10576000B0E700BF00F059FDBDE8F09F13B5044657
:10577000012201A92046FFF792FF1CBD00A00708E7
:105780001402002008B50121402000F029FC20204F
:10579000ADF8000010208DF8030003208DF8020002
:1057A0006946044800F060F92021024800F009FA37
:1057B00008BD00000018014010B56FF0040000F0B3
:1057C000D4F82E4800682E49B0FBF1F02D4908703E
:1057D0000846007800EB4001C1EBC0104FF6FF71A6
:1057E00001EAC0002849088010BD0146254A127808
:1057F0004A434FF0E0235A6100229A611A46126927
:1058000042F001021A6100BF4FF0E022106900F07F
:1058100001021AB100F48032002AF5D04FF0E022E4
:10582000126922F001024FF0E0231A6100229A610E
:1058300070470146144A12884A434FF0E0235A61E8
:1058400000229A611A46126942F001021A6100BFF1
:105850004FF0E022106900F001021AB100F480322A
:10586000002AF5D04FF0E022126922F001024FF039
:10587000E0231A6100229A617047000008000020AE
:1058800000127A001C0000201E00002009488047FA
:1058900009480047FEE7FEE7FEE7FEE7FEE7FEE712
:1058A000FEE7FEE7FEE7FEE704480549054A064B2A
:1058B0007047000033550008ED500008F813002031
:1058C000F8190020F8150020F8150020314901438F
:1058D000314A1160704770B5002100230F22C4784F
:1058E00004B32D4C246804F4E064C4F5E064210A98
:1058F000C1F10403CA40447804FA03F184781440E7
:1059000021430901254C0678A155047804F01F05B0
:105910000124AC4005786D11AD0005F1E025C5F816
:10592000004109E0047804F01F050124AC401C4D3F
:105930000678761145F8264070BD1A4A0A4002439F
:10594000154B1B1F1A60704739B1134A121D12689C
:105950000243114B1B1D1A6006E00F4A121D12680C
:1059600082430D4B1B1D1A607047042808D14FF06D
:10597000E021096941F004014FF0E022116107E0E4
:105980004FF0E021096921F004014FF0E02211619C
:10599000704700000000FA050CED00E000E400E0B4
:1059A00080E100E080FFFF1F10B50446CC48844230
:1059B00008D10121042000F02DFB0021042000F07B
:1059C00029FB46E0C748844208D10121082000F0A5
:1059D00021FB0021082000F01DFB3AE0C248844270
:1059E00008D10121102000F015FB0021102000F04B
:1059F00011FB2EE0BD48844208D10121202000F097
:105A000009FB0021202000F005FB22E0B848844279
:105A100008D10121402000F0FDFA0021402000F0D3
:105A2000F9FA16E0B348844208D10121802000F041
:105A3000F1FA0021802000F0EDFA0AE0AE4884423D
:105A400007D10121801500F0E5FA0021A01500F032
:105A5000E1FA10BD10B50121084600F0DBFA002183
:105A6000012000F0D7FA10BD2DE9F04102460025D3
:105A70000026002000230024002791F803C00CF02A
:105A80000F0591F803C00CF0100CBCF1000F03D00F
:105A900091F802C04CEA050591F800C0BCF1000F76
:105AA00031D0146800202BE04FF0010C0CFA00F309
:105AB000B1F800C00CEA03069E4220D183004FF0EB
:105AC0000F0C0CFA03F7BC4305FA03FC4CEA040480
:105AD00091F803C0BCF1280F06D14FF0010C0CFA6D
:105AE00000FCC2F814C00AE091F803C0BCF1480FF2
:105AF00005D14FF0010C0CFA00FCC2F810C0401C9C
:105B00000828D1D31460B1F800C0BCF1FF0F34DD18
:105B1000546800202EE000F1080C4FF0010808FA4C
:105B20000CF3B1F800C00CEA03069E4221D18300B9
:105B30004FF00F0C0CFA03F7BC4305FA03FC4CEAD8
:105B4000040491F803C0BCF1280F05D100F1080C42
:105B500008FA0CF8C2F8148091F803C0BCF1480FA1
:105B600007D100F1080C4FF0010808FA0CF8C2F850
:105B70001080401C0828CED35460BDE8F0814FF659
:105B8000FF710180022181700421C17070470246BB
:105B9000002093680B400BB1012000E0002070470B
:105BA0000146886880B2704702460020D3680B40E7
:105BB0000BB1012000E0002070470146C86880B2A8
:105BC000704701617047416170470AB1016100E0AF
:105BD00041617047C16070474FF480320A4382616F
:105BE0008161826182698269704702460020434B6D
:105BF00018684FF68073184040EA021008433F4B84
:105C0000186070473E49C8617047F0B50A460023E6
:105C100000240021002500F00046B6F1004F02D11B
:105C2000364EF16901E0354E7168C0F3034583B229
:105C300000F44016B6F5401F08D121F070612F4ED8
:105C4000766826F070662D4F7E6012E000F48016B4
:105C5000B6F5801F06D1032606FA05F4A14341F0EC
:105C6000706106E0460D360103FA06F6B14341F0D5
:105C7000706122B1460D360103FA06F6314300F099
:105C80000046B6F1004F02D11C4EF16101E01B4EFF
:105C90007160F0BD30B500228B071C0F0F2303FA93
:105CA00004F2164B08338C1053F824309343134CF2
:105CB00008348D1044F8253023468C1053F82430D6
:105CC0008C07240F00FA04F423430C4C08348D1085
:105CD00044F8253030BD0A49DC31086070470000C7
:105CE00000080140000C0140001001400014014078
:105CF00000180140001C014000200140000001404C
:105D000000002042DF48006840F00100DD490860E3
:105D100008464068DC490840DA494860084600689F
:105D2000DA490840D74908600846006820F4802016
:105D300008600846406820F4FE0048604FF41F00E9
:105D400088607047CF49096821F48031CD4A1160DD
:105D50001146096821F480211160B0F5803F03D01D
:105D6000B0F5802F0ED106E0C649096841F48031B4
:105D7000C44A116007E0C349096841F4A021C14A3F
:105D8000116000E000BF00BF704710B5014600225F
:105D9000002300204A11012A02D1BA4C236806E0F0
:105DA000022A02D1B74C236A01E0B64C636A01F0C3
:105DB0001F02012494401C400CB1012000E000208F
:105DC00010BD38B5002000900024002500BF312010
:105DD000FFF7DBFF05460098401C00900098B0F5E7
:105DE000A06F01D0002DF2D03120FFF7CEFF08B117
:105DF000012400E00024204638BD01460020A14ACD
:105E0000106820F0F80040EAC10010607047A04917
:105E100008607047024600209A4B586820F47C10B6
:105E200042EA01031843974B586070479849086647
:105E3000704701460020934A506820F00300084351
:105E4000506070478F48406800F00C007047014672
:105E500000208C4A506820F0F000084350607047E2
:105E600001460020874A506820F4E06008435060F3
:105E7000704701460020834A506820F4605040EA91
:105E8000C1005060704729B17E4A527A02437D4B6F
:105E90005A7204E07B4A527A82437A4B5A727047B4
:105EA0007B49D8310860704701460020754A506828
:105EB00020F440400843506070470021714A20326E
:105EC0001170704A82F82010012802D004280AD1EB
:105ED00004E001216B4A2032117005E00521694A76
:105EE0002032117000E000BF00BF704769490860B0
:105EF00070476449096A0143624A11627047654903
:105F000044390860704730B5002100220024002386
:105F10005C4D6D6805F00C0121B1042905D00829FC
:105F200023D105E05C4D056022E05B4D05601FE07C
:105F3000544D6D6805F47012524D6D6805F480344F
:105F4000022505EB92421CB9544D554305600BE008
:105F50004C4D6D6805F400351DB1504D554305603D
:105F600002E04D4D5543056002E04B4D056000BF1A
:105F700000BF444D6D6805F0F0010909484D6B5CA8
:105F80000568DD4045603F4D6D6805F4E061090A34
:105F9000434D6B5C4568DD4085603A4D6D6805F4A6
:105FA0006051C90A3E4D6B5C4568DD40C560354DAA
:105FB0006D6805F44041890B3A4D6B5CC568B5FBD3
:105FC000F3F5056130BD29B12E4A526902432D4BCC
:105FD0005A6104E02B4A526982432A4B5A61704746
:105FE00029B1284A92690243264B9A6104E0254A66
:105FF00092698243234B9A61704729B1214AD26941
:106000000243204BDA6104E01E4AD26982431D4BF1
:10601000DA61704729B11B4AD2680243194BDA6032
:1060200004E0184AD2688243164BDA60704729B1FF
:10603000144A12690243134B1A6104E0114A1269AF
:106040008243104B1A61704712494039086070470B
:106050000F49C86470470B49C87170470948406AC6
:1060600040F0807007494862704701460020054AA9
:1060700092680A400AB1012000E0002070470149FF
:1060800088727047001002400000FFF8FFFFF6FE24
:10609000000042428004424200127A0000093D00A2
:1060A0002000002030000020002044490860091D25
:1060B0000860091D0860091D086041483F49143106
:1060C0000860704700213D498279002A3AD00A468B
:1060D000126803689A430B461A600A1D1268036827
:1060E0009A430B1D1A60027911440A6803681A4327
:1060F0000A60324A0832126803689A432F4B083309
:106100001A601A1D126803689A432C4B0C331A60EC
:106110004279102A0ED11A1F126803681A43274BBE
:1061200008331A601A1D126803681A43234B0C3394
:106130001A600DE02149427911440A6803681A4344
:106140000A6005E0027911440A6803689A430A600C
:1061500070470021016001710C21417100218171A2
:1061600070471649103109680143144A1032116012
:10617000704701460020114A143212680A400AB1E1
:10618000012000E0002070470C491431086070477E
:10619000014600200022094B1B6803EA0102074B5D
:1061A00014331B680B4013B10AB1012000E000203A
:1061B0007047024914310860704700000004014034
:1061C000FFFF0F0001460020FE4A106800F0380073
:1061D000084310607047FB49096821F00801F94A3B
:1061E000116011460968014311607047F54909685B
:1061F00021F01001F34A1160114609680143116052
:106200007047F148EF494860F04848607047EE48F1
:10621000EC494860ED4848607047EA48006940F042
:106220008000E84908617047E648006940F0800056
:10623000E449086170470420E249C96801F001019E
:1062400009B101200EE0DF49C96801F0040109B17C
:10625000022007E0DB49C96801F0100109B1032001
:1062600000E00420704700B502460423FFF7E3FF77
:10627000034603E0FFF7DFFF0346521E012B01D167
:10628000002AF7D102B90523184600BD30B50446EF
:1062900004254FF43020FFF7E6FF0546042D17D103
:1062A000C848006940F00200C649086108464461D8
:1062B000006940F0400008614FF43020FFF7D3FF41
:1062C0000546C048006941F6FD710840BD490861B6
:1062D000284630BD10B504244FF43020FFF7C3FF2B
:1062E0000446042C16D1B748006940F00400B549B3
:1062F00008610846006940F0400008614FF4302012
:10630000FFF7B1FF0446AF48006941F6FB71084052
:10631000AC490861204610BD00B502460423FFF7D2
:106320008AFF034603E0FFF786FF0346521E012B58
:1063300001D1002AF7D102B90523184600BD10B5D6
:1063400004244FF43020FFF7E7FF0446042C16D155
:106350009C48006940F004009A49086108460069B9
:1063600040F0400008614FF43020FFF7D5FF0446AD
:106370009448006941F6FB71084092490861204643
:1063800010BD00208F49C96901F0020109B1012047
:1063900000E00020704730B5A5250424FFF7F1FF89
:1063A00000B100254FF43020FFF75DFF0446042CB8
:1063B0003AD18548834988608448886008460069E6
:1063C00040F0200008610846006940F04000086184
:1063D0004FF43020FFF747FF0446042C1BD17948C7
:1063E000006941F6DF710840764908610846006996
:1063F00040F01000086176480580E003FFF733FFA6
:106400000446052C10D06F48006941F6EF71084032
:106410006C49086108E0052C06D06A48006941F61D
:10642000EF71084067490861204630BD78B50646DF
:106430000C46042500200090E803FFF714FF0546F2
:10644000042D24D15F48006940F001005D490861D6
:106450003480E803FFF707FF0546042D10D1B01C78
:106460000090200C00990880E803FFF7FCFE054629
:106470005448006941F6FE7108405249086106E03F
:106480005048006941F6FE7108404E4908612846AF
:1064900078BD70B504460D460426F003FFF7E3FE11
:1064A0000646042E11D14748006940F001004549D5
:1064B00008612580F003FFF7D6FE064641480069D3
:1064C00041F6FE7108403F490861304670BD70B525
:1064D00005460E460424E003FFF7C5FE0446042CDF
:1064E00017D13948374988603848886008460069BC
:1064F00040F0100008612E80E003FFF7B4FE044670
:10650000052C06D02F48006941F6EF7108402D494F
:106510000861204670BD2DE9F04304464FF6FF7632
:106520003746B046B1460425E443E6B2C4F3072734
:10653000C4F307484FEA1469E803FFF794FE0546E1
:10654000042D49D120481F498860204888600846AA
:10655000006940F010000861FF2E06D01C4808308A
:106560000680E803FFF77FFE0546042D08D1FF2FC4
:1065700006D017480A300780E803FFF774FE054687
:10658000042D0AD1B8F1FF0F07D011480C30A0F844
:106590000080E803FFF767FE0546042D0AD1B9F134
:1065A000FF0F07D00A480E30A0F80090E803FFF76D
:1065B0005AFE0546052D0FD00248006941F6EF71DD
:1065C000084007E00020024023016745AB89EFCD7A
:1065D00000F8FF1F664908612846BDE8F08330B522
:1065E000054604244FF43020FFF73DFE0446042CFA
:1065F00041D160485E4988605F488860084600690C
:1066000040F0200008610846006940F04000086141
:106610004FF43020FFF727FE0446042C22D15448C3
:10662000006941F6DF710840514908610846006978
:1066300040F0100008611DB100205049088002E0C0
:10664000A5204E4908804FF43020FFF70CFE044689
:10665000052C10D04648006941F6EF7108404449C6
:10666000086108E0052C06D04148006941F6DF7159
:1066700008403F490861204630BDF0B505460E464A
:10668000174604243B483A4988603B488860E00349
:10669000FFF7E9FD0446042C19D13548006940F0A4
:1066A00010003349086147F0F8003043284333496C
:1066B000891C0880E003FFF7D6FD0446052C06D0B0
:1066C0002B48006941F6EF710840294908612046CE
:1066D000F0BD2748C069800870472548006A7047A8
:1066E00000202349096801F0200109B1012000E0E0
:1066F0000020704729B11E4A126902431C4B1A61DF
:1067000004E01B4A12698243194B1A617047014623
:106710000020012908D1164AD26902F001020AB10B
:10672000012008E0002006E0114AD2680A400AB1C0
:10673000012000E0002070470D49C8607047042028
:106740000B49C96801F0010109B101200EE00849B7
:10675000C96801F0040109B1022007E00449C968D1
:1067600001F0100109B1032000E00420704700008F
:106770000020024023016745AB89EFCD00F8FF1FE1
:1067800010B504462CB90120F94909680882002097
:1067900010BDF849096808688047F54800680A3064
:1067A000F6E710B5F2480068C078F34949788842A6
:1067B00013DCEF480068807878B9ED48006880887D
:1067C00058B9EB480068C078E94909688872E94916
:1067D000096848688047002010BD0220FCE710B51A
:1067E00004462CB90120E24909680882002010BD46
:1067F000E049096888688047DD4800680C30F6E7A2
:1068000010B5DB4B1B68D978D94B1B685879DB4B2B
:106810001B689A6990470446D5480068807AE8B1B9
:106820003CB9D3480068007918B9D148006880782D
:1068300008B1022010BD8CB9CE490968C8688047EC
:10684000CB4800684079CA490968C872C8480068DE
:10685000C078C749096808730020EBE70220E9E720
:1068600010B504462CB90220C149096808820020ED
:1068700010BD0020C2490880BD480068007800F0C3
:106880007F00E0B9BA490968487A00F0200129B1CF
:10689000BB49097841F00201B94A117000F040018A
:1068A00031B1B749097801F0FE01B54A117005E030
:1068B000B349097841F00101B14A11703AE0AC489E
:1068C0000068007800F07F00012801D1AC48CFE7D4
:1068D000A7480068007800F07F00022828D1A44A69
:1068E0001268517901F00F0001F080027AB1A54BD6
:1068F00003EB8002D2F8002C02F03002102A16D1ED
:106900009F4A127842F001029D4B1A700FE09D4B96
:1069100003EB8002D2F8002C02F44052B2F5805F03
:1069200005D1974A127842F00102954B1A7001E0A6
:1069300000209DE78F49096808698047904897E7DC
:106940002DE9F0478A480068007800F07F08B8F128
:10695000000F0AD186480068407A00F0DF008449C1
:10696000096848720020BDE8F087B8F1020F7DD1B8
:106970007F480068408818B97D480068007908B1F0
:106980000220F0E7DFF8F09179480068477927F0B6
:1069900080052C4676480068407900F0800038B1C8
:1069A000784901EB8400D0F8000C00F0300606E0D6
:1069B000744901EB8400D0F8000C00F4405699F8BB
:1069C0000000A84204D91EB169480068807A08B95D
:1069D0000220C8E707F0800080B16A4901EB84001B
:1069E000D0F8000C00F03000102843D1E0B201F0E4
:1069F00033F8E0B2302100F0DCFE3BE0614901EB0E
:106A00008400D0F8000C00F44050B0F5805F31D124
:106A1000C4B95D4A92F82C10E0B201F0A8F8594AC6
:106A200002EB8401D1F8001C4BF68F7201EA0200E0
:106A300080F4805080F40050524A02EB8401C1F887
:106A4000000C17E0E0B200F0F0FF4E4A02EB8401C8
:106A5000D1F8001C4BF68F7201EA020080F48050DE
:106A600080F40050474A02EB840100E008E0C1F8DE
:106A7000000C00BF3F49096848698047002072E761
:106A800000BF02206FE72DE9F041394800684679E0
:106A900026F080073C4636480068407900F08000C8
:106AA00038B1384901EB8400D0F8000C00F0300513
:106AB00006E0344901EB8400D0F8000C00F44055A6
:106AC0002D480078A04208D929480068408820B99C
:106AD0001DB127480068807A10B90220BDE8F08116
:106AE00006F0800080B1274A02EB8401D1F8001C37
:106AF00048F6BF7201EA020080F01000214A02EB62
:106B00008401C1F8000C10E01E4A02EB8401D1F8A8
:106B1000001C4BF68F7201EA020080F48050194A83
:106B200002EB8401C1F8000C00BF124909688869B2
:106B300080470020D2E710B50D480068407A40F049
:106B400020000B49096848720A490968C8698047EA
:106B5000002010BD10B5024605480068438AAAB956
:106B60008888C01A024C24682082002010BD0000D2
:106B70003C00002048000020480100204000002088
:106B800034000020005000404C01002008681844E8
:106B9000ECE72DE9F041FE48006800F1100426887A
:106BA000A068C0B1BEB1A588B54200D93546A8B22B
:106BB000A168884707462088401B208060882844B9
:106BC0006080002000F0A5FF8046AAB2414638460A
:106BD00000F08AFD00BF208850B14FF44050ED49CD
:106BE00008800021084600F0A0FF3020EA49088014
:106BF0002088A188884204DB0320E54909680872DF
:106C000018E02088002804DD0520E14909680872A1
:106C100010E0208870B90620DD490968087200215B
:106C2000DE48006880B2801CDD4A42F81010302037
:106C3000D9490880BDE8F0812DE9F047D4480068C3
:106C400000F110052E88D2480068077AD6B9042FC3
:106C500018D1D448007801280FD10021CF4800680E
:106C600080B2801CCE4A42F810103020CA490880F9
:106C700000BF0020CB49087003E007271020C64959
:106C8000088027E0AC88A64201D8042000E002205A
:106C90000746B44200D93446A0B2A9688847804666
:106CA000002000F02BFF8146A2B24946404600F08A
:106CB00001FDA1B2002000F038FF2888001B2880C9
:106CC0006888204468803020B34908800002B149B8
:106CD000088000BFAE4909680F72BDE8F08770B543
:106CE0000226AB4800684478A9480068007800F0A4
:106CF0007F0000284AD1092C03D1FFF752FD064638
:106D000065E0052C14D1A2480068C0787F280BDC10
:106D10009F480068807838B99D480068808818B915
:106D20009B480068807A08B108256BE000264EE099
:106D3000032C14D196480068C07801280DD19448DE
:106D40000068808848B992480068407A00F02000C6
:106D500018B1FFF7F0FE064639E0022637E0012CB5
:106D600035D18B480068C07801280DD1884800686B
:106D7000808848B986480068407A00F0200018B141
:106D8000FFF7DEFD064622E0022620E0804800688C
:106D9000007800F07F00012805D10B2C17D1FFF7F8
:106DA0002FFD064613E07A480068007800F07F0067
:106DB00002280BD1012C03D1FFF7C2FD064606E0E5
:106DC000032C04D1FFF75FFE064600E002264EB119
:106DD000E0B2754A1268516988470646032E01D110
:106DE00009250FE00EB108250CE0062500216B48AF
:106DF000006880B2801C6A4A42F810103020664950
:106E0000088000BF624909680D7270BD2DE9F84F16
:106E10005F48006845780027BA46062D1BD15C48BC
:106E20000068007800F07F00002813D158490968F5
:106E30008878012803D15C490968CF690AE00228F3
:106E400003D1594909680F6A04E0032802D1564961
:106E500009684F6A99E0002D67D14D480068408865
:106E6000002862D14A480068C08802285DD148489D
:106E700000680079002858D145480068007800F083
:106E80007F0030B942480068808810B9AFF22F67A0
:106E90007BE03F480068007800F07F00012811D1B6
:106EA0003B4909684879404909688A690021904747
:106EB00000286AD136480068807A002865D0AFF291
:106EC0005F6762E032480068007800F07F000228C7
:106ED0005BD12F480068407900F00F062C4800680D
:106EE000407900F070092A480068407900F080007D
:106EF00038B12E4901EB8600D0F8000C00F03008C4
:106F000006E02A4901EB8600D0F8000C00F4405856
:106F100027480078B04238D9B9F1000F35D1B8F11F
:106F2000000F32D0AFF2C7672FE0082D08D1184804
:106F30000068007800F07F0038BBAFF2BB7724E038
:106F40000A2D22D112480068007800F07F00012845
:106F50001BD10F480068807AB8B10D48006840889E
:106F600098B90B480068007978B909480068C0886A
:106F700001280AD10649096848790B4909688A69D4
:106F80000021904708B9AFF2A977EFB1004811E0AE
:106F90003C0000204C0000204E000020505C0040CF
:106FA00000600040360000204000002000500040FB
:106FB000480100200068A0F812A0AF48006887616F
:106FC0000020B84700240FE0AB4A12685078AB4A63
:106FD0001268116988470446032C05D10920A64987
:106FE00009680872BDE8F88FA3480068008A4FF668
:106FF000FF71884204D109209F4909680872F1E7AE
:10700000022C03D09C480068008A20B908209A49C5
:1070100009680872E6E798480068007800F0800088
:10702000E0B395480068C088009093480068008AE3
:107030000099884204D9904900980968088223E0A1
:107040008D480068008A8C490968C98888421BDA23
:1070500089480068008A8949096891F82C1088429B
:1070600003DA0020864908700EE083480068008A31
:107070008249096891F82C1090FBF1F201FB120093
:1070800010B901207E4908707C48006890F82C10E7
:10709000794800688182FFF7CFFD07E0FFE7032012
:1070A00075490968087200037649088000BF99E7AE
:1070B00010B5754890F82C10002000F058FD6E486F
:1070C0000068007A082805D140026E490880102027
:1070D0006E49088068480068007A092801D10120BB
:1070E00010BD0020FCE708B56948006880B2001DAB
:1070F000684931F8100080B201EB400000905E4812
:107100000068007A09282FD0009800785A49096849
:1071100008700098401C0090009800785649096853
:1071200048700098401C00900098801C00900099C6
:1071300031F8020B009100F0BBFE4F49096848800E
:107140000098801C0090009931F8020B009100F02B
:10715000AFFE4949096888800098801C009000981B
:10716000008845490968C8800120434909680872B8
:1071700041480068C08810B9FFF7B1FD01E0FFF792
:1071800045FEFFF795FF08BD30B50146424B1A7822
:10719000002011E00306414C04EB9353D3F8003C6C
:1071A00048F68F742340C4B2234304063B4D05EBDD
:1071B0009454C4F8003C401C9042EBD341F080034F
:1071C000334C241F236030BD10B52B480068047A6F
:1071D000022C01D0042C05D1FFF72EFD26480068B3
:1071E000047A1EE0062C1BD123480068407805284D
:1071F00010D121480068007800F07F0050B9FEF7F8
:10720000D0F81D490968C878FFF7BEFF244909680E
:10721000086A80471949096888688047082400E09F
:107220000824154909680C72FFF742FF10BD10B51C
:1072300011480068047A032C01D0052C05D1FFF712
:10724000A8FC0D480068047A0EE0072C05D10B4914
:107250000968C8688047082406E0022C01D0042C85
:1072600001D1082400E00824034909680C72FFF7E3
:107270001FFF10BD704700003C00002040000020B0
:10728000360000204C0000204C0100204E00002061
:10729000505C004000600040480100200050004069
:1072A0004800002010B50848084908600220096815
:1072B00008720748074908600748084908600549F7
:1072C00009680868804710BD140A00203C000020AF
:1072D0004C010020400000207C01002048000020DC
:1072E00010B5002473E147F6FF70EA490860EA48E8
:1072F000008800F00F00E94908700846007800286F
:107300007ED1E4484438006800F44050E4490880E5
:10731000E0484438006800F03000E2490880DD4968
:10732000443909684BF68F7201EA020080F400507C
:10733000D84944390860096848F6BF7201EA02007A
:1073400080F02000D34944390860D348008800F019
:107350001000002838D10846006848F60F71084030
:10736000CC4944390860FFF72FFFCA4944390968FE
:107370004BF68F7201EA0200C949098801F4805175
:1073800009B180F48050C649098801F4005109B15F
:1073900080F40050BF4944390860096848F6BF725C
:1073A00001EA0200BF49097801F0100109B180F03B
:1073B0001000BC49097801F0200109B180F02000DB
:1073C000B4494439086010BDB2484438006884B2FA
:1073D00004F08000D8B3AF484438006848F60F7115
:1073E0000840AC4944390860FFF7EEFEA94944392A
:1073F00009684BF68F7201EA0200A949098800E08A
:10740000A6E001F4805109B180F48050A4490988B4
:1074100001F4005109B180F400509E4944390860DC
:10742000096848F6BF7201EA02009E49097801F036
:10743000100109B180F010009A49097801F020018B
:1074400009B180F02000934944390860BBE7FFE7A9
:1074500004F40060D8B38F4844380068C0F30E00CD
:1074600048F68F7108408B4944390860FFF73BFEAE
:107470008849443909684BF68F7201EA020088494D
:10748000098801F4805109B180F480508449098849
:1074900001F4005109B180F400507E49443908607C
:1074A000096848F6BF7201EA02007E49097801F0D6
:1074B000100109B180F010007A49097801F020012B
:1074C00009B180F020007349443908607BE7FFE789
:1074D00004F4004000287AD06E4844380068C0F3B5
:1074E0000E0048F68F7108406A4944390860FFF77A
:1074F0009EFE6849443909684BF68F7201EA020022
:107500006749098801F4805109B180F480506449C9
:10751000098801F4005109B180F400505D494439F3
:107520000860096848F6BF7201EA02005D490978FF
:1075300001F0100109B180F010005A49097801F0FA
:10754000200109B180F020005249443908603AE72F
:1075500052480078544901EB8000D0F8000C84B206
:1075600004F40040C0B14D48007801EB8000D0F831
:10757000000CC0F30E0048F68F71084047490978A7
:10758000494A02EB8101C1F8000C44490978491EBF
:10759000464A52F82100804704F08000B8B13F48C5
:1075A0000078414901EB8000D0F8000C48F60F71DB
:1075B00008403A4909783C4A02EB8101C1F8000CC5
:1075C00036490978491E3A4A52F821008047314825
:1075D000006880B23049088000F4004000287FF441
:1075E00082AE00BFEFE610B5002449E047F6FF7019
:1075F000284908602848008800F00F0027490870D3
:1076000008460078284901EB8000D0F8000C84B2CD
:1076100004F40040C8B12148007801EB8000D0F8A4
:10762000000CC0F30E0048F68F7108401B49097822
:107630001D4A02EB8101C1F8000C18490978491E66
:107640001A4A52F8210080471AE004F08000B8B1CD
:1076500012480078144901EB8000D0F8000C48F67D
:107660000F7108400D4909780F4A02EB8101C1F8FA
:10767000000C0A490978491E0D4A52F8210080473A
:107680000448006880B20449088000F400400028E3
:10769000ACD110BD445C004008010020380000203F
:1076A0004C0000204E000020005000402801002027
:1076B0000C010020F0B5144604F1010C4FEA6C07F0
:1076C000DFF848C00CEB41033D460AE00678401C59
:1076D00090F800C046EA0C2223F8022B9B1C401CA9
:1076E0006D1E002DF2D1F0BDF0B5561C7510074E81
:1076F00006EB41042B4605E034F8047B20F8017BBF
:10770000401C5B1E002BF7D1F0BD00000060004064
:10771000F74908607047F648006880B27047F4493E
:10772000091D08607047F248001D006880B270476C
:10773000EF480830006880B27047ED490C310860AE
:107740007047EB480C30006880B270474FF6F87114
:107750000140E74A103211607047E5481030006878
:1077600080B27047E34B03EB8002C2F8001C704705
:107770000146E04A02EB8100D0F8000C80B270476D
:1077800010B5DC4B03EB8002D2F8002C48F68F13C7
:107790001A400A43D74C04EB8003C3F8002C10BDF9
:1077A0000146D44A02EB8100D0F8000C00F4C0601E
:1077B000704710B5CF4C04EB8003D3F8003C48F67B
:1077C000BF7403EA040201F010030BB182F010024F
:1077D00001F020030BB182F02002C64C04EB8003C1
:1077E000C3F8002C10BD10B5C24C04EB8003D3F8D5
:1077F000003C4BF68F7403EA040201F480530BB192
:1078000082F4805201F400530BB182F40052B94C5F
:1078100004EB8003C3F8002C10BD30B503460C46C2
:107820001846FFF7A5FF0546012C07D125F4805027
:10783000B04A02EB8301C1F8000C08E0022C06D12B
:1078400025F01000AB4A02EB8301C1F8000C30BDFB
:107850000146A84A02EB8100D0F8000C00F030008D
:1078600070470146A34A02EB8100D0F8000C00F4F7
:10787000405070479F4B03EB8002D2F8002C48F633
:10788000BF7302EA030181F0100181F02001994BDE
:1078900003EB8002C2F8001C7047964B03EB80029A
:1078A000D2F8002C4BF68F7302EA030181F4805169
:1078B00081F400518F4B03EB8002C2F8001C70472B
:1078C0008C4A02EB8001D1F8001C41F4807148F62B
:1078D0008F721140874B03EB8002C2F8001C704787
:1078E000844A02EB8001D1F8001C48F68F621140F7
:1078F000804B03EB8002C2F8001C70477D4A02EB0C
:107900008001D1F8001C48F68F621140794B03EBDF
:107910008002C2F8001C7047764A02EB8001D1F861
:10792000001C41F4807148F68F721140714B03EBDB
:107930008002C2F8001C70476E4A02EB8001D1F849
:10794000001C41F4807148F68F721140694B03EBC3
:107950008002C2F8001C7047664A02EB8001D1F831
:10796000001C48F68F621140624B03EB8002C2F8A4
:10797000001C704701465F4A02EB8100D0F8000C02
:1079800000F03000102801D1012070470020FCE7F2
:107990000146584A02EB8100D0F8000C00F4405038
:1079A000B0F5805F01D1012070470020FCE7514A0B
:1079B00002EB8001D1F8001CC1F30E0148F68F7272
:1079C00011404C4B03EB8002C2F8001C7047494A3F
:1079D00002EB8001D1F8001C48F60F721140454BB4
:1079E00003EB8002C2F8001C7047424A02EB8001A0
:1079F000D1F8001C48F68F72114041F480413D4B94
:107A000003EB8002C2F8001C70473A4A02EB800187
:107A1000D1F8001C48F68F72114041F04001354BFF
:107A200003EB8002C2F8001C7047324A02EB80016F
:107A3000D1F8001C01F4804169B102EB8001D1F85A
:107A4000001C48F68F72114041F48041294B03EB32
:107A50008002C2F8001C7047264A02EB8001D1F870
:107A6000001C01F0400169B102EB8001D1F8001C5B
:107A700048F68F72114041F040011E4B03EB80022B
:107A8000C2F8001C704710B51A4B03EB8002D2F805
:107A9000002C48F68F731A400A43164C04EB8003FF
:107AA000C3F8002C10BD0146124A02EB8100D0F849
:107AB000000C00F00F00704710B54A1052000C4B3C
:107AC00010331B689BB203EBC0030B4C44F813202C
:107AD00010BD10B54A105300054A1032126892B218
:107AE00002EBC002121D044C44F8123010BD00001D
:107AF000405C004000500040006000400146EF48FC
:107B0000006880B200EBC100ED4A32F8100080B28C
:107B100070470146E948006880B200EBC100001DD3
:107B2000E74A32F8100080B27047E44A126892B215
:107B300002EBC002921CE24B43F81210704702465F
:107B40003E290BDD481101F01F030BB9431E98B20B
:107B50004FF4004343EA8023136007E0481001F02C
:107B600001030BB1431C98B283021360704710B538
:107B70000246D248006880B200EBC200801DD04CA3
:107B800004EB40033E290BDD481101F01F040CB942
:107B9000441EA0B24FF4004444EA80241C6007E075
:107BA000481001F001040CB1441CA0B284021C6016
:107BB00010BD0146C148006880B200EBC100801CC6
:107BC000BF4A32F81000C0F3090070470146BB48B5
:107BD000006880B200EBC100801DB94A32F8100085
:107BE000C0F30900704730B54B105B00B34C2468FC
:107BF000A4B204EBC004B24D45F8143053105C003D
:107C0000AE4B1B689BB203EBC0031B1D45F8134032
:107C100030BD10B54A105200A84B1B689BB203EB55
:107C2000C003A74C44F8132010BD10B54A105300F0
:107C3000A24A126892B202EBC002121DA04C44F894
:107C4000123010BD01469D48006880B200EBC100B3
:107C50009B4A32F8100080B270470146974800688E
:107C600080B200EBC100001D954A32F8100080B2CE
:107C7000704730B50B46012B1FD19049096889B276
:107C800001EBC001891C8E4D05EB41043E2A0BDD42
:107C9000511102F01F050DB94D1EA9B24FF4004558
:107CA00045EA8125256007E0511002F001050DB17C
:107CB0004D1CA9B28D0225600AE0022B08D17F4934
:107CC000096889B201EBC001891C7D4C44F8112080
:107CD000012B1FD17949096889B201EBC001891DC7
:107CE000774D05EB41043E2A0BDD511102F01F05D3
:107CF0000DB94D1EA9B24FF4004545EA8125256016
:107D000007E0511002F001050DB14D1CA9B28D0222
:107D100025600AE0022B08D16849096889B201EBA5
:107D2000C001891D664C44F8112030BD30B50346B2
:107D300001291FD16148006880B200EBC300801C9C
:107D40005F4D05EB40043E2A0BDD501102F01F058C
:107D50000DB9451EA8B24FF4004545EA80252560BF
:107D600007E0501002F001050DB1451CA8B28502D4
:107D700025600AE0022908D15048006880B200EB73
:107D8000C300801C4E4C44F8102030BD30B5034673
:107D900001291FD14948006880B200EBC300801D53
:107DA000474D05EB40043E2A0BDD501102F01F0544
:107DB0000DB9451EA8B24FF4004545EA802525605F
:107DC00007E0501002F001050DB1451CA8B2850274
:107DD00025600AE0022908D13848006880B200EB2B
:107DE000C300801D364C44F8102030BD0146334896
:107DF000006880B200EBC100801C314A32F81000EC
:107E0000C0F30900704701462C48006880B200EBBF
:107E1000C100801D2A4A32F81000C0F309007047E3
:107E200001462648006880B200EBC100801D244A4C
:107E300032F8100000F47C4008B1012070471F4860
:107E4000006880B200EBC100801C1D4A32F81000AF
:107E5000C0F3090008B10220F0E70020EEE710B5FA
:107E600001290FD1174B03EB8002D2F8002C48F602
:107E70008F731A4042F04002124C04EB8003C3F8A7
:107E8000002C10E002290ED10E4B03EB8002D2F839
:107E9000002C48F68F731A4042F48042094C04EBE0
:107EA0008003C3F8002C10BD024641EA022070474F
:107EB0000146CAB20B1243EA02207047505C0040F0
:107EC000006000400050004010B50020FDF7E8FFC2
:107ED0000121C805FEF791F810BD0320394908605B
:107EE00070473948817A19B10521364A116002E09C
:107EF0000121344A116070470EB54FF4A060FDF7C0
:107F0000E5FC4FF48020FEF754F94FF480200090F8
:107F100008208DF8050001208DF806006846FEF760
:107F2000D1F814208DF8080001208DF809000020F8
:107F30008DF80A0001208DF80B0002A8FDF7CBFC9C
:107F40002A208DF8080000208DF8090002A8FDF70E
:107F5000C2FC0EBD00201D490860704701201B496E
:107F6000086070477047704718B10121174A1160C7
:107F700002E00021154A1160704710B5144B1868D3
:107F80001B1D19681B1D1A68A8B1124CA070030AAA
:107F90002371030CA371030E2372A1720B0A2373C6
:107FA0000B0CA3730B0E2374A274130A2375130C0A
:107FB000A375130E237610BD10B5002000F00CF849
:107FC00010BD7047D8010020140A002094012342FC
:107FD000E8F7FF1FEC00002070B50446012514B936
:107FE000FEF70FF90025284670BD2DE9F041044643
:107FF0000D4616461F464FF0010834B93A46314641
:10800000284601F009F94FF000084046BDE8F0812C
:108010002DE9F04706460D4617461C464FF001086D
:108020008EB922463946284600F0C6FF48B9A14617
:1080300004EBD971C1F34F020C4968183946FDF7BA
:108040000FFB4FF000084046BDE8F08701460120D5
:1080500059B94FF44842064B1A60C202054B1A60E8
:108060004FF0C862044B1A600020704700500008AF
:1080700058000020540000205000002070B5054634
:108080000C46FB48FB490860084605730D22982101
:10809000FFF710FB0D210120FFF747FD0520F649F2
:1080A00008702CB10420087030210120FFF781FBFB
:1080B00070BD10B5F148007840F01000EF4908702D
:1080C000ED480078022810D0032823D0042802D0DD
:1080D000052829D100E000BF0020E74908704FF4CF
:1080E00040510220FFF77FFB1FE0E548C07B2828B6
:1080F0000ED1E248007840F00200E0490870E04903
:10810000487BE0490A68E049096800F022FD00BFA9
:1081100000BF0AE001210020FFF7B0FF4FF44051FB
:108120000220FFF760FB00E000BF00BF10BD10B5EC
:10813000044624B1012C07D0022C15D10AE01021ED
:108140000120FFF736FB10E04FF480510220FFF7CB
:108150004AFB0AE010210120FFF72BFB4FF480516E
:108160000220FFF740FB00E000BF00BF10BD10B5CC
:10817000002404E0C548005DC1490855641CC4489A
:1081800000888442F6D3BE484068BA494860BC487B
:1081900080688860BE4800881F280FD00220FFF743
:1081A000C6FF0020B6490860487B1A22052100F06E
:1081B000E8FB00210120FFF761FF10BDB048C07B44
:1081C000282803D0AE48C07B2A2816D1AC48407C72
:1081D0000106AB48807C41EA0041A948C07C41EAE5
:1081E0000020A749097D0843A7490860A448C17D2C
:1081F000807D41EA0020A3490860A1480068A549A4
:1082000088426FD19E48407BA3490968884207D8BD
:108210009B48807B012803DB9948807B10280DDD7B
:108220000220FFF784FF9649487B2422052100F0B5
:10823000A8FB00210120FFF721FFE8E09048C07B68
:1082400025285FD01BDC15286FD00EDC08286DD0E8
:1082500006DC00285BD0032830D0042867D176E004
:108260000A286ED01228F9D12DE01A380A285ED2D9
:10827000DFE800F0392EB17D33B1B1B1B1438A28C6
:108280006FD00EDC552867D006DC282844D02A2879
:108290004ED02F28E2D155E05A2829D08828DDD1A8
:1082A00076E0A8286DD004DC8F286FD09E28D5D129
:1082B00073E0AA287BD0AF28D0D182E07049487BF8
:1082C00000F0F2FB95E06E49487B00F03FFB90E048
:1082D0006B49487B00F0F7FB8BE06949487B00F075
:1082E000F2FB86E086E06649487B00F0CFFB80E049
:1082F0006349487B00F0D1FB7BE06149487B00F09B
:1083000044FB76E05E49487B00F07BFB71E05C4912
:10831000487B00F0C1FC6CE05949487B59490A6828
:108320005949096800F015FC63E01BE024E052E0C5
:108330005349487B53490A685349096800F040FC97
:1083400057E02FE04E49487B00F071FC51E04C496A
:10835000487B00F0BBFC4CE04949487B00F0CCFC7A
:1083600047E029E04649487B00F0C6FC41E044492B
:10837000487B00F0C1FC3CE04149487B00F0BCFC7C
:1083800037E03F49487B00F0B7FC32E01EE00EE0EA
:108390003B49487B00F0B0FC2BE03949487B00F0BA
:1083A000ABFC26E03649487B00F0A6FC21E03449CE
:1083B000487B00F0A1FC1CE03149487B00F09CFCAC
:1083C00017E02F49487B00F097FC12E02C49487BCE
:1083D00000F092FC0DE00220FFF7A9FE2849487B3F
:1083E0002022052100F0CDFA00210120FFF746FEF2
:1083F00000BF0CE00220FFF79AFE2149487B2022B3
:10840000052100F0BEFA00210120FFF737FE00BF72
:10841000D3E610B51948007840F0100017490870ED
:108420001748C47B0220FFF7D1FB19490880084692
:108430000288D8211548FFF757F90F48007810B186
:10844000012839D102E0FFF792FE43E02A2C25D122
:108450000A48007840F00100084908700849487B44
:1084600008490A680849096800F0AAFB32E00000E0
:1084700055534253900A0020E0000020F1010020F3
:10848000700A0020E8000020E4000020300A0020EC
:10849000E200002055534243440100200120FFF731
:1084A00046FE1B49487B2422052100F06AFA002180
:1084B0000220FFF7E3FD0DE00220FFF738FE14492C
:1084C000487B2422052100F05CFA00210220FFF7FE
:1084D000D5FD00BF00BF10BD70B505460C46224655
:1084E00098212846FFF7E6F821460120FFF71DFBFB
:1084F00030210120FFF75DF9032006490870064886
:108500008068001B044988600020087370BD00006B
:10851000700A0020E0000020900A002010B5FFF74C
:10852000C8FD10BD10B5FFF774FF10BD10B50F48A2
:1085300000680F4908800846008800F480600D49F3
:108540000988084030B14FF6FF30084908600A49F1
:10855000486880470648008800F4004005490988BB
:10856000084008B1FEF7BCFE10BD0000445C0040AE
:1085700008010020460000204C01002010B5FFF744
:10858000FCFC002091490968887200F03BF900204A
:108590008F4908604FF404408E49088008460088DF
:1085A0008B49091F086000208B49086010BD10B579
:1085B00000208A4988728A48C079844909684872CB
:1085C0000020FFF7C3F84FF400710020FFF7D8F840
:1085D00020210020FFF7EDF818210020FFF779FA9D
:1085E000804890F82C100020FFF7C1FA5821002095
:1085F000FFF762FA0020FFF781F90020FFF74DF93D
:1086000000210120FFF7BCF898210120FFF754FA60
:1086100020210120FFF7CDF800210120FFF7E3F82A
:1086200000210220FFF7ACF8D8210220FFF751FA11
:108630006C4890F82C100220FFF799FA4FF4405143
:108640000220FFF7D0F800210220FFF7B2F86548BA
:1086500090F82C100020FFF78AFA0020FFF71DF990
:108660000020FEF791FD01205B4908605E485F49EC
:10867000086000205E490870FFF775FC10BD10B55A
:1086800052480068807A58B105205349086001209B
:10869000FFF7E2F90220FFF7C8F9002054490870FB
:1086A00010BD10B5514800684F49884202D00220E1
:1086B000FFF73DFD10BD0420474908607047704733
:1086C0007047014629B90120404A126810820020F3
:1086D00070474848FCE770B5054600243B480068F1
:1086E000007800F07F00212811D1FE2D0FD13748EE
:1086F0000068408858B935480068808838B93348E0
:108700000068C088012802D1AFF2490401E00220CC
:1087100070BD0CB90220FBE72C4800688461002181
:108720002A48006841820020A0470020F0E710B5E9
:10873000044626480068007800F07F0021281AD1FE
:10874000FF2C18D1214800684088A0B91F48006854
:10875000808880B91D480068C08860B90120FFF793
:108760007BF90220FFF761F91F48204908600020CB
:108770001F49087010BD0220FCE70246002901DDF8
:1087800002207047002A01DD0220FAE70020F8E706
:1087900010B5044618492046FEF7DCF910BD10B5A7
:1087A000044616492046FEF7D5F910BD70B50546BA
:1087B00006480068C478052C01DD002070BD104813
:1087C00000EBC4012846FEF7C5F9F7E73C0000209E
:1087D000445C004046000020D8010020140A00201C
:1087E000B09800084C01002055534243700A002005
:1087F000E000002044010020A0010020A80100208A
:10880000B001002010B50120FFF7AEFB01244C4859
:10881000046000204B4908800846008848490860E9
:108820000020091D08604FF4E050464908800846C2
:10883000008843490860002010BD10B50120404960
:1088400008600020091D0860FFF78EFB03203C49EB
:108850000860002010BD10B53948006884B244F0AB
:10886000080437480460006884B244F004043448C3
:108870000460FFF732FB10BD10B53148006884B2C8
:1088800024F004042E480460FFF72BFB4FF404404F
:108890002B49086010BD70B50546072D01D02A4848
:1088A000057029480078082841D2DFE800F0040A62
:1088B0001016212E4142FFF7DFFF062022490870E3
:1088C0003BE0FFF7D9FF04201F49087035E0022084
:1088D0001D494870032008702FE01B484078401E57
:1088E000194948700846407808B90420087024E007
:1088F0001348006884B244F0100411480460052055
:10890000114908700A20487017E00F484078401E4F
:108910000D4948700846407840B90948006884B25B
:1089200024F01004064804600620087005E000BF2B
:1089300000BF06200449087000BF00BF70BD0000E2
:10894000405C004046000020DD01002070B5064676
:10895000F948007C00F0010010B1F84C05250BE04F
:108960000EB9F74C00E0F74CF348C07C242802DC39
:10897000F148C57C00E0242529462046FFF7ACFDE0
:1089800070BDF14B99701A73704710B504462046BC
:10899000FFF75CFB68B1E849487B3A220221FFF708
:1089A000F0FF01210846FFF769FB0020FFF7BFFB3E
:1089B00010BDE64850F82400000EE5490871E34870
:1089C00050F82400000C4871E04830F82400000AF8
:1089D0008871DE4810F82400C871DE4850F8240081
:1089E000000C4872DB4830F82400000A8872D9482D
:1089F00010F82400C8720C21D548FFF76DFD00BFA8
:108A0000D6E710B504462046FFF720FB68B1CA49F7
:108A1000487B3A220221FFF7B4FF01210846FFF705
:108A20002DFB0020FFF783FB10BDC84850F8240041
:108A3000401E000EC8490870C44850F82400401E6B
:108A4000000C4870C14830F82400401E000A8870AD
:108A5000BE4810F82400401EC870BE4850F82400DC
:108A6000000E0871BB4850F82400000C4871B9484A
:108A700030F82400000A8871B64810F82400C87144
:108A80000821B548FFF728FD00BFCDE710B5044623
:108A90000421B248FFF720FD10BD10B5044608219F
:108AA000AF48FFF719FD10BD70B50546A248C07C60
:108AB000122802DCA048C47C00E012242146A2480F
:108AC000FFF70AFD70BD10B5044601210020FFF735
:108AD000D5FA10BD2DE9F04104460D4617461E4655
:108AE000B8199A4951F82410884213D92A2D02D175
:108AF0000220FFF71CFB0020FFF719FB21220521B4
:108B00002046FFF73EFF00210120FFF7B7FA0020C3
:108B1000BDE8F081884881688E4850F82400704391
:108B2000814214D02A2D03D10220FFF700FB02E07E
:108B30000020FFF7FCFA8049487B24220521FFF73B
:108B400020FF00210120FFF799FA0020E0E7012033
:108B5000DEE770B506460C4615468248007820BB15
:108B60007549487B2B4622462821FFF7B3FF00B901
:108B700070BD7148007B00F0800040B1022079494F
:108B800008702A462146304600F0EEF80CE002203C
:108B9000FFF7CDFA6849487B24220521FFF7F1FE53
:108BA00001210846FFF76AFAE2E76E4800780228DA
:108BB00004D12A462146304600F0D6F800BFD7E758
:108BC00070B506460C4615466648007820BB5A49E3
:108BD000487B2B4622462A21FFF77CFF00B970BD57
:108BE0005548007B00F0800040B901205D490870C5
:108BF0004FF440510220FEF7F6FD0CE00020FFF795
:108C000096FA4D49487B24220521FFF7BAFE002140
:108C10000120FFF733FAE2E752480078012804D137
:108C20002A462146304600F01DF900BFD7E710B5AF
:108C300004464148806848B93F48007C00F0040081
:108C400020B901210020FFF719FA0CE00220FFF7FC
:108C50006EFA3949487B24220521FFF792FE002154
:108C60000120FFF70BFA10BD10B5044632488068AA
:108C700068B10220FFF75BFA2F49487B20220521CB
:108C8000FFF77FFE00210120FFF7F8F903E0012143
:108C90000020FFF7F3F910BD10B504462046FFF79A
:108CA000D5F968B12449487B3A220221FFF769FED1
:108CB00001210846FFF7E2F90020FFF738FA10BD5E
:108CC00001210020FFF7DAF900BFF8E710B50446EC
:108CD0002046FFF7BBF968B11749487B3A220221C9
:108CE000FFF74FFE01210846FFF7C8F90020FFF704
:108CF0001EFA10BD00BFFCE710B504460E488068A0
:108D000018B90020FFF713FA0BE00B48007B00F0C6
:108D1000800018B10020FFF70AFA02E00220FFF7F6
:108D200006FA0549487B20220521FFF72AFE00218B
:108D30000120FFF7A3F910BD700A00206000002099
:108D40006500002089000020B900002058000020A4
:108D5000D300002054000020CB000020AD000020F4
:108D6000B1000020E00000202DE9F04104460D464E
:108D700016468148007870B9804850F8240068434E
:108D80007F4908607D4850F8240070437D490860A1
:108D90000120794908707848007801284ED17A4836
:108DA000006800BB754830F8240083B2774A7448E5
:108DB00001682046FFF72CF9C7B22FB1744800783C
:108DC00040F0080072490870402298216F48FEF771
:108DD00071FC6A4850F8240040386B490860402014
:108DE0006C49086011E069496A4A12688818402293
:108DF0009821FEF75FFC64480068403862490860CB
:108E00006448006840306349086040210120FEF753
:108E10008CFE30210120FEF7CCFC59480068403020
:108E200057490860574800684038564908605A4812
:108E30008068403858498860FFF78CF851480068CE
:108E400070B9002050490860524908604C490860D8
:108E5000032052490870002047490870FFF77EF848
:108E6000BDE8F0812DE9F04104460D4616464C4818
:108E7000006800F140084048007870B93F4850F859
:108E800024006843474908603C4850F82400704378
:108E900045490860012038490870374800780128A2
:108EA00056D100204149086010E040480168006840
:108EB000401C3E4A10603E48415C3448384A1268C3
:108EC000815437480068401C3549086034480068C0
:108ED0004045EAD333480068364909880844314997
:108EE00008603148006833490988401A2E490860F3
:108EF000224850F824000968B1FBF0F200FB121080
:108F0000C0B90020264908601C4830F8240083B20C
:108F10001A4850F82400234A1268111A1B4A2046A6
:108F2000FFF763F8C7B22FB11948007840F004008A
:108F300017490870184880681E490988401A164960
:108F400088604FF440510220FEF74DFCFFF702F815
:108F50001548006818B11148007804280AD100208B
:108F60000F4908600121FFF789F8002002490870C5
:108F7000FEF7F4FFBDE8F081F0010020540000206E
:108F8000F4010020F8010020E0010020A00A0020E8
:108F9000F1010020E4010020900A0020E000002000
:108FA000E8010020FC01002000020020EC0100206C
:108FB000300A0020E200002030B504460B464CB1D8
:108FC000B4F5805F23D0B4F5584F21D0B4F5604F8D
:108FD0004ED130E0002104E0B148405C03F8010BC1
:108FE000491C3E29F8DB891C02E0002003F8010B34
:108FF0000846491CB0F5007FF7DB02E0002003F8CB
:10900000010B0846491CB0F5006FF7DB3BE000BFE1
:10901000002104E0A348405C03F8010B491C04292B
:10902000F8DB02E0002003F8010B0846491CB0F50C
:10903000006FF7DB27E0002104E09B48405C03F869
:10904000010B491C0B29F8DB002104E09748405C28
:1090500003F8010B491C2F29F8DB0B3102E000203B
:1090600003F8010B0846491CB0F5006FF7DB0AE076
:10907000002102E0002003F8010B0846491CB0F56E
:10908000006FF7DB00BF00BF4FF4006030BD2DE97B
:10909000F04180460D4616462C46022720342034E7
:1090A00000E02034E07A202804D038467F1CB0F558
:1090B000007FF6D3B7F5007F09D8202221467C48EF
:1090C00000F0F1FA00207A49C882088303E02021E9
:1090D000774800F02DFB3046BDE8F0812DE9FF5FB9
:1090E00007468A4614467248C0690390704D16358B
:1090F0004FF0000803226FA1A5F10E0000F088FADE
:1091000018BB6D4806884FEAC6296948C0694845BA
:1091100016D86A493944A1F59030C4F34F0251463C
:10912000FCF7BDFA2868204428602968039881422A
:109130000ADB002028604FF400706149086003E0FA
:109140004FF480405E49086062E003225DA1584808
:10915000083000F05DFA00284AD1B7F5903F17D1EA
:109160005548B0F800B0002658460BEBD0714910B6
:109170000A3989B2029100BF06E0504901EBC620CE
:10918000FDF784F8701C86B202988642F5DB00BFBA
:109190004FF0000829E01AF808104B48006800F06A
:1091A000CAF800F0FF09B9F1000F15D16946464829
:1091B000006800F00DFA70B14049009888420AD367
:1091C000FDF71FF89DF8086006EBD6735A10DDE92D
:1091D0000001FCF732FA06E0B9F1020F03D14FF4B7
:1091E00000703749086008F10108A045D3D30FE0AB
:1091F000032236A12E48083000F00AFA20B94FF4B5
:1092000080602F49086003E04FF480602C490860BB
:10921000204604B0BDE8F09F70B504460D461646E2
:109220004CB1B4F5805F07D0B4F5584F05D0B4F514
:10923000604F0DD102E000BF00BF12E03246294668
:109240002046FFF724FF00F06DF81F49086008E092
:10925000B4F5903F04D3324629462046FFF73EFF3F
:1092600000BF00BF4FF4006070BD70B505462846D2
:1092700000F0FAF9C6B2002404E0285D0A49085556
:10928000601CC4B2082C01DAB442F6DB04E02020F2
:1092900005490855601CC4B2082CF8DB204670BD97
:1092A000209900085E9900080402002062990008D5
:1092B000A012002042494E00E0F7FF1F00500008B6
:1092C000000000204845580010020020534543008C
:1092D00070B503460C460021104602EBD0756D10A8
:1092E000A2EB45050DB1002070BD00210FE0480044
:1092F000401C185C3038C44D2D5C13F81100303818
:10930000C14E305C45EA00106054481CC1B202EB0B
:10931000D275B1EB650FEADB154602EBD570C0F3F1
:109320004700E1E7B948704710B50446D62120460A
:1093300000F0FEF910BD2DE9F04104460D4601276D
:1093400014B9B81EBDE8F08194F8650009280FD261
:10935000DFE800F0050F4C77AAD60E0EFE003A2D7E
:1093600006D1012064346070A571022004F86409FC
:109370002BE194F86400C0F10200255494F86400D5
:10938000401EC0B284F8640048BB607830389E4903
:10939000095C207830389C4A105C41EA001084F85F
:1093A0006B0094F86B0080B9302020706070A07062
:1093B000E0702071312060714620A071E0710820BA
:1093C00084F8650084F864000FE094F86B0032289C
:1093D00006DC042084F86400022084F8650004E0C0
:1093E0002046FFF7A1FF4FF0FF37EEE094F864004E
:1093F000C0F10400255494F86400401EC0B284F803
:109400006400E8B9607830387F49095C20783038EA
:109410007D4A105C41EA001084F86C00E078303836
:109420001146095CA0783038105C41EA0010C1B2E6
:109430006D200155032084F86500022084F8640043
:10944000C3E094F86400C0F10200255494F864006D
:10945000401EC0B284F8640028BB607830386A4986
:10946000095C20783038684A105C41EA001084F8C2
:10947000700094F8700020B1042803D005280BD1A7
:1094800001E000BF00BF042064346070E079400652
:10949000000E04F8640905E02046FFF745FF4FF091
:1094A000FF3700BF00BF90E094F8641094F86B00A1
:1094B000C1EB4000255494F86400401EC0B284F80B
:1094C0006400E0B994F86B004006020E04F17101EB
:1094D0002046FFF7FDFE94F87000042808D194F8A8
:1094E0006B2004F1710104F1660000F0DCF800E08B
:1094F00000BF052084F86500022084F8640064E061
:1095000094F86400C0F10200255494F86400401EF1
:10951000C0B284F86400B0BB0026607830383A49A5
:10952000095C20783038384A105C41EA001084F831
:10953000D50094F86B003044C6B294F86C00304407
:10954000C6B26D20005D3044C6B294F8700000E0F1
:1095500021E03044C6B2002000BF06E004F17101F2
:10956000095C3144CEB2411CC8B294F86B10814200
:10957000F4DC94F8D5003044C6B22EB9002084F84B
:109580006500002705E005E02046FFF7CDFE4FF01F
:10959000FF3700BF19E094F86400C0F10800C6B2BC
:1095A000A05DA8420BD194F86400401EC0B284F8BC
:1095B000640048B92046FFF7B7FE022704E02046C2
:1095C000FFF7B2FE4FF0FF3700BF00BF3846B9E6E5
:1095D00002460B4692F8700008B1002070476D20DB
:1095E000805C187092F86C0058706720805C9870EE
:1095F00092F86600D87002F17100486092F86B0032
:109600000872087AEAE7000091990008C012002069
:1096100040EA010310B59B070FD1042A0DD310C8EF
:1096200008C9121F9C42F8D020BA19BA884201D941
:10963000012010BD4FF0FF3010BD1AB1D30703D089
:10964000521C07E0002010BD10F8013B11F8014B3F
:109650001B1B07D110F8013B11F8014B1B1B01D15B
:10966000921EF1D1184610BD10B5431C02E010F84F
:10967000011B71B18107FAD14FF0013202C88C1A77
:109680008C4314EAC211F9D0C01A0A0603D0C01ED6
:1096900010BDC01A10BD0A0401D0801E10BD090201
:1096A000FCD0401E10BD032A40F2308010F0030CA5
:1096B00000F0158011F8013BBCF1020F624498BF25
:1096C00011F801CB00F8013B38BF11F8013BA2F1C2
:1096D000040298BF00F801CB38BF00F8013B11F03D
:1096E000030300F04A80083AC0F0088051F8043BB8
:1096F000083A51F804CBA0E80810F5E7121D5CBF4A
:1097000051F8043B40F8043BAFF30080D20724BF7C
:1097100011F8013B11F801CB48BF11F8012B24BF10
:1097200000F8013B00F801CB48BF00F8012B70475F
:109730004FF000020429C0F0128010F0030C00F07A
:109740005080CCF1040CBCF1020F18BF00F8012BC3
:10975000A8BF20F8022BA1EB0C0100F042B85FEA91
:10976000C17C24BF00F8012B00F8012B48BF00F892
:10977000012B704770477047704710B5203AC0F012
:109780000B80B1E81850203AA0E81850B1E8185002
:10979000A0E81850BFF4F5AF5FEA027C24BFB1E83F
:1097A0001850A0E8185044BF18C918C0BDE81040B0
:1097B0005FEA827C24BF51F8043B40F8043B08BFB9
:1097C0007047D20728BF31F8023B48BF11F8012B80
:1097D00028BF20F8023B48BF00F8012B70474FF02C
:1097E000000200B5134694469646203922BFA0E8F1
:1097F0000C50A0E80C50B1F12001BFF4F7AF0907FD
:1098000028BFA0E80C5048BF0CC05DF804EB8900ED
:1098100028BF40F8042B08BF704748BF20F8022B30
:1098200011F0804F18BF00F8012B7047754600F00B
:109830002BF8AE4605006946534620F007008546E2
:1098400018B020B5FCF730F8BDE820404FF0000616
:109850004FF000074FF000084FF0000B21F0070118
:10986000AC46ACE8C009ACE8C009ACE8C009ACE85B
:10987000C0098D46704710B50446AFF300802046FE
:10988000BDE81040FBF799BC0048704798130020D2
:1098900001491820ABBEFEE7260002007047120106
:1098A000000200000040840422570002010203016C
:1098B00009022000010100C0FA09040000020806A4
:1098C0005004070581024000000705020240000025
:1098D00004030904160349006F0054002D005300CF
:1098E00074007500640069006F0026035500530082
:1098F000420020004D005300440042006F006F0002
:10990000740020004C006F0061006400650072006C
:1099100010035300540020004D00610073007300D9
:10992000EB3C904D53444F53352E30000804020059
:109930000200020000F80D003F00FF0000000000E0
:1099400000C80000800029BDA5DD024E4F204E4119
:109950004D45202020204641543136202020F8FF5C
:10996000FFFF20004B9C429238923800009D4292AB
:1099700038000000000000424F4F544C4F41444516
:10998000522008000000000000000000009D4292EC
:1099900038000102030405060708093A3B3C3D3E36
:1099A0003F400A0B0C0D0E0FC89900080000002064
:1099B0001402000028510008A49A00081402002094
:1099C000E41700008451000841420A84A24A04A816
:1099D000090102030406070809106914053202048C
:1099E000060835800202202D53544D2001180E53D5
:1099F0004420466C617368204469736B10ED312E0E
:109A0000302024BC4E414E26292442036206627057
:109A100039BC011139A3021002141A035312541253
:109A20004D123312321A20020110131D850C180832
:109A30007572040A152520412303011A7D201AAFEF
:109A40000413BF861B08C1041AD704132F871B08F1
:109A50007B041A91041A9F041AAD04413240293C38
:109A60001A7F24A94C9AA3101AB70C139E98330896
:109A7000121AB00829B21AD00832041AD4083216C1
:109A80001AEA08322622EC33201A131099730810B0
:109A900019930125500C5245414459202020545817
:049AA000540000006E
:04000005080050EDB2
:00000001FF
