:020000040800F2
:100000006810002001010008090100080B01000828
:100010000D0100080F010008110100080000000098
:1000200000000000000000000000000013010008B4
:100030001501000800000000170100081901000860
:100040001B0100081B0100081B0100081B01000820
:100050001B0100081B0100081B0100081B01000810
:100060001B0100081B0100081B0100081B01000800
:100070001B0100081B0100081B0100081B010008F0
:100080001B0100081B0100081B0100083D2F000890
:100090002D3000081B0100081B0100081B0100088F
:1000A0001B0100081B0100081B0100081B010008C0
:1000B0001B0100081B0100081B0100081B010008B0
:1000C0001B0100081B0100081B0100081B010008A0
:1000D0001B0100083D2E00081B0100081B01000841
:1000E0001B0100081B010008232F0008DFF80CD0BB
:1000F00000F050F800480047B935000868100020AB
:100100000648804706480047FEE7FEE7FEE7FEE7B1
:10011000FEE7FEE7FEE7FEE7FEE7FEE79D2D0008AF
:10012000ED00000840EA01039B0703D009E008C97D
:10013000121F08C0042AFAD203E011F8013B00F8AC
:10014000013B521EF9D27047D2B201E000F8012BF8
:10015000491EFBD270470022F6E710B513460A4647
:1001600004461946FFF7F0FF204610BD421C10F868
:10017000011B0029FBD1801A704730B504460020CE
:10018000034600E05B1C934203D2E05CCD5C401B65
:10019000F8D030BD064C074D06E0E06840F00103A2
:1001A00094E8070098471034AC42F6D3FFF7A2FF5B
:1001B00094370008B437000870B58C1810F8015B4C
:1001C00015F0070301D110F8013B2A1106D110F8F0
:1001D000012B03E010F8016B01F8016B5B1EF9D1F4
:1001E0002B0705D40023521E0DD401F8013BFAE77A
:1001F00010F8013BCB1A921C03E013F8015B01F8E5
:10020000015B521EF9D5A142D8D3002070BD000079
:1002100070B500240F480068B0F1FF3F07D10D48CA
:100220004068B0F1FF3F02D14FF4005070BD094863
:100230000468B4F1005F01D2C013F7E705484468D1
:1002400004F0010010B94FF48050EFE72546A847AD
:100250000020EBE70040000810B5044624B1012C53
:1002600007D0022C15D10AE01021012002F024FA57
:1002700010E04FF48051022002F0CEF90AE0102184
:10028000012002F019FA4FF48051022002F0C4F963
:1002900000E000BF00BF10BD0146CAB20B1243EA26
:1002A0000220704710B5002404E0A748005DA7496C
:1002B0000855641CA64800888442F6D3A3484068C9
:1002C000A4494860A14880688860A14800881F2828
:1002D0000FD00220FFF7C0FF00209C490860487B38
:1002E0001A22052102F0ACFA0021012002F086FA60
:1002F00010BD9648C07B282803D09448C07B2A288C
:1003000016D19248407C01069048807C41EA004129
:100310008E48C07C41EA00208C49097D08438E4903
:1003200008608A48C17D807D41EA00208B490860D1
:10033000864800688A4988426FD18448407B894951
:100340000968884207D88148807B012803DB7F4801
:10035000807B10280DDD0220FFF77EFF7B49487B64
:100360002422052102F06CFA0021012002F046FA55
:10037000E8E07648C07B25285FD01BDC15286FD0CD
:100380000EDC08286DD006DC00285BD0032830D0B6
:10039000042867D176E00A2873D01228F9D12DE01D
:1003A0001A380A285ED2DFE800F0392EB17D33B169
:1003B000B1B1B1438A286FD00EDC552867D006DC76
:1003C000282844D02A284ED02F28E2D154E05A2899
:1003D00029D08828DDD176E0A8286DD004DC8F28CC
:1003E0006FD09E28D5D173E0AA287BD0AF28D0D17A
:1003F00082E05649487B01F0DDFF95E05349487B98
:1004000001F0B0FE90E05149487B01F0E7FF8BE03E
:100410004E49487B01F0E2FF86E086E04B49487B8D
:1004200001F0F0FE80E04949487B01F0E1FE7BE00D
:100430004649487B01F07AFF76E04449487B01F069
:1004400027FF71E04149487B01F0D0FF6CE03F4954
:10045000487B42490A684049096801F0DDFE63E0D3
:100460001BE024E052E03949487B3C490A683A499C
:10047000096801F0F7FF57E03449487B01F0D2FFEB
:1004800052E02AE03149487B01F054FE4CE02F490C
:10049000487B01F08BFE47E029E02C49487B01F0C6
:1004A00085FE41E02949487B01F080FE3CE0274978
:1004B000487B01F07BFE37E02449487B01F076FE63
:1004C00032E01EE00EE02149487B01F06FFE2BE098
:1004D0001E49487B01F06AFE26E01C49487B01F07A
:1004E00065FE21E01949487B01F060FE1CE01749D8
:1004F000487B01F05BFE17E01449487B01F056FE93
:1005000012E01249487B01F051FE0DE00220FFF796
:10051000A3FE0E49487B2022052102F091F900211B
:10052000012002F06BF900BF0CE00220FFF794FEFF
:100530000649487B2022052102F082F90021012092
:1005400002F05CF900BFD3E6000300204003002066
:10055000DA00002060030020DC000020E000002022
:10056000555342433C01002010B5002449E047F6B2
:10057000FF70294908602948008800F00F002849C9
:10058000087008460078274901EB8000D0F8000C7D
:1005900084B204F40040C8B12148007801EB800027
:1005A000D0F8000CC0F30E0048F68F7108401C49CB
:1005B00009781C4A02EB8101C1F8000C184909783E
:1005C000491E194A52F8210080471AE004F08000C1
:1005D000B8B113480078134901EB8000D0F8000C43
:1005E00048F60F7108400E4909780E4A02EB810166
:1005F000C1F8000C0A490978491E0C4A52F821003A
:1006000080470548006880B20449088000F4004033
:100610000028ACD110BD0000445C00400001002067
:100620003000002000500040200100200401002084
:1006300010B5002473E147F6FF70BF490860BF485A
:10064000008800F00F00BE490870084600780028B6
:100650007ED1B9484438006800F44050B949088058
:10066000B5484438006800F03000B7490880B24906
:10067000443909684BF68F7201EA020080F4005099
:10068000AD4944390860096848F6BF7201EA0200C2
:1006900080F02000A84944390860A848008800F08C
:1006A0001000002838D10846006848F60F7108404D
:1006B000A1494439086001F015F89F494439096897
:1006C0004BF68F7201EA02009E49098801F48051BD
:1006D00009B180F480509B49098801F4005109B1A7
:1006E00080F40050944944390860096848F6BF72A4
:1006F00001EA02009449097801F0100109B180F083
:1007000010009149097801F0200109B180F0200022
:1007100089494439086010BD87484438006884B26C
:1007200004F08000D8B384484438006848F60F715C
:10073000084081494439086000F0D4FF7E494439BB
:1007400009684BF68F7201EA02007E49098800E0D1
:10075000A6E001F4805109B180F4805079490988FC
:1007600001F4005109B180F4005073494439086024
:10077000096848F6BF7201EA02007349097801F07E
:10078000100109B180F010006F49097801F02001D3
:1007900009B180F02000684944390860BBE7FFE7F1
:1007A00004F40060D8B3644844380068C0F30E0015
:1007B00048F68F71084060494439086002F050F8EB
:1007C0005D49443909684BF68F7201EA02005D49C0
:1007D000098801F4805109B180F480505949098891
:1007E00001F4005109B180F40050534944390860C4
:1007F000096848F6BF7201EA02005349097801F01E
:10080000100109B180F010004F49097801F0200172
:1008100009B180F020004849443908607BE7FFE7D0
:1008200004F4004000287AD0434844380068C0F3FC
:100830000E0048F68F7108403F494439086001F0C6
:10084000E5FA3D49443909684BF68F7201EA020026
:100850003C49098801F4805109B180F4805039493C
:10086000098801F4005109B180F40050324944393B
:100870000860096848F6BF7201EA02003249097847
:1008800001F0100109B180F010002F49097801F042
:10089000200109B180F020002749443908603AE777
:1008A00027480078294901EB8000D0F8000C84B279
:1008B00004F40040C0B12248007801EB8000D0F879
:1008C000000CC0F30E0048F68F7108401C490978EF
:1008D0001E4A02EB8101C1F8000C19490978491E32
:1008E0001B4A52F82100804704F08000B8B1144838
:1008F0000078164901EB8000D0F8000C48F60F7123
:1009000008400F490978114A02EB8101C1F8000C37
:100910000B490978491E0F4A52F8210080470648C2
:10092000006880B20549088000F4004000287FF488
:1009300082AE00BFEFE60000445C004000010020F2
:1009400030000020440000204600002000500040FD
:1009500020010020040100200B4A02EB8001D1F8A5
:10096000001C01F4804169B102EB8001D1F8001C48
:1009700048F68F72114041F48041034B03EB800233
:10098000C2F8001C70470000005000400B4A02EB08
:100990008001D1F8001C01F0400169B102EB800137
:1009A000D1F8001C48F68F72114041F04001034B12
:1009B00003EB8002C2F8001C7047000000500040AA
:1009C000064A02EB8001D1F8001C48F68F62114004
:1009D000024B03EB8002C2F8001C7047005000403D
:1009E0002DE9F0472848006800F110052E882648B8
:1009F0000068077AD6B9042F18D124480078012856
:100A00000FD100212248006880B2801C214A42F8A0
:100A1000101030202049088000BF00201B490870BA
:100A200003E0072710201C49088027E0AC88A64275
:100A300001D8042000E002200746B44200D9344621
:100A4000A0B2A96888478046002000F009FE8146D0
:100A5000A2B24946404602F0F5FAA1B2002001F0E8
:100A60001DFE2888001B288068882044688030206C
:100A70000949088000020949088000BF0249096845
:100A80000F72BDE8F0870000340000202C00002029
:100A9000505C004000600040460000204400002000
:100AA0002DE9F0412848006800F110042688A0686C
:100AB000C0B1BEB1A588B54200D93546A8B2A1687B
:100AC000884707462088401B208060882844608033
:100AD000002000F0A3FD8046AAB24146384601F04E
:100AE000BDF900BF208850B14FF44050174908802D
:100AF0000021084601F0D2FD3020154908802088E9
:100B0000A188884204DB03200F490968087218E0B5
:100B10002088002804DD05200B490968087210E0D0
:100B2000208870B906200849096808720021094820
:100B3000006880B2801C084A42F810103020044936
:100B40000880BDE8F081000034000020440000204F
:100B500046000020505C0040006000402DE9F84F46
:100B60009B48006845780027BA46062D1BD1984857
:100B70000068007800F07F00002813D194490968CC
:100B80008878012803D193490968CF690AE00228CF
:100B900003D1904909680F6A04E0032802D18D4906
:100BA00009684F6A94E0002D64D189480068408844
:100BB00000285FD186480068C08802285AD184483E
:100BC00000680079002855D181480068007800F05D
:100BD0007F0028B97E480068808808B97E4F77E09A
:100BE0007B480068007800F07F00012810D1784928
:100BF00009684879774909688A690021904700287F
:100C000066D173480068807A002861D0724F5FE037
:100C10006F480068007800F07F00022858D16C48C7
:100C20000068407900F00F0669480068407900F0DC
:100C3000700967480068407900F0800038B1674962
:100C400001EB8600D0F8000C00F0300806E06349A4
:100C500001EB8600D0F8000C00F4405860480078A2
:100C6000B04235D9B9F1000F32D1B8F1000F2FD011
:100C7000594F2DE0082D07D155480068007800F045
:100C80007F0028BB574F23E00A2D21D15048006830
:100C9000007800F07F0001281AD14D480068807A62
:100CA000B0B14B480068408890B949480068007965
:100CB00070B947480068C088012809D144490968CB
:100CC0004879444909688A690021904700B9464F2C
:100CD00057B13F480068A0F812A03D4800688761FE
:100CE0000020B84700240FE0394A12685078394A8A
:100CF0001268116988470446032C05D1092034493C
:100D000009680872BDE8F88F31480068008A4FF61C
:100D1000FF71884204D109202D4909680872F1E762
:100D2000022C03D02A480068008A20B908202849EC
:100D300009680872E6E726480068007800F080003D
:100D4000E0B323480068C088009021480068008A0A
:100D50000099884204D91E4900980968088223E056
:100D60001B480068008A1A490968C98888421BDA4A
:100D700017480068008A1749096891F82C108842C2
:100D800003DA0020194908700EE011480068008A53
:100D90001049096891F82C1090FBF1F201FB120048
:100DA00010B90120114908700A48006890F82C1009
:100DB000074800688182FFF713FE07E0FFE7032082
:100DC00003490968087200030949088000BF99E7D0
:100DD0003400002038000020E92A000800500040BC
:100DE000400100206D2A0008BD2A00082C000020C8
:100DF0004400002010B500F05DFE10BD10B500F0FD
:100E0000A1FE10BD014908607047000014040140B4
:100E1000002123498279002A3AD00A4612680368E1
:100E20009A430B461A600A1D126803689A430B1D09
:100E30001A60027911440A6803681A430A60184A62
:100E40000832126803689A43154B08331A601A1D5A
:100E5000126803689A43124B0C331A604279102AC5
:100E60000ED11A1F126803681A430D4B08331A601B
:100E70001A1D126803681A43094B0C331A600DE0FF
:100E80000749427911440A6803681A430A6005E079
:100E9000027911440A6803689A430A6070470000A7
:100EA0000004014010B541480068B0F5806F26D0BD
:100EB00009DCA8B101284DD0B0F5807F11D0B0F584
:100EC000007F59D114E0B0F5006F28D0B0F5805FF5
:100ED0002ED0B0F5005F34D0B0F5804F4CD115E086
:100EE00062E000203149086031A000F0F5F85BE0D5
:100EF00001202E49086030A000F0EEF854E00020F8
:100F00002A4908602EA000F0E7F84DE000202749AC
:100F100008602DA000F0E0F801F0B0F844E00020F7
:100F2000224908602AA000F0D7F801F0A7F83BE0BA
:100F300000201E49086028A000F0CEF801F09EF8BD
:100F400032E000201949086025A000F0C5F801F042
:100F500095F829E000201549086023A000F0BCF8AE
:100F6000002002F065FB4FF4FA7002F05BF9FFF726
:100F70004FF90E49086017E04FF480700B49086084
:100F80000BA000F0A9F8002002F052FB4FF4FA7019
:100F900002F048F9012002F04BFB01F0F1FF01F0F3
:100FA00055FC01F0CFFF00BF00BF10BD00000020C6
:100FB00052454144590000005355434345535300A3
:100FC000554E4B4F574E00004C41524745000000D4
:100FD000464C4153480000004552524150500000D9
:100FE0004E4F41505000000041505052554E0000AD
:100FF00030B504460B464CB1B4F5805F23D0B4F550
:10100000584F21D0B4F5604F4ED130E0002104E0BC
:101010002D48405C03F8010B491C3E29F8DB891C74
:1010200002E0002003F8010B0846491CB0F5007FE0
:10103000F7DB02E0002003F8010B0846491CB0F57D
:10104000006FF7DB3BE000BF002104E01F48405C7D
:1010500003F8010B491C0429F8DB02E0002003F827
:10106000010B0846491CB0F5006FF7DB27E00021B3
:1010700004E01748405C03F8010B491C0B29F8DB1E
:10108000002104E01348405C03F8010B491C2F29A0
:10109000F8DB0B3102E0002003F8010B0846491C85
:1010A000B0F5006FF7DB0AE0002102E0002003F852
:1010B000010B0846491CB0F5006FF7DB00BF00BF0D
:1010C0004FF4006030BD00000A37000848370008C0
:1010D000FC0100204C37000870B505462846FFF794
:1010E00045F8C6B2002404E0285D09490855601C93
:1010F000C4B2082C01DAB442F6DB04E02020044933
:101100000855601CC4B2082CF8DB204670BD0000F6
:10111000FC01002070B504460D4616464CB1B4F5EE
:10112000805F07D0B4F5584F05D0B4F5604F0DD1AE
:1011300002E000BF00BF12E032462946204600F020
:1011400037F902F02DFA0849086008E0B4F5B03F1D
:1011500004D332462946204600F008F800BF00BFFD
:101160004FF4006070BD0000080200202DE9FE4F22
:101170000E4615468048D0F81CA000F116077F489F
:10118000007808BB7D480078C0437C4908707C48E3
:1011900000887C4908804FF480607B4908800846BD
:1011A00000884FF4804191FBF0F076490988081AD5
:1011B000764908807348008873490988484300F1DC
:1011C0000060401E72490860032272A16A4808301C
:1011D000FEF7D3FF00286DD1814680466B4800881A
:1011E0006949098848436449C96988425DD3002434
:1011F00049E065480088B4FBF0F100FB1140664906
:101200000988614A1288654B01FB023100EB010835
:101210001846804503D35E480068804504D94FF4E2
:1012200080505F49086030E05C48A8EB00005649F8
:101230000988B0FBF1F201FB120080B95648008822
:1012400051490988554A00FB012953480088401C30
:101250005149088000F036F9484600F0D3F800F014
:1012600031F949480088B4FBF0F100FB114000EB74
:10127000090B325D601C305C02EB002081B25846E5
:1012800000F000F9A41CAC42B3D300BF3868284476
:101290003860386850450CDB002038603E490880D3
:1012A0004FF400703E49086003E04FF480403C4931
:1012B00008605EE003223BA12F480830FEF75DFF87
:1012C000002846D1002440E0315D3748006801F035
:1012D000FBFF00F0FF08B8F1000F2ED1694632483D
:1012E000006802F041F938B32C490098884204D3D1
:1012F000274900980968884204D94FF4805028494A
:10130000086024E025490098401A1F490988B0FB6D
:10131000F1F201FB120020B900F0D4F8009800F0BF
:1013200071F800F0CFF89DF8089009EBD9735A10C6
:10133000DDE9000101F0F7F806E0B8F1020F03D192
:101340004FF4007016490860641CAC42BCD300BF67
:101350000FE0032215A108480830FEF70EFF20B960
:101360004FF480600E49086003E04FF480600C4940
:1013700008602846BDE8FE8F700B00200C0200209C
:10138000E0F7FF1F100200200E02002012020020D2
:101390001402002042494E001802002000400008BC
:1013A0000000002048455800080200205345430033
:1013B0002DE9F04180460D4616462C460227203482
:1013C000203400E02034E07A202804D038467F1C06
:1013D000B0F5007FF6D3B7F5007F09D8202221466B
:1013E0000748FEF79FFE00200549C882088303E0F6
:1013F00020210348FEF7AFFE3046BDE8F081000033
:10140000700B002030B5044604254FF4302000F066
:1014100065F80546042D17D10C48006940F002001C
:101420000A49086108464461006940F040000861CB
:101430004FF4302000F052F805460448006941F6A8
:10144000FD71084001490861284630BD0020024076
:1014500004200B49C96801F0010109B101200EE027
:101460000749C96801F0040109B1022007E00449F5
:10147000C96801F0100109B1032000E004207047A1
:101480000020024070B504460D460426F00300F02B
:1014900025F80646042E11D10948006940F00100E4
:1014A000074908612580F00300F018F80646044853
:1014B000006941F6FE71084001490861304670BD7F
:1014C00000200240024803494860034848607047D2
:1014D0002301674500200240AB89EFCD00B50246ED
:1014E0000423FFF7B5FF034603E0FFF7B1FF034610
:1014F000521E012B01D1002AF7D102B9052318464B
:1015000000BD2DE9F0410246002500260020002301
:101510000024002791F803C00CF00F0591F803C0D8
:101520000CF0100CBCF1000F03D091F802C04CEA93
:10153000050591F800C0BCF1000F31D014680020FF
:101540002BE04FF0010C0CFA00F3B1F800C00CEAEC
:1015500003069E4220D183004FF00F0C0CFA03F7D4
:10156000BC4305FA03FC4CEA040491F803C0BCF147
:10157000280F06D14FF0010C0CFA00FCC2F814C081
:101580000AE091F803C0BCF1480F05D14FF0010CFF
:101590000CFA00FCC2F810C0401C0828D1D314601B
:1015A000B1F800C0BCF1FF0F34DD546800202EE01C
:1015B00000F1080C4FF0010808FA0CF3B1F800C074
:1015C0000CEA03069E4221D183004FF00F0C0CFA67
:1015D00003F7BC4305FA03FC4CEA040491F803C08A
:1015E000BCF1280F05D100F1080C08FA0CF8C2F87C
:1015F000148091F803C0BCF1480F07D100F1080C2A
:101600004FF0010808FA0CF8C2F81080401C0828B6
:10161000CED35460BDE8F0810161704701460548B2
:10162000006880B200EBC100001D034A32F81000D0
:1016300080B27047505C00400060004001460648A0
:10164000006880B200EBC100801D044A32F810002F
:10165000C0F3090070470000505C0040006000408B
:1016600001460548006880B200EBC100034A32F829
:10167000100080B270470000505C004000600040E5
:10168000014629B90120034A1268108200207047E0
:101690000148FCE7340000203C01002010B50F4B4E
:1016A00018681B1D19681B1D1A68A8B10C4CA07086
:1016B000030A2371030CA371030E2372A1720B0A98
:1016C00023730B0CA3730B0E2374A274130A2375DC
:1016D000130CA375130E237610BD0000E8F7FF1F4F
:1016E000E400002010B519480068047A022C01D0EB
:1016F000042C05D1FFF774F914480068047A1EE041
:10170000062C1BD1114800684078052810D10F48DD
:101710000068007800F07F0050B901F08DFC0B49A3
:101720000968C87800F01AFF09490968086A804703
:101730000849096888688047082400E008240349AC
:1017400009680C7200F09EFB10BD00003400002000
:10175000400000203800002008B50121102000F0D2
:10176000E5FB4FF40050ADF8000010208DF80300A9
:1017700003208DF8020069460448FFF7C2FE4FF4CB
:1017800000510248FFF748FF08BD0000001001406B
:101790000120014908607047B4012242002001493C
:1017A00008607047B40122420146012059B94FF444
:1017B0004842054B1A60C202044B1A604FF0C862DF
:1017C000034B1A6000207047500000204C0000209E
:1017D000480000202DE9F04706460D4617461C46F6
:1017E0004FF001088EB9224639462846FFF700FC23
:1017F00048B9A14604EBD971C1F34F0204496818F6
:10180000394600F06BFE4FF000084046BDE8F08717
:10181000004000082DE9F04104460D4616461F46DB
:101820004FF0010834B93A4631462846FFF772FCBA
:101830004FF000084046BDE8F081000070B5054655
:10184000002414480068007800F07F00212810D19F
:10185000FE2D0ED10F480068408850B90D48006831
:10186000808830B90B480068C088012801D10A4C33
:1018700001E0022070BD0CB90220FBE705480068BA
:10188000846100210348006841820020A0470020B5
:10189000F0E70000340000208116000810B504466F
:1018A0000249204601F0F8F810BD0000A001002018
:1018B00010B504460249204601F0EEF810BD0000C4
:1018C0009801002070B5054606480068C478052CCC
:1018D00001DD002070BD044800EBC401284601F082
:1018E000DBF8F7E734000020A801002002460029B9
:1018F00001DD02207047002A01DD0220FAE7002006
:10190000F8E7000010B5044611480068007800F0C0
:101910007F0021281AD1FF2C18D10D48006840887B
:10192000A0B90B480068808880B909480068C08861
:1019300060B90120FFF72AF80220FFF70DF80548EB
:101940000549086000200549087010BD0220FCE729
:10195000340000205553424340030020D8000020AB
:1019600010B50020324988723248C079324909687E
:101970004872002000F0EAFD4FF40071002000F0F2
:10198000B7FE2021002000F097FE1821002000F073
:101990000BFE2A4890F82C10002000F017FE58216A
:1019A000002000F06BFE0020FFF70AF8002000F096
:1019B0004FFE0021012000F09BFE9821012000F045
:1019C0005DFE2021012000F077FE0021012000F0C3
:1019D00023FE0021022000F08BFED821022000F01F
:1019E000E3FD164890F82C10022000F0EFFD4FF4B4
:1019F0004051022000F010FE0021022000F05CFEA9
:101A00000E4890F82C10002000F0E0FD002000F0BF
:101A10001FFE002000F0A2FD0120094908600948CE
:101A20000949086000200949087001F003FB10BD56
:101A3000E40200209A36000834000020440100200F
:101A4000D00100205553424340030020D80000201D
:101A50007047704710B5FFF721FE00200A4909685A
:101A6000887200F033FA0020084908604FF40440FF
:101A700007490880084600880449091F08600020BB
:101A80000449086010BD000034000020445C0040A0
:101A90003E000020D001002010B504480068044931
:101AA000884202D00220FEF7D7FB10BD4003002081
:101AB0005553424310B51E48007840F010001C49B1
:101AC00008701C480078022810D0032823D004286E
:101AD00002D0052829D100E000BF00201549087078
:101AE0004FF44051022000F097FD1FE01248C07BE8
:101AF00028280ED10E48007840F002000C490870EA
:101B00000D49487B0D490A680D49096800F084FBBE
:101B100000BF00BF0AE00121002000F06FFE4FF47B
:101B20004051022000F078FD00E000BF00BF10BD72
:101B3000E9010020D800002040030020E000002040
:101B4000DC00002010B52548007840F01000234943
:101B500008702348C47B0220FFF770FD21490880EC
:101B600008460288D821204800F078F91F480078FC
:101B700010B1012822D102E0FEF794FB2CE02A2CC0
:101B80000ED11648007840F001001449087014493D
:101B9000487B17490A681749096800F063FC1BE095
:101BA0000120FEF759FB0E49487B2422052100F055
:101BB00047FE0021022000F021FE0DE00220FEF78A
:101BC0004BFB0749487B2422052100F039FE002108
:101BD000022000F013FE00BF00BF10BDE90100208D
:101BE00040030020DA00002000030020D80000207D
:101BF000E0000020DC00002010B508480068807A72
:101C000058B10520064908600120FEF7BFFE0220FA
:101C1000FEF7A2FE00200349087010BD340000202A
:101C2000D0010020D800002004200149086070473E
:101C3000D0010020704710B54FF4A06000F03AF8D2
:101C400010BD000070B5002100230F22C47804B33A
:101C5000154C246804F4E064C4F5E064210AC1F181
:101C60000403CA40447804FA03F184781440214301
:101C700009010E4C0678A155047804F01F050124D3
:101C8000AC4005786D11AD0005F1E025C5F80041C7
:101C900009E0047804F01F050124AC40044D0678E7
:101CA000761145F8264070BD0CED00E000E400E040
:101CB00080E100E002490143024A116070470000E0
:101CC0000000FA050CED00E070B502264A480068F5
:101CD000447849480068007800F07F0000284AD125
:101CE000092C03D100F078FF064665E0052C14D1DD
:101CF00041480068C0787F280BDC3F480068807846
:101D000038B93D480068808818B93B480068807A37
:101D100008B108256BE000264EE0032C14D13648AC
:101D20000068C07801280DD133480068808848B920
:101D300031480068407A00F0200018B100F070FFD0
:101D4000064639E0022637E0012C35D12A480068E2
:101D5000C07801280DD128480068808848B92648F5
:101D60000068407A00F0200018B100F0D1FD06466E
:101D700022E0022620E020480068007800F07F0082
:101D8000012805D10B2C17D100F0BEFF064613E049
:101D900019480068007800F07F0002280BD1012C60
:101DA00003D100F0B5FD064606E0032C04D100F097
:101DB0004BFF064600E002264EB1E0B20F4A126821
:101DC000516988470646032E01D109250FE00EB15F
:101DD00008250CE0062500210948006880B2801C17
:101DE000084A42F8101030200749088000BF024915
:101DF00009680D7270BD000034000020380000201A
:101E0000505C0040006000404600002010B51148C2
:101E10000068047A032C01D0052C05D1FEF740FEA2
:101E20000C480068047A0EE0072C05D10A490968BD
:101E3000C8688047082406E0022C01D0042C01D198
:101E4000082400E00824034909680C7200F01AF81D
:101E500010BD00003400002038000020F0B5561CF2
:101E60007510074E06EB41042B4605E034F8047B61
:101E700020F8017B401C5B1E002BF7D1F0BD000059
:101E80000060004010B50D4890F82C10002000F0C4
:101E90009DFB0B480068007A082805D140020949DB
:101EA000088010200849088005480068007A092841
:101EB00001D1012010BD0020FCE7000044010020FA
:101EC00034000020440000204600002010B501200E
:101ED00001F028F801240B48046000200A4908801A
:101EE00008460088074908600020091D08604FF473
:101EF000E050054908800846008802490860002033
:101F000010BD0000405C00403E00002029B1064AA0
:101F1000D2690243044BDA6104E0034AD269824386
:101F2000014BDA61704700000010024029B1064AF7
:101F300092690243044B9A6104E0034A9269824326
:101F4000014B9A617047000000100240014908608F
:101F500070470000D80042422DE9F04104460D468A
:101F600016463C48007870B93B4850F82400684356
:101F70003A490860384850F82400704338490860EE
:101F80000120344908703348007801284ED1354883
:101F9000006800BB304830F8240083B2324A2F4832
:101FA00001682046FFF716FCC7B22FB12F48007812
:101FB00040F008002D490870402298212A4801F07D
:101FC00041F8254850F82400403826490860402050
:101FD0002749086011E02449254A126888184022E0
:101FE000982101F02FF81F48006840381D4908600B
:101FF0001F48006840301E4908604021012000F061
:102000004DFB3021012000F057FB144800684030A0
:1020100012490860124800684038114908601548A4
:102020008068403813498860FFF7B8FB0C480068A7
:1020300070B900200B4908600D4908600749086025
:1020400003200D490870002002490870FFF7A0FB2B
:10205000BDE8F081E80100204C000020EC010020E8
:10206000F0010020D801002070030020E9010020C9
:10207000DC01002060030020D800002010B54FF4E0
:10208000FA7001F0CFF8002001F0D2FA4FF4FA70A4
:1020900001F0C8F8012001F0CBFA00F071FF00F068
:1020A000D5FB00F04FFF10BD2DE9F04104460D4671
:1020B00017461E46B8191C4951F82410884213D9F6
:1020C0002A2D02D10220FEF7C7F80020FEF7C4F83F
:1020D00021220521204600F0B3FB0021012000F061
:1020E0008DFB0020BDE8F08110488168104850F851
:1020F00024007043814214D02A2D03D10220FEF720
:10210000ABF802E00020FEF7A7F80849487B24223C
:10211000052100F095FB0021012000F06FFB00205D
:10212000E0E70120DEE7000050000020400300202F
:102130004C00002010B504462046FFF735FB68B17F
:102140000749487B3A22022100F07AFB0121084628
:1021500000F054FB0020FEF77FF810BD00BFFCE745
:102160004003002070B506460C48007C00F00100DA
:1021700010B10B4C05250BE00EB90A4C00E00A4CDF
:102180000648C07C242802DC0448C57C00E02425E5
:102190002946204600F032FE70BD000040030020BA
:1021A000580000205D0000208100002010B504468A
:1021B0000E48806818B90020FEF74EF80BE00B4877
:1021C000007B00F0800018B10020FEF745F802E027
:1021D0000220FEF741F80549487B2022052100F046
:1021E0002FFB0021012000F009FB10BD400300205F
:1021F00010B504460821024800F000FE10BD0000A2
:10220000A900002010B504460421024800F0F6FDA4
:1022100010BD0000A500002070B506460C4615460E
:102220001948007820BB1949487B2B4622462821B3
:10223000FFF73AFF00B970BD1448007B00F0800042
:1022400040B10220104908702A4621463046FFF767
:1022500083FE0CE00220FDF7FFFF0C49487B24229F
:10226000052100F0EDFA0121084600F0C7FAE2E787
:1022700005480078022804D12A4621463046FFF757
:102280006BFE00BFD7E70000D8000020400300200D
:1022900010B504462046FFF787FA68B11F49487B0E
:1022A0003A22022100F0CCFA0121084600F0A6FAF9
:1022B0000020FDF7D1FF10BD194850F82400401E42
:1022C000000E18490870164850F82400401E000CF3
:1022D0004870134830F82400401E000A88701048E7
:1022E00010F82400401EC8700F4850F82400000E5B
:1022F00008710D4850F82400000C48710A4830F865
:102300002400000A8871084810F82400C8710821C8
:10231000044800F073FD00BFCDE70000400300203B
:1023200050000020C30000204C00002010B50446DF
:102330002046FFF739FA68B11A49487B3A22022150
:1023400000F07EFA0121084600F058FA0020FDF75F
:1023500083FF10BD144850F82400000E1349087183
:10236000114850F82400000C48710F4830F8240040
:10237000000A88710C4810F82400C8710C4850F805
:102380002400000C48720A4830F82400000A8872C1
:10239000074810F82400C8720C21044800F02EFDF4
:1023A00000BFD6E74003002050000020CB000020F3
:1023B0004C00002070B505460648C07C122802DC9F
:1023C0000448C47C00E012242146034800F016FDB6
:1023D00070BD000040030020B100002010B504468D
:1023E0000121002000F00AFA10BD000010B50446DB
:1023F0002046FFF7D9F968B10949487B3A22022102
:1024000000F01EFA0121084600F0F8F90020FDF75F
:1024100023FF10BD0121002000F0F0F900BFF8E714
:102420004003002010B504460D48806848B90C48A8
:10243000007C00F0040020B90121002000F0DEF94A
:102440000CE00220FDF708FF0549487B2422052106
:1024500000F0F6F90021012000F0D0F910BD0000D5
:102460004003002070B506460C4615461948007812
:1024700020BB1949487B2B4622462A21FFF714FE30
:1024800000B970BD1448007B00F0800040B9012005
:10249000104908704FF44051022000F0BDF80CE0E4
:1024A0000020FDF7D9FE0C49487B2422052100F0CD
:1024B000C7F90021012000F0A1F9E2E70548007802
:1024C000012804D12A462146304600F0D7FD00BF3E
:1024D000D7E70000D80000204003002070B5034675
:1024E0000C4615460D4EB34209D3002204E00020ED
:1024F00024F81200501C82B2AA42F8DB70BD002200
:1025000007E0184600F00CF824F812009B1C501C41
:1025100082B2AA42F5DB00BFF0E7000000A0070886
:102520000146088870472DE9F04105460E461746DA
:10253000002407E036F814102846FEF7A3FFAD1C70
:10254000601C84B2BC42F5DBBDE8F0814FF6F87147
:102550000140014A11607047505C004030B50146AF
:102560000E4B1A78002011E003060D4C04EB935338
:10257000D3F8003C48F68F742340C4B223430406CA
:10258000074D05EB9454C4F8003C401C9042EBD33B
:1025900041F08003034C236030BD00004001002067
:1025A000005000404C5C004010B54A105300054AF2
:1025B000126892B202EBC002121D034C44F81230B2
:1025C00010BD0000505C00400060004010B50246A5
:1025D0000F48006880B200EBC200801D0D4C04EB78
:1025E00040033E290BDD481101F01F040CB9441EC5
:1025F000A0B24FF4004444EA80241C6007E0481075
:1026000001F001040CB1441CA0B284021C6010BD96
:10261000505C00400060004010B50C4C04EB80039F
:10262000D3F8003C4BF68F7403EA040201F48053A4
:102630000BB182F4805201F400530BB182F40052CA
:10264000024C04EB8003C3F8002C10BD0050004086
:10265000094B03EB8002D2F8002C4BF68F7302EA91
:10266000030181F4805181F40051034B03EB80029C
:10267000C2F8001C704700000050004010B54A101E
:102680005200044B1B689BB203EBC003024C44F89E
:10269000132010BD505C004000600040044A1268E6
:1026A00092B202EBC002921C024B43F81210704728
:1026B000505C00400060004010B50C4C04EB8003FF
:1026C000D3F8003C48F6BF7403EA040201F010039B
:1026D0000BB182F0100201F020030BB182F0200256
:1026E000024C04EB8003C3F8002C10BD00500040E6
:1026F00010B5074B03EB8002D2F8002C48F68F137D
:102700001A400A43024C04EB8003C3F8002C10BDAE
:102710000050004010B500F001F810BD0CB50020CD
:10272000019000903348006840F4803031490860DF
:1027300000BF3048006800F4003000900198401C51
:102740000190009818B90198B0F5A06FF1D129480F
:10275000006800F4003010B10120009001E000207A
:1027600000900098012843D12348006840F01000F1
:10277000214908600846006820F003000860084608
:10278000006840F0020008601A4840681949486033
:102790000846406848600846406840F480604860E9
:1027A0000846406820F47C1048600846406840F4C1
:1027B000E81048600846006840F08070086000BF7C
:1027C0000C48006800F000700028F9D00948406803
:1027D00020F00300074948600846406840F00200C6
:1027E000486000BF0348406800F00C000828F9D199
:1027F0000CBD0000001002400020024070B50546EC
:102800000C460C480C490860084605730D229821B7
:1028100000F018FC0D210120FFF740FF05200749BB
:1028200008702CB10420087030210120FFF744FF0C
:1028300070BD00005553425360030020D8000020B3
:10284000014B99701A737047B100002010B5002039
:10285000FFF77CFB0121C805FFF758FB10BD000006
:1028600008B52848006880B2001D274931F81000DB
:1028700080B201EB4000009024480068007A0928EB
:102880002FD0009800782149096808700098401CF2
:102890000090009800781D49096848700098401C15
:1028A00000900098801C0090009931F8020B009174
:1028B000FDF7F2FC1549096848800098801C0090DB
:1028C000009931F8020B0091FDF7E6FC0F49096809
:1028D00088800098801C0090009800880B49096847
:1028E000C880012009490968087208480068C08842
:1028F00010B9FFF7E9F901E0FEF730F9FFF7C2FA86
:1029000008BD0000505C0040006000403400002022
:102910002DE9F04750480068007800F07F08B8F1D2
:10292000000F0AD14C480068407A00F0DF004A49A5
:10293000096848720020BDE8F087B8F1020F7DD128
:1029400045480068408818B943480068007908B1D4
:102950000220F0E7DFF804913F480068477927F04C
:1029600080052C463C480068407900F0800038B172
:102970003B4901EB8400D0F8000C00F0300606E083
:10298000374901EB8400D0F8000C00F4405699F868
:102990000000A84204D91EB12F480068807A08B907
:1029A0000220C8E707F0800080B12D4901EB8400C8
:1029B000D0F8000C00F03000102843D1E0B2FDF751
:1029C000E5FFE0B23021FFF777FE3BE0244901EB61
:1029D0008400D0F8000C00F44050B0F5805F31D195
:1029E000C4B9204A92F82C10E0B2FFF7EFFD1C4A60
:1029F00002EB8401D1F8001C4BF68F7201EA020051
:102A000080F4805080F40050154A02EB8401C1F834
:102A1000000C17E0E0B2FDF79FFF114A02EB8401C2
:102A2000D1F8001C4BF68F7201EA020080F480504E
:102A300080F400500A4A02EB840100E008E0C1F88B
:102A4000000C00BF0849096848698047002072E708
:102A500000BF02206FE7000034000020400100208A
:102A600000500040440100204000002010B5044602
:102A70002CB90120064909680882002010BD0549CB
:102A8000096808688047024800680A30F6E70000D5
:102A9000340000204000002010B5024606480068BF
:102AA000438A32B98888C01A034C246820820020E7
:102AB00010BD08681844FBE73400002010B5044638
:102AC0002CB90120064909680882002010BD05497B
:102AD000096888688047024800680C30F6E7000003
:102AE000340000204000002010B504462CB902201C
:102AF000354909680882002010BD0020334908804C
:102B000031480068007800F07F00E0B92E4909687C
:102B1000487A00F0200129B12C49097841F00201DE
:102B20002A4A117000F0400131B12849097801F0BA
:102B3000FE01264A117005E02449097841F001019F
:102B4000224A11703AE020480068007800F07F00C7
:102B5000012801D11D48CFE71B480068007800F02C
:102B60007F00022828D1184A1268517901F00F001D
:102B700001F080027AB1164B03EB8002D2F8002CF0
:102B800002F03002102A16D1104A127842F00102E7
:102B90000E4B1A700FE00E4B03EB8002D2F8002CA4
:102BA00002F44052B2F5805F05D1084A127842F033
:102BB0000102064B1A7001E000209DE705490968F3
:102BC00008698047014897E7340000202A00002068
:102BD000005000404000002010B50E480068C0784A
:102BE0000D494978884213DC0A480068807878B932
:102BF00008480068808858B906480068C0780549C8
:102C0000096888720549096848688047002010BD36
:102C10000220FCE73400002040010020400000209A
:102C200010B507480068407A40F020000449096860
:102C3000487204490968C8698047002010BD000037
:102C400034000020400000202DE9F0412A480068AF
:102C5000467926F080073C4627480068407900F016
:102C6000800038B1254901EB8400D0F8000C00F059
:102C7000300506E0214901EB8400D0F8000C00F497
:102C800040551F480078A04208D91B48006840887A
:102C900020B91DB118480068807A10B90220BDE83B
:102CA000F08106F0800080B1144A02EB8401D1F873
:102CB000001C48F6BF7201EA020080F010000F4AC3
:102CC00002EB8401C1F8000C10E00C4A02EB840115
:102CD000D1F8001C4BF68F7201EA020080F480509C
:102CE000064A02EB8401C1F8000C00BF05490968DF
:102CF000886980470020D2E734000020005000405F
:102D0000400100204000002010B5174B1B68D97807
:102D1000154B1B685879154B1B689A6990470446F8
:102D200011480068807AE8B13CB90F480068007922
:102D300018B90D480068807808B1022010BD8CB920
:102D40000B490968C8688047074800684079064908
:102D50000968C87204480068C078034909680873A4
:102D60000020EBE70220E9E73400002038000020D3
:102D700040000020042808D14FF0E021096941F00B
:102D800004014FF0E022116107E04FF0E0210969F2
:102D900021F004014FF0E0221161704710B5134893
:102DA000006840F001001149086008464068104979
:102DB00008400E494860084600680E4908400B4923
:102DC00008600846006820F48020086008464068D3
:102DD00020F4FE0048604FF41F008860FFF79AFC63
:102DE0004FF000600449086010BD00000010024070
:102DF0000000FFF8FFFFF6FE08ED00E070B50546A5
:102E00000C4622469821284600F01CF92146012054
:102E1000FFF744FC30210120FFF74EFC0320054959
:102E2000087005488068001B03498860002008730B
:102E300070BD0000D80000206003002010B540F2F3
:102E400025511D4800F03EF810B31B4800F064F80F
:102E5000C4B21A48008800F40040C8B91748008876
:102E600000F4804060B10A2C03D000201349088090
:102E700020E01248008840F400401049088019E022
:102E80000D2C06D10D48008840F480400B49088085
:102E900010E00A480088C0F30D0009490C540748A7
:102EA0000088401C0549088008460088C72801DDC5
:102EB0000020088010BD00000038014024000020E0
:102EC0001C02002070B502460024002300250020CB
:102ED00040F66A16B14200D100BFC1F3421501F0BD
:102EE0001F03012606FA03F3012D02D19689334010
:102EF00006E0022D02D1168A334001E0968A334063
:102F00000C12012606FA04F41688344013B10CB1F1
:102F1000012000E0002070BD01468888C0F3080051
:102F20007047704718B10121034A116002E0002187
:102F3000014A116070470000B401224210B5FDF74C
:102F400013FB10BD10B50848084908600220096845
:102F5000087207480749086007480849086005499A
:102F600009680868804710BDE40200203400002092
:102F7000440100203800002074010020400000209F
:102F80000EB54FF4A060FEF795FE4FF48020FDF7DC
:102F900039FF4FF48020009008208DF805000120B3
:102FA0008DF806006846FDF733FF14208DF8080001
:102FB00001208DF8090000208DF80A0001208DF80D
:102FC0000B0002A8FEF73EFE2A208DF80800002024
:102FD0008DF8090002A8FEF735FE0EBD10B50F48AA
:102FE00000680F4908800846008800F480600D4999
:102FF0000988084030B14FF6FF30084908600A4997
:10300000486880470648008800F400400549098860
:10301000084008B1FDF70CFB10BD0000445C004007
:10302000000100203E0000204401002010B5FFF701
:10303000D5FF10BD704700000120014908607047AE
:1030400004000020F0B5144604F1010C4FEA6C07AF
:10305000DFF824C00CEB41033D460AE00678401C33
:1030600090F800C046EA0C2223F8022B9B1C401C5F
:103070006D1E002DF2D1F0BD006000402DE9F04141
:1030800004460D4616464248006800F14008414893
:10309000007870B9404850F8240068433F49086000
:1030A0003D4850F8240070433D49086001203949EB
:1030B000087038480078012856D100203949086046
:1030C00010E0384801680068401C364A10603648F5
:1030D000415C36482E4A126881542D480068401CD5
:1030E0002B4908602A4800684045EAD32B4800680D
:1030F0002F490988084429490860294800682C4953
:103100000988401A26490860234850F824000968B5
:10311000B1FBF0F200FB1210C0B900201C4908609E
:103120001D4830F8240083B21B4850F824001B4A85
:103130001268111A1D4A2046FEF76CFBC7B22FB168
:103140001C48007840F004001A4908701A4880684A
:1031500017490988401A184988604FF440510220E5
:10316000FFF75AFAFEF71AFB0D48006818B113482A
:10317000007804280AD10020054908600121FFF7E2
:103180003DFB002003490870FEF702FBBDE8F0811B
:10319000E0010020E80100204C000020F4010020A4
:1031A000F8010020E401002000030020700300204B
:1031B000DA000020E901002060030020D800002090
:1031C00002E008C8121F08C1002AFAD170477047F0
:1031D000002001E001C1121F002AFBD1704700004E
:1031E00010B56FF00400FFF7C5FD0A4800680A49F2
:1031F000B0FBF1F0094908700846007800EB400187
:10320000C1EBC0104FF6FF7101EAC000044908800D
:1032100010BD00000C00002000127A0026000020E3
:10322000280000200146114A12884A434FF0E0234B
:103230005A6100229A611A46126942F001021A612B
:1032400000BF4FF0E022106900F001021AB100F453
:103250008032002AF5D04FF0E022126922F00102FC
:103260004FF0E0231A6100229A6170472800002085
:1032700070B503460C460021104602EBD0756D1068
:10328000A2EB45050DB1002070BD00210FE0480004
:10329000401C185C30380B4D2D5C13F81100303891
:1032A000084E305C45EA00106054481CC1B202EB85
:1032B000D275B1EB650FEADB154602EBD570C0F3B2
:1032C0004700E1E77B3700082DE9F04104460D4651
:1032D000012714B9B81EBDE8F08194F865000928EB
:1032E0000FD2DFE800F0050F4C77AAD60E0EFC00D7
:1032F0003A2D06D1012064346070A571022004F8D3
:1033000064092BE194F86400C0F10200255494F89C
:103310006400401EC0B284F8640048BB6078303856
:103320009049095C207830388E4A105C41EA0010E0
:1033300084F86B0094F86B0080B9302020706070C6
:10334000A070E0702071312060714620A071E071A2
:10335000082084F8650084F864000FE094F86B009E
:10336000322806DC042084F86400022084F865001A
:1033700004E0204600F018F94FF0FF37EEE094F833
:103380006400C0F10400255494F86400401EC0B2EB
:1033900084F86400E8B9607830387249095C2078B4
:1033A0003038704A105C41EA001084F86C00E07814
:1033B00030381146095CA0783038105C41EA0010C2
:1033C000C1B26D200155032084F86500022084F805
:1033D0006400C3E094F86400C0F10200255494F83E
:1033E0006400401EC0B284F8640028BB60783038A6
:1033F0005C49095C207830385A4A105C41EA001078
:1034000084F8700094F8700020B1042803D00528D7
:103410000BD101E000BF00BF042064346070E0798C
:103420004006000E04F8640905E0204600F0BCF8F0
:103430004FF0FF3700BF00BF90E094F8641094F89D
:103440006B00C1EB4000255494F86400401EC0B2EC
:1034500084F86400E0B994F86B004006020E04F1B1
:1034600071012046FFF704FF94F87000042808D18A
:1034700094F86B2004F1710104F16600FCF752FE30
:1034800000E000BF052084F86500022084F8640095
:1034900064E094F86400C0F10200255494F86400DC
:1034A000401EC0B284F86400B0BB0026607830389B
:1034B0002C49095C207830382A4A105C41EA001017
:1034C00084F8D50094F86B003044C6B294F86C00D0
:1034D0003044C6B26D20005D3044C6B200E023E047
:1034E00094F870003044C6B2002000BF06E004F13A
:1034F0007101095C3144CEB2411CC8B294F86B1022
:103500008142F4DC94F8D5003044C6B22EB90020D4
:1035100084F86500002705E005E0204600F044F847
:103520004FF0FF3700BF19E094F86400C0F10800C5
:10353000C6B2A05DA8420BD194F86400401EC0B290
:1035400084F8640048B9204600F02EF8022704E011
:10355000204600F029F84FF0FF3700BF00BF384683
:10356000B9E600007B37000802460B4692F870006F
:1035700008B1002070476D20805C187092F86C00D4
:1035800058706720805C987092F86600D87002F1DD
:103590007100486092F86B000872087AEAE7000050
:1035A00000487047900B002010B50446D6212046F5
:1035B000FCF7D1FD10BD0000FFF712FEFEF7CCF8BE
:1035C000FEF739FB4FF4FA70FFF72CFE002000F0F5
:1035D0002FF84FF49670FFF725FE012000F028F831
:1035E000FFF7CEFCFFF732F9FFF7ACFC18E06420E0
:1035F000FFF718FE0B48006800280FDD0A48006836
:103600000A280BD107480068401E064908600028B8
:1036100004DC00200860012004490860FDF742FC3A
:10362000E5E7000008000020040000200000002062
:1036300070B5054601210420FEF778FC3DB10F4826
:10364000006880B220F002040C48046014E00B48CB
:10365000006880B240F0020408480460084800682E
:1036600020F47F20064908600846006840F44C308A
:10367000086000200349086070BD0000405C004005
:1036800004080140B0012142120100020000004084
:1036900084042257000201020301090220000101F3
:1036A00000C0FA0904000002080650040705810260
:1036B000400000070502024000000403090416034D
:1036C00049006F0054002D00530074007500640021
:1036D00069006F00260355005300420020004D0092
:1036E0005300440042006F006F00740020004C0043
:1036F0006F00610064006500720010035300540005
:1037000020004D00610073007300EB3C904D53446A
:103710004F53352E3000080402000200020000F86A
:103720000D003F00FF000000000000C80000800006
:1037300029BDA5DD024E4F204E414D4520202020C1
:103740004641543136202020F8FFFFFF20004B9CDB
:10375000429238923800009D4292380000000000EA
:1037600000424F4F544C4F41444552200800000046
:10377000000000000000009D429238000102030496
:1037800005060708093A3B3C3D3E3F400A0B0C0D3D
:103790000E0F0000B4370008000000201C020000DB
:1037A000B80100088C3800081C0200204C0E0000F4
:1037B000D031000841320A421E84A24A0400093E68
:1037C000010203040607080935800202202D535424
:1037D0004D2001180E534420466C617368204469E3
:1037E000736B10ED312E302024BC4E414E2629241F
:1037F00042036206627029B40112420802100214E8
:103800001A03531254124D123312321A20020110AD
:1038100013F50D0C1808351C040A15FD204123036F
:103820000113551A140861191B0851081A5304137F
:103830003D181B0805101AED081AB1041A9D041A48
:10384000C504413240293CCBF91B4C1A9938690C0C
:103850001A29041388363308121A9A0829B21ABA98
:103860000832041ABE0832161AD408322622E4336B
:10387000201A1AFA10721019930125000C155245DE
:0C388000414459202020545854000000FE
:04000005080000ED02
:00000001FF
