:020000040800F2
:100000005810002001010008090100080B01000838
:100010000D0100080F010008110100080000000098
:1000200000000000000000000000000013010008B4
:100030001501000800000000170100081901000860
:100040001B0100081B0100081B0100081B01000820
:100050001B0100081B0100081B0100081B01000810
:100060001B0100081B0100081B0100081B01000800
:100070001B0100081B0100081B0100081B010008F0
:100080001B0100081B0100081B0100086123000878
:10009000292400081B0100081B0100081B0100089F
:1000A0001B0100081B0100081B0100081B010008C0
:1000B0001B0100081B0100081B0100081B010008B0
:1000C0001B0100081B0100081B0100081B010008A0
:1000D0001B010008A52200081B0100081B010008E5
:1000E0001B0100081B0100084F230008DFF80CD09B
:1000F00000F050F80048004765280008581000201C
:100100000648804706480047FEE7FEE7FEE7FEE7B1
:10011000FEE7FEE7FEE7FEE7FEE7FEE71D2200083A
:10012000ED00000840EA01039B0703D009E008C97D
:10013000121F08C0042AFAD203E011F8013B00F8AC
:10014000013B521EF9D27047D2B201E000F8012BF8
:10015000491EFBD270470022F6E710B513460A4647
:1001600004461946FFF7F0FF204610BD421C10F868
:10017000011B0029FBD1801A704730B504460020CE
:10018000034600E05B1C934203D2E05CCD5C401B65
:10019000F8D030BD064C074D06E0E06840F00103A2
:1001A00094E8070098471034AC42F6D3FFF7A2FF5B
:1001B000202A0008402A000870B58C1810F8015B4E
:1001C00015F0070301D110F8013B2A1106D110F8F0
:1001D000012B03E010F8016B01F8016B5B1EF9D1F4
:1001E0002B0705D40023521E0DD401F8013BFAE77A
:1001F00010F8013BCB1A921C03E013F8015B01F8E5
:10020000015B521EF9D5A142D8D3002070BD000079
:100210000B4910B50868401C02D14868401C0BD03F
:100220000A684FF48050B2F1005F04D34968CA07EE
:1002300001D08847002010BD4FF4005010BD0000D1
:100240000050000810B578B14FF48054012805D053
:1002500002280FD11021012001F06EFD2146BDE8DA
:100260001040022001F024BD1021BDE81040012003
:1002700001F062BD10BDC1B2000A40EA0120704722
:1002800070B5614B614C00205988A4F1400202E036
:10029000155C2554401C0D468842F9D35B486268C2
:1002A00020301F2D4260A268826007D00220FFF735
:1002B000C9FF00202060607B1A2221E0E17B282911
:1002C00001D02A290AD1D4F81100227D00BA20F0E9
:1002D000FF0010435860E08A40BA98604C4A20689A
:1002E000904252D14B4A607B1268904203D8A27B65
:1002F0000AB1102A0DD90220FFF7A4FF607B242247
:10030000052101F0B5FDBDE870400021012001F09C
:100310008BBD252958D01ADC152971D00DDC082990
:100320006ED005DCB9B3032936D004292DD163E0A2
:100330000A2965D0122928D132E01A390A2924D293
:10034000DFE801F03632235E32232323233E8A295D
:1003500056D00EDC552953D006DC28293CD02A295A
:1003600040D02F2911D143E05A2925D088290CD11A
:1003700046E0A82944D004DC8F2941D09E2904D12D
:100380003EE0AA293CD0AF293AD00220FFF75AFF1D
:10039000607B2022B4E71BE0BDE8704001F086BB23
:1003A000BDE8704001F0A0BABDE8704001F08ABB22
:1003B000BDE8704001F0D2BABDE8704001F0C8BAA3
:1003C000BDE8704001F03CBBBDE8704001F000BBEF
:1003D000BDE8704001F07ABBD3E90112BDE870407E
:1003E00001F0C2BAD3E90112BDE8704001F0A4BB2C
:1003F000BDE8704001F086BBBDE8704001F05CBA1A
:10040000BDE8704001F08ABACC0000203003002023
:1004100055534243300100202DE9F041184E194F49
:10042000194C1A4D26E000BF47F6FF70206028885F
:1004300000F00F0107EB81003170D0F8002C92B270
:10044000130408D5D0F8002C40F68F731A40C0F87A
:10045000002C0F4809E012060CD5D0F8002C48F605
:100460000F731A40C0F8002C0A4800EB810050F8C6
:10047000040C8047206828800004D5D4BDE8F081B2
:100480002A00002000500040445C00402C01002065
:1004900010010020F40000202DE9F84FDFF834B1FE
:1004A0004BF68F7648F6BF774A4C4B4D40F68F7926
:1004B00048F60F780BF1440BDFF820A132E000BFC3
:1004C00047F6FF7010600888454A10F00F00107062
:1004D00032D0444901EB8001D1F8002C92B2009255
:1004E00012040BD5D1F8002C02EA0902C1F8002C45
:1004F0003D4901EB800050F8040C8047009800064D
:1005000010D537483749007801EB8001D1F8002C2D
:1005100002EA0802C1F8002C344901EB800050F8CF
:10052000040C8047DBF800005A465146AAF8000048
:100530000004C5D4BDE8F88F2068C0F30130000383
:1005400028802068C0F301100001688020683040D6
:1005500080F4005020602068384080F02000206047
:100560000888C00603D5206880B2010616D5206829
:1005700000EA0800206000F079FD20E0890401D540
:1005800080F400502060206869883840CA061ED474
:10059000890601D580F020002060CBE7010506D553
:1005A000206800EA0900206001F072FC07E0000406
:1005B000B8D5206800EA0900206001F03DF8206805
:1005C00029883040CA04D9D580F48050D6E780F01D
:1005D0001000DDE7005C00403A0000202C01002004
:1005E0002A0000200050004010010020F4000020EC
:1005F000810008480844D0F8001C490408D5D0F808
:10060000001C48F68F72114041F48041C0F8001C74
:100610007047000000500040810008480844D0F8AE
:10062000001C490608D5D0F8001C48F68F7211400E
:1006300041F04001C0F8001C70470000005000402D
:10064000810005480844D0F8001C48F68F6211402C
:10065000C0F8001C70470000005000402DE9F04732
:10066000DFF89480254F4FF03009D8F8001001F1E1
:100670001005088A0E7A08B9042E04D0AC88A0426E
:1006800015D8042614E01E480178012903D0072656
:10069000102038802BE01B4A002112681A4B1204EC
:1006A00003EBD2325160A7F8009001701FE00226E0
:1006B000844200D90446A968204688478246002023
:1006C00000F094FC01462246504601F0B7FE214658
:1006D000002001F023FB28880C49001B2880688833
:1006E00020446880A7F800904FF440500880D8F864
:1006F00000000672BDE8F0872C0000203C000020BE
:1007000026000020505C0040006000403A000020BD
:100710002DE9F047224EDFF88C803027356835F818
:10072000100FA968A9B100B3AC88844200D904466F
:100730002046884781462888001B288068882044F6
:100740006880002000F032FC01462246484600F056
:1007500093FF288848B114494FF440500880002185
:10076000084601F0DBFAA8F800702888A9888842BA
:1007700001D3032001E020B1052031680872BDE8F3
:10078000F087316806200872084900200968084A85
:10079000090402EBD1314860A8F80070EFE70000CF
:1007A0002C0000203C0000203A000020505C00405B
:1007B00000600040F8B55D4C5D4D092620680027BB
:1007C00029684278062A05D0AAB1082A4DD00A2AFB
:1007D00050D06BE00278520668D18078012804D0AE
:1007E000022804D0032804D060E0C96956E0096AF1
:1007F00054E0496A52E04288B2BBC288022A55D10D
:1008000002798ABB0278530601D1838833B102F0A2
:100810007F02012A04D0022A0CD047E045493DE07E
:100820008A69407900219047F0B92068807A0028D1
:10083000F4D13BE0417901F00F0001F070020B06AA
:100840003D4901EB8001D1F8001C03D5C1F3011132
:10085000090102E0C1F301310903384B1B788342DF
:1008600024D90AB90029D9D120E0007840061DD149
:10087000334913E0027802F07F02012A16D1827A0E
:10088000A2B1428892B9027982B9C288012A0DD1F7
:100890008A6940790021904740B92A4931B12068DE
:1008A0004782816100208847002006E0296820688F
:1008B000096940788847032813D021680A8AA2F57D
:1008C0007F43FF3B0BD002280ED06AB108780006A8
:1008D00026D5C888009082420AD9088218E00E7294
:1008E000F8BD20680672F8BD4FF008000872F8BD28
:1008F0000ED22868144B90F82C00824201D21F704F
:1009000006E0B2FBF0F400FB142008B901201870D7
:10091000286890F82C008882BDE8F840FFF79EBE5A
:1009200003200872094900030880F8BD2C0000204C
:100930003000002055200008005000409C0100209D
:10094000E91F00082D200008260000203A000020A2
:1009500000F030BD00F062BD014908607047000042
:100960001404014030B51A498379026853B30B6807
:1009700093430B600A1D13680468A3431360027954
:100980000A441368046823431360114A0832136849
:100990000468A3431360131D1C680568AC431C6006
:1009A0004479102C05D021440A68006802430A608B
:1009B00030BD116804682143116019680068014363
:1009C000196030BD0079084401689143016030BD71
:1009D0000004014070B5314C226800214FF4FA75D3
:1009E0004FF48070B2F5806F32D009DC002A53D00A
:1009F000012A44D0824224D0B2F5007F0CD123E0FA
:100A0000B2F5006F2DD0B2F5805F2DD0B2F5005F4A
:100A10002DD0B2F5804F21D0206021A000F0C6F883
:100A2000002001F051FF284601F0BEFD012001F039
:100A30004BFF01F0ABFC01F021FABDE8704001F082
:100A400091BC216016A005E00120206016A001E005
:100A5000216017A0BDE8704000F0A8B8216016A082
:100A600007E0216016A004E0216017A001E02160EA
:100A700017A000F09BF8BDE8704000F0CBBE2160ED
:100A800015A000F093F8002001F01EFF284601F0A9
:100A90008BFDFFF7BDFB206070BD00000000002053
:100AA00052454144590000005355434345535300B8
:100AB000554E4B4F574E00004C41524745000000E9
:100AC000464C4153480000004552524150500000EE
:100AD0004E4F41505000000041505052554E0000C2
:100AE00030B502004FF000034FF4006011D0B2F5B2
:100AF000805F2AD0B2F5584F27D0B2F5604F36D07C
:100B00005FF001021446521C01F8013B8442F9DBFC
:100B100030BD244C0022A55C521C01F8015B3E2A2A
:100B2000F9DB4FF40074921C02E000BF01F8013BB6
:100B30001546521CA542F9DB02E000BF01F8013B5B
:100B40001446521C8442F9DB30BD164C0022241F8F
:100B5000A55C521C01F8015B042AF9DB02E000BF2E
:100B600001F8013B1446521C8442F9DB30BD0E4CA7
:100B70000022A55C521C01F8015B0B2AF9DB094C31
:100B800000223E34A55C521C01F8015B2F2AF9DBE0
:100B90000B3201E001F8013B1446521C8442F9DBA0
:100BA00030BD00009A2900080002002010B504465C
:100BB000FFF7DCFAC2B20020084905E0235C0B54C1
:100BC000401CC0B2082808D29042F7D3202208283F
:100BD00003D20A54401CC0B2F9E710BD0002002045
:100BE00010B568B1B0F5805F0AD0B0F5584F07D0A6
:100BF000B0F5604F07D0B0F5B03F01D300F00CF86E
:100C00004FF4006010BD00F0EFF801F023FE014941
:100C10000861F5E7EC0100202DE9F74FDFF8A8A106
:100C20006A4C84B0DAF81C90207816460AF1160750
:100C30004FF4806898B9FF20207065480088A08034
:100C400040464FF4A041B1FBF0F2A4F80280A18825
:100C50008A1AE2806FF0784201FB0820E0605A486F
:100C6000032208305BA10090FFF787FA5A4D4FF43A
:100C7000805B68B1032259A10098FFF77EFA002833
:100C800061D0032256A10098FFF777FA404675E03D
:100C900000200090E1886088A0464143DAF81C00FB
:100CA00081424DD300243DE0B8F80220DFF834A1A2
:100CB000B4FBF2F102FB114101EB0A0CB8F8081089
:100CC000404601FB02CCD44502D3C3689C4502D9FF
:100CD000C5F800B028E0434B5B426344B3FBF2F03D
:100CE00002FB103050B901FB02A2491C0092A8F887
:100CF000081000F0E9F8009800F098F800F0E4F827
:100D0000B8F80200B4FBF0F100FB11410098084470
:100D100005990A5D2144497802EB012189B200F06E
:100D2000B7F8A41CB442BFD3386830443860484593
:100D300045DB00203860A8F808004FF400701DE083
:100D40004FF480401AE0002737E00598C15D206924
:100D500001F044FC10F0FF0002D0022829D02BE063
:100D60006946206901F05EFD10B31E48009981427A
:100D700003D30846E168884202D9584628601EE03D
:100D800001461848404208446188B0FBF1F201FB7B
:100D9000120020B900F098F8009800F047F800F031
:100DA00093F89DF808004208DDE9000100F014FF07
:100DB00002E04FF4007028607F1CB742C5D307B033
:100DC0003046BDE8F08F0000600B0020EC010020F1
:100DD000E0F7FF1F42494E00000000204845580040
:100DE000534543000050000810B502231802144672
:100DF000403100E02031CA7A202A03D01A465B1C19
:100E00008242F7D3834208D820220748FFF78AF9A5
:100E100005490020C882088303E020210248FFF72B
:100E20009AF9204610BD0000600B002070B5054601
:100E30004FF43026304600F053F8042811D1094C05
:100E4000206940F0020020616561206940F04000A7
:100E50002061304600F044F8216941F6FD721140EE
:100E6000216170BD0020024008490420CA68D207F1
:100E700001D001207047CA68520701D5022070478F
:100E8000C968C906FBD50320704700000020024056
:100E9000F0B506464FF400370D46384600F020F80E
:100EA00004280DD1074C206940F0010020613580F5
:100EB000384600F015F8216941F6FE7211402161B3
:100EC000F0BD000000200240034802494160034990
:100ED000416070472301674500200240AB89EFCD98
:100EE00000B50346FFF7C0FF03E000BFFFF7BCFFFC
:100EF0005B1E012803D0002B00D1052000BD002B74
:100F0000F4D1FAE7F0B5CA78002502F00F03D20653
:100F100001D58A7813430A784FF00F0E12F0FF0FB5
:100F20004FF001021CD004680F8802FA05F6374022
:100F3000B74211D14FEA850C0EFA0CF724EA0707E5
:100F400003FA0CF43C43CF78282F02D0482F02D06C
:100F500002E0466100E006616D1C082DE4D30460E8
:100F60000C88FF2C1ED944685FF0000606F10807C4
:100F700002FA07F50F882F40AF420FD14FEA860CD7
:100F80000EFA0CF7BC4303FA0CF73C43CF78282F3A
:100F900000D14561CF78482F00D10561761C082E1D
:100FA000E4D34460F0BD0161704700000549096861
:100FB00089B201EBC000044901EB4000008980B216
:100FC00070470000505C004000600040054909681F
:100FD00089B201EBC000044901EB40008089C0F3F5
:100FE00009007047505C00400060004004490968F7
:100FF00089B201EBC000034931F8100080B270479C
:10100000505C00400060004008B10448704704494B
:10101000012009680882002070470000300100208C
:101020002C0000200F4810B50168001D0368001D4A
:101030000268002915D00C480C0A817004710C0C50
:101040008471090E01728372190A0173190C81737C
:10105000190E01748274110A0175110C8175110E3B
:10106000017610BDE8F7FF1FD800002010B5154C21
:101070002168087A022804D0042802D0062805D066
:1010800018E0FFF7EBFA2068007A14E048780528AA
:101090000CD10878400609D101F0CAF92068C0785F
:1010A00000F0B6FD08480068006A804707480068FD
:1010B00080688047082021680872BDE8104000F071
:1010C000EBBA00002C00002034000020300000208B
:1010D00038B50121102000F023FB4FF40054ADF887
:1010E000004010208DF803000320064D8DF802000B
:1010F00069462846FFF706FF21462846FFF753FFBB
:1011000038BD00000010014002490120C1F8B401BF
:10111000704700000000224202490020C1F8B401DB
:10112000704700000000224201004FF001000CD186
:1011300006494FF448400860091F4FF400600860FA
:10114000091F4FF0C8600860002070474800002069
:1011500070B50D46010016461C464FF001000CD13B
:101160001A4631462846FFF7BBFC28B903486208F7
:101170003146284400F012FD002070BD00500008E8
:1011800070B50D46010014464FF0010005D11A4616
:1011900021462846FFF724FD002070BD0D4900B50B
:1011A00009680A7802F07F02212A08D1FE2806D1B8
:1011B000488820B9888810B9C888012801D0022041
:1011C00000BD0548886100204882FFF71DFF002010
:1011D00000BD00002C00002009100008014900F0AB
:1011E00017BF00003C010020014900F011BF0000C2
:1011F0003401002005490968C978052901D9002072
:101200007047034A02EBC10100F002BF2C0000202E
:101210007401002009B9002800D0022070470000A6
:101220000F4910B509680A7802F07F02212A07D118
:10123000FF2805D1488818B9888808B9C88808B136
:10124000022010BD0120FFF7E7F90220FFF7D0F9D7
:1012500005490448086005490020087010BD0000D9
:101260002C0000205553424330030020CC000020C6
:1012700070B5314800253249857230480968C07917
:101280004872284600F0BCFC4FF40071002000F0CA
:1012900069FD2021002000F04FFD1821002000F002
:1012A000D7FC284C002014F82C1F00F0E1FC58213A
:1012B000002000F023FD0020FFF7C2F9002000F01D
:1012C0000DFD0021012000F04DFD9821012000F0CE
:1012D00015FD2021012000F02FFD0021012000F04C
:1012E000E7FC0021022000F03DFDD821022000F0A3
:1012F000AFFC2178022000F0BBFC4FF440510220EB
:1013000000F0D6FC0021022000F016FD217800201C
:1013100000F0AEFC002000F0E1FC002000F078FCC2
:101320000949012008600A49084808600948057011
:10133000BDE8704001F07AB8D402002026290008E8
:101340002C00002044010020C401002055534243DA
:1013500030030020CC0000207047704710B5FFF725
:1013600061FE094800240068847200F0B7F907485C
:10137000046007494FF4044008800449091F0860CD
:101380000448046010BD00002C000020445C0040B4
:1013900038000020C4010020044805490068884244
:1013A00002D00220FEF74EBF70470000300300203D
:1013B00055534243164810B50178164B41F01001C1
:1013C00001701A78022A0AD04FF44054032A14D02C
:1013D000042A01D0052A1AD10020187011E00E4A03
:1013E000D47B282C13D141F002010170507BD3E94A
:1013F0000112BDE8104000F0B7BA0121002000F052
:1014000013FD2146BDE81040022000F051BC10BD84
:10141000C9010020CC000020300300202DE9F0415C
:101420001B4C1C4E207840F010002070F77B0220EF
:10143000FFF7CCFD184D0246D8216880A6F1400088
:1014400000F01AF9287818B1012805D0022006E02A
:10145000BDE8F041FEF714BF2A2F0DD00120FEF7A2
:10146000F1FE707B2422052100F002FDBDE8F04171
:101470000021022000F0D8BC207840F0010020704C
:10148000D5E90112707BBDE8F04100F055BB0000CA
:10149000C901002030030020CC000020094810B50D
:1014A0000068807A00280BD00749052008600120D9
:1014B000FFF7B2F80220FFF79BF8044900200870FC
:1014C00010BD00002C000020C4010020CC00002032
:1014D0000149042008607047C401002070474FF4A0
:1014E000A06000F033B8000070B50F23C478017815
:1014F0000122F4B1144C2468457804F4E064C4F586
:10150000E064240AC4F10406E3408478B5401C403A
:101510002C4301F1E021230181F80034007800F030
:101520001F018A404009800000F1E020C0F800213E
:1015300070BD01F01F0082404809800000F1E020EA
:10154000C0F8802170BD00000CED00E002490843A6
:1015500002490860704700000000FA050CED00E049
:1015600070B5304D2868017844784A0606D001F0FD
:101570007F0001282BD002282ED038E0092C06D07D
:10158000052C07D0032C0ED0012C17D02FE000F033
:10159000A7FD2BE0C1787F2931D8817879BB81887C
:1015A00069BB807A2AE0C178012920D18188F1B90C
:1015B000407A80061BD500F0AFFD17E0C178012905
:1015C00015D1818899B9407A80060AD40FE00B2C96
:1015D0000DD100F0F3FD09E0012C02D0032C03D063
:1015E00005E000F089FC01E000F0A8FD58B10E49CB
:1015F0002046096849698847032802D018B10820A5
:101600000DE009200BE0094A062000211268084B72
:10161000120403EBD2325160064A3021118029684E
:10162000087270BD2C00002030000020505C00408B
:10163000006000403C00002010B50D4C2068007A8E
:10164000032804D0052802D0072805D008E0FFF7BA
:101650005FF82068007A04E006480068C0688047A8
:10166000082021680872BDE8104000F015B800009D
:101670002C00002030000020064B521C520803EBC7
:10168000410105D031F8043B20F8023B521EF9D14C
:1016900070470000006000400C4810B590F82C1016
:1016A000002000F0E5FA0A480068007A082802D015
:1016B000092809D006E007494FF480500880064900
:1016C00010200880002010BD012010BD4401002022
:1016D0002C0000203A0000203C00002010B5012022
:1016E00000F036FE0648012101600021054A016034
:1016F000031D19604FF4E05111800160002010BDFE
:10170000405C004038000020044A0029D16901D023
:10171000014300E08143D1617047000000100240A6
:10172000044A0029916901D0014300E0814391619D
:1017300070470000001002400149C1F8D80070470E
:101740000000424270B52E4C06462E4D207810B156
:10175000012808D044E055F8260041435043C4E92D
:10176000031001202070606860B12748E1694022C1
:101770000844982100F062FE606840386060E069CB
:10178000403018E035F826001F4A83B23046E16841
:10179000FFF7DEFC10F0FF0F03D0607840F0080088
:1017A000607040229821184800F048FE55F8260045
:1017B000403860604020E0614021012000F0AEFA36
:1017C0003021012000F0B8FAE0684030E060206984
:1017D000403820610D48816840398160FFF79CFCEA
:1017E000206900280AD16060E061094A0321E060B5
:1017F00011702070BDE87040FFF786BC70BD00001E
:10180000C801002044000020600300205003002095
:10181000CC00002010B54FF4FA74204600F0C4FE4E
:10182000002001F051F8204600F0BEFE012001F03A
:101830004BF800F0ABFD00F021FBBDE8104000F0DC
:1018400091BD000070B5184C1A4454F82040A242D3
:101850000DD92A2902D10220FEF7F4FC0020FEF760
:10186000F1FC1249052221208A70087311E0114D04
:101870000F4C55F82000A2685843824211D02A2903
:101880000DD00020FEF7DEFC607B2422052100F055
:10189000EFFA0021012000F0C7FA002070BD0220FD
:1018A000F0E7012070BD000048000020A5000020E6
:1018B000300300204400002010B5FFF735FC00285D
:1018C0000ED008483A220221407B00F0D1FA0121D3
:1018D000084600F0A9FABDE810400020FEF7B2BCAF
:1018E00010BD00003003002008490A7CD20702D056
:1018F0000748052105E030B10648C97C242900D9F4
:10190000242100F0B3BC0448F7E7000030030020B6
:101910004C000020750000205100002010B50B4C39
:10192000A06810B1207B000601D5002000E0022055
:10193000FEF788FC607B2022052100F099FA002147
:10194000BDE81040012000F06FBA00003003002015
:101950000821014800F08ABC9D00002004210148B4
:1019600000F084BC990000202DE9F041164D80461E
:10197000164628780F4630B1022823D14046BDE8EC
:10198000F041FFF7DFBE114C13460A46607B282169
:10199000FFF758FF002815D0207B00064FF002000B
:1019A00003D5287032463946E8E7FEF74BFC607BEA
:1019B0002422052100F05CFABDE8F041012108462F
:1019C00000F032BABDE8F081CC00002030030020E6
:1019D00010B50446FFF7A8FB70B115483A22022162
:1019E000407B00F045FA0121084600F01DFABDE8F1
:1019F00010400020FEF726BC0E480F4950F8242066
:101A0000521E100E0870100C4870100A88700B4897
:101A1000CA7050F82400020E0A71020C4A71020AC0
:101A20008A71C871BDE810400821034800F01EBC4F
:101A30003003002048000020B700002044000020B0
:101A400010B50446FFF770FB70B114483A2202212A
:101A5000407B00F00DFA0121084600F0E5F9BDE8F1
:101A600010400020FEF7EEBB0D480E4950F8242030
:101A7000100E0871100C4871100A88710A48CA715A
:101A800050F82400020C4A72020A8A72C872BDE839
:101A900010400C21034800F0E9BB00003003002097
:101AA00048000020BF000020440000200348C17C03
:101AB000122900D91221024800F0D8BB30030020BF
:101AC000A50000200121002000F0AEB910B5FFF7FD
:101AD0002BFB70B10A483A220221407B00F0C8F982
:101AE0000121084600F0A0F9BDE810400020FEF7F3
:101AF000A9BB0121BDE81040002000F095B900000D
:101B00003003002010B50B4CA06828B9207C40079A
:101B100002D40121002009E00220FEF793FB607B44
:101B20002422052100F0A4F900210120BDE8104085
:101B300000F07AB93003002070B5164D2B782BB128
:101B4000012B26D1BDE8704000F08EBC124C13462C
:101B50000A46607B2A21FFF775FE002819D0207BFA
:101B6000000608D401202870BDE870404FF44051B1
:101B7000022000F09DB80020FEF764FB607B242269
:101B8000052100F075F9BDE870400021012000F04A
:101B90004BB970BDCC000020300300200D4B10B5B8
:101BA00098420AD30020034604E000BF21F8103019
:101BB000401C80B29042F9D310BD002306E000BF64
:101BC00030F8024B21F813405B1C9BB29342F7D3D1
:101BD00010BD000000A007082DE9F04116460F4691
:101BE0000546002408E000BF37F814102846FFF728
:101BF0004FF9641CA4B2AD1CB442F5D3BDE8F0812A
:101C0000024920F00700086070470000505C004067
:101C1000F0B50C490C4D48F68F770A78002109E0A1
:101C2000CEB205EB8603D3F8004C3C403443C3F8F6
:101C3000004C491C9142F3D3044940F080000860F5
:101C4000F0BD00009C010020005000404C5C0040B2
:101C5000054A21F00101126892B202EBC000034A6A
:101C600002EB400081607047505C00400060004023
:101C70000D4A12683E2992B202EBC0000B4A02EBF9
:101C8000400209D94809C90601D1401E80B24FF46B
:101C9000004141EA802004E04808C90700D0401C08
:101CA0008002106070470000505C00400C600040F3
:101CB000820009480244D2F8000C4BF68F7318409A
:101CC000CB0401D580F48050890401D580F4005004
:101CD000C2F8000C70470000005000408100064828
:101CE0000144D1F8000C4BF68F72104080F4405044
:101CF000C1F8000C7047000000500040054A21F078
:101D00000101126892B202EBC000034A42F81010BF
:101D100070470000505C004000600040044A1268B8
:101D200092B202EBC000034A02EB400041607047F0
:101D3000505C004000600040820009480244D2F834
:101D4000000C48F6BF731840CB0601D580F0100098
:101D5000890601D580F02000C2F8000C7047000011
:101D600000500040820005480244D2F8000C48F6BA
:101D70008F1318400843C2F8000C70470050004011
:101D80000CB50021264801910091026842F480328E
:101D900002604FF4A063026802F400320092019ADC
:101DA000521C0192009A12B9019A9A42F3D1026828
:101DB000920333D5012100911A490A6842F01002BA
:101DC0000A600A6822F003020A600A6842F002020E
:101DD0000A604168416041684160416841F4806146
:101DE0004160416821F47C114160416841F4E8118F
:101DF0004160016841F08071016001688901FCD592
:101E0000416821F003014160416841F002014160F5
:101E10004168C1F381010229FAD10CBD00910CBDCA
:101E2000001002400020024010B50C460E490D4A39
:101E30000A6008730D2298210B4800F0FFFA0D216B
:101E40000120FFF76BFF09480521002C017007D026
:101E5000042101703021BDE810400120FFF76CBF64
:101E600010BD00005553425350030020CC00002009
:101E70000148817002737047A500002010B5002052
:101E8000FFF75AFC0121BDE81040C805FFF73CBC34
:101E900070B516480068174D0004C10B1448014482
:101EA000098989B200EB41042868017A09290FD019
:101EB0002178017061784170A088FEF7DCF929680B
:101EC00048802089FEF7D7F929688880A089C880D2
:101ED000286801210172C08828B1FEF76BFCBDE8BB
:101EE0007040FFF7D9BBFFF73BFBF8E7505C0040C1
:101EF000006000402C0000202DE9F04135480068CA
:101F0000017811F07F0102D0022905D05FE0417A0B
:101F100001F0DF01417249E04188E9BB0179D9BB99
:101F200041792E4D21F080040A0605EB84022A4BEC
:101F3000D2F8002C03D5C2F30112120102E0C2F361
:101F4000013212031E782346A64240D922B3807A7A
:101F500010B308064FEA84000ED52844D0F8000CD0
:101F6000C0F3011001281DD11846FEF755FB20468D
:101F70003021FFF7E1FE15E04619D6F8000CC0F35A
:101F8000013001280ED14BF68F7794B11846FEF739
:101F90002FFBD6F8000C00E019E0384080F44050E8
:101FA000C6F8000C0E480068406980470020BDE874
:101FB000F0810C4890F82C100020FFF759FED5F85E
:101FC000000C384080F44050C5F8000CEAE70220CD
:101FD000EDE700002C0000209C0100200050004094
:101FE000340000204401002010B5074C30B10748F0
:101FF00000680068804720680A3010BD2168012011
:102000000882002010BD00002C00002034000020B9
:10201000054A13685A8A10B10868104470478888C6
:10202000801A1882002070472C00002010B5074C41
:1020300030B1074800688068804720680C3010BDC8
:10204000216801200882002010BD00002C00002023
:10205000340000201E4910B5096860B11D480022F7
:1020600002800A7853060AD002F07F02012A18D0B3
:10207000022A18D001E002200882002010BD497A0F
:102080008A0603D5027842F002020270490603D59F
:10209000017801F0FE0102E0017841F001010170D8
:1020A00011E00C4810BD4A79110713060A4A02EBE9
:1020B0009161D1F8001C02D5C1F3011101E0C1F317
:1020C00001310129E8D00548006800698047E8E748
:1020D0002C00002028000020005000403400002088
:1020E0000A4810B500680A4AC1785278914203D86C
:1020F00082780AB982880AB1022010BD817205482F
:10210000006840688047002010BD00002C000020BF
:102110009C01002034000020064810B50068417A78
:1021200041F02001417204480068C06980470020E6
:1021300010BD00002C0000203400002070B51B48AA
:102140001B4D0368597921F0800005EB80000C06D7
:10215000D0F8004C21F0800203D5C4F3011424010F
:1021600002E0C4F301342403124D2D7895420ED9B8
:102170005A8862B95CB19A7A4AB10906D0F8001C53
:1021800007D548F6BF72114081F0100106E0022029
:1021900070BD4BF68F72114081F48051C0F8001C65
:1021A0000548006880698047002070BD2C00002031
:1021B000005000409C0100203400002010B50E4C5F
:1021C0000E4A20681268C178926940799047216868
:1021D0008A7A22B118B9087908B9887808B102203A
:1021E00010BD07480068C068804720684179C17207
:1021F000C1780173002010BD2C00002030000020A9
:10220000340000204FF0E0210428086903D020F0BA
:1022100004000861704740F00400FAE70F4810B569
:10222000016841F00101016041680D4A11404160BF
:1022300001680C4A11400160016821F480210160AD
:10224000416821F4FE0141604FF41F018160FFF7F6
:1022500097FD05494FF00060086010BD0010024076
:102260000000FFF8FFFFF6FE08ED00E010B50C4699
:102270000A46982100F0E2F821460120FFF74EFDC2
:1022800030210120FFF758FD04490320087004485D
:102290008168091B81600021017310BDCC00002002
:1022A0005003002070B5154C40F22551204600F037
:1022B0002BF800280ED0204600F045F8C2B2104896
:1022C00001880B0406D44C044FF0000306D50A2AFB
:1022D00001D0038070BD41F400410DE00D2A09D00A
:1022E000C1F30D04074D491C89B22A550180C72945
:1022F000EFD870BD41F48041018070BD00380140CD
:10230000200000200C02002030B501F01F02012443
:102310000025C1F3421304FA02F2012B0FD0022B65
:102320000FD0838A4FEA11210088134204FA01F486
:1023300000EA040001D000B10125284630BD8389A0
:10234000F0E7038AEEE78088C0F308007047704723
:10235000024900B10120C1F8B401704700002242D7
:10236000FEF75AB806480549022201600A72064A79
:102370000449C0E90112086800470000D4020020A7
:102380002C00002044010020A00100203EB54FF4A5
:10239000A060FFF7DBF84FF480242046FEF7DCFA5C
:1023A000082001948DF8090001248DF80A4001A845
:1023B000FEF7D8FA14208DF800008DF801400025B2
:1023C0008DF802508DF803406846FFF78DF82A20FB
:1023D0008DF800008DF801506846FFF785F83EBD86
:1023E00070B50D4801680D4C218021880C4D2A885C
:1023F0001140490505D54FF6FF3101600948406895
:102400008047208829880840000403D5BDE8704033
:10241000FEF742B870BD0000445C00402C01002073
:102420003800002044010020FFF7DABF70470000A9
:10243000014901204860704700000020094B10B599
:10244000521C520803EB41010AD000BF10F8013BB7
:10245000521E10F8014B43EA042321F8043BF5D146
:1024600010BD0000006000402DE9F041304CA36831
:102470002678304F0025403316B1012E08D044E0B5
:1024800057F8206071435643C4E9051601212170B5
:102490002946DFF8A4E0294A256209E01EF8016018
:1024A000D4F808C002F80C60A668761CA660491C27
:1024B000A6689E42F2D3224E2162626931880A44A4
:1024C0006261A3695B1AA36157F82010B3FBF1F7AF
:1024D00001FB17336BB92746A5608BB2511A174A17
:1024E000FEF74EFE10F0FF0F03D0787840F00400A6
:1024F0007870144832888168891A81604FF440519D
:102500000220FFF7D5FBFEF707FEA06918B10E48C1
:102510000078042809D1A56001210020FFF784FC80
:102520002570BDE8F041FEF7EFBDBDE8F081000089
:10253000C801002044000020F002002060030020B9
:10254000CE00002050030020CC00002002E008C88C
:10255000121F08C1002AFAD170477047002001E01D
:1025600001C1121F002AFBD17047000010B56FF0A7
:102570000400FFF747FE094809490068B0FBF1F085
:10258000C1B2084801EB41020170C2EBC1114FF624
:10259000FF7202EAC101418010BD00000C00002062
:1025A00000127A00220000200B49498848434FF06E
:1025B000E021486100228A61086940F00100086159
:1025C0000869C30701D0C003FAD5086920F00100EB
:1025D00008618A6170470000220000202DE9F04167
:1025E00004004FF001054FF0FF360DD094F8653030
:1025F000042202278A48092B2ED2DFE803F00810B4
:102600003D5C80C02D2DF7003046BDE8F0813A29B1
:1026100022D1012084F8650084F86A10ACE094F8B7
:102620006430C3F10203E15494F86410491E11F0C0
:10263000FF0184F86410EBD161782378095C185CA1
:1026400041EA001010F0FF0084F86B0005D032283A
:1026500070D804F8642F6770DFE03020207060705D
:10266000A070E0702071312060714620A071E0718F
:10267000082084F865003FE094F86420C2F1040269
:10268000A15494F86410491E11F0FF0184F86410FD
:1026900034D161782278095C125C41EA021184F835
:1026A0006C10E178A278095C105C41EA001084F8B3
:1026B0006D0003205EE094F86430C3F10203E1543E
:1026C00094F86410491E11F0FF0184F8641015D1CC
:1026D00061782378095C185C41EA001010F0FF0073
:1026E00084F8700003D0042801D0052822D184F892
:1026F000652094F86B00400084F864008DE094F845
:10270000642094F86B30C2EB4302A15494F8641037
:10271000491E11F0FF0184F864107ED194F86B20FB
:1027200004F171015206160E002223465FEAC67CB0
:1027300015D111E06DE000BF03EB420C13F812E07D
:102740009CF801C01EF800E01CF800C04CEA0E1C0A
:1027500001F802C0521CD2B2B2EB560FECD394F87F
:102760007000042805D194F86B2004F16600FDF791
:10277000D9FC052084F8650084F864704DE094F875
:102780006420C2F10202A15494F86410491E11F0B1
:10279000FF0184F8641040D161782278095C105CF4
:1027A00041EA0010C3B284F8D53094F86B1094F865
:1027B0006C0094F86D200844104494F87020104484
:1027C000C2B2002006E02518401C95F87150C0B236
:1027D0002A44D2B28142F6D8981810F0FF0F18D1CF
:1027E000002084F86500054617E0FFE794F86400D0
:1027F000C0F10802D2B2A25C8A420AD1401E10F097
:10280000FF0084F8640008D1204600F027F8022574
:1028100003E0204600F022F835462846F5E60000A1
:10282000D729000890F870200AB10020704790F86E
:102830006D300B7090F86C304B7090F867308B7087
:1028400090F86630CB7000F171024A6090F86B002E
:102850000872704700487047800B0020D621FDF7B2
:102860007ABC0000FFF782FEFEF732FCFEF737FE6F
:102870004FF4FA70FFF798FE002000F025F84FF4AF
:102880009670FFF791FE012000F01EF8FFF77EFD25
:10289000FFF7F4FAFFF766FD00250A4C01266420D5
:1028A000FFF782FEA068002808DD61680A2905D1CB
:1028B000401EA060002801DC2660A560FEF78AF8B3
:1028C000EDE700000000002010B5044601210420BF
:1028D000FEF726FF0C49086824B14FF6FD72104040
:1028E000086010BD80B240F002000860074801682F
:1028F00021F47F210160016841F44C3101600449F9
:102900000020C1F8B00110BD405C00400408014047
:1029100000002142120100020000004084042257FE
:1029200000020102030109022000010100C0FA09AE
:102930000400000208065004070581024000000759
:1029400005020240000004030904160349006F0059
:1029500054002D00530074007500640069006F007E
:10296000260355005300420020004D005300440050
:1029700042006F006F00740020004C006F00610087
:1029800064006500720010035300540020004D00E5
:10299000610073007300F8FFFFFFEB3C904D534460
:1029A0004F53352E3000080402000200020000F8E8
:1029B0000D003F00FF000000000000C80000800084
:1029C00029BDA5DD024E4F204E414D45202020203F
:1029D000464154313620202020004B9C42923892B0
:1029E0003800009D429238000000000000424F4F26
:1029F000544C4F41444552200800000000000000A4
:102A00000000009D429238000102030405060708F9
:102A1000093A3B3C3D3E3F400A0B0C0D0E0F0000B7
:102A2000402A0008000000200C020000B801000845
:102A3000102B00080C0200204C0E00005C25000842
:102A400041320A421E84A24A0400093201020304F0
:102A50000607080935800202202D53544D20011825
:102A60000E534420466C617368204469736B10ED0B
:102A7000312E302024BC4E414E26292442036206CA
:102A8000627029A801124208021002141A0353129C
:102A900054124D123312321A2002C11351090C186C
:102AA00008DD14040A155520811314293308121A5D
:102AB0002608295A135D13140871121B0859081AA5
:102AC0005B04139D111B0821101A15041AE90C1A36
:102AD000DD041AF5044132401A463832041A4A0815
:102AE00032161A6008322622D833201A1A8610327B
:102AF000102303012978DA9D881A9964690C9AD108
:102B0000980134100C524541445920202054585407
:04000005080000ED02
:00000001FF
