:020000040800F2
:10000000D016002091080008990800089B080008F5
:100010009D0800089F080008A108000800000000D3
:10002000000000000000000000000000A30800081D
:10003000A508000800000000A7080008A90800089B
:10004000AB080008AB080008AB080008AB080008C4
:10005000AB080008AB080008AB080008AB080008B4
:10006000AB080008AB080008AB080008AB080008A4
:10007000AB080008AB080008AB080008AB08000894
:10008000AB080008AB080008AB080008190400081A
:100090001D040008AB080008AB080008AB08000806
:1000A000AB080008AB080008AB080008AB08000864
:1000B000AB080008AB080008AB080008AB08000854
:1000C000AB080008AB080008AB080008AB08000844
:1000D000AB08000889070008AB080008AB08000857
:1000E000AB080008AB0800082104000800F002F883
:1000F00000F062F80AA090E8000C82448344AAF160
:100100000107DA4501D100F057F8AFF2090EBAE85D
:100110000F0013F0010F18BFFB1A43F0010318473B
:10012000FC3F00001C4000000A444FF0000C10F897
:10013000013B13F0070408BF10F8014B1D1108BF65
:1001400010F8015B641E05D010F8016B641E01F805
:10015000016BF9D113F0080F1EBF10F8014BAD1C55
:100160000C1B09D16D1E58BF01F801CBFAD505E073
:1001700014F8016B01F8016B6D1EF9D59142D6D3CD
:10018000704700000023002400250026103A28BFF5
:1001900078C1FBD8520728BF30C148BF0B607047F9
:1001A000642903F06384782903F09C84002070475D
:1001B0001FB51FBD10B510BD03F0DEFE1146FFF7E1
:1001C000F7FF00F0C8F803F0FCFE03B4FFF7F2FFFE
:1001D00003BC00F083FA000010B50446012104209E
:1001E00000F00FFE7649086824B14FF6FD7210400A
:1001F000086010BD80B240F00200086071480168DC
:1002000021F47F210160016841F44C3101606E49A5
:100210000020C1F8B00110BD6C4910B50868401C41
:1002200002D14868401C0BD00A684FF48050B2F1EC
:10023000005F04D34968CA0701D08847002010BD79
:100240004FF4005010BD08B54FF47A714843009048
:10025000411E009101D30846FAE708BD10B54FF4DE
:10026000FA74204600F0F2FA0020FFF7B5FF2046AE
:1002700000F0ECFA0120FFF7AFFF02F096FA02F06F
:100280007DFABDE8104001F029BE70B5504C2268DF
:1002900000214FF4FA754FF48070B2F5806F32D0C0
:1002A00009DC002A52D0012A43D0824224D0B2F580
:1002B000007F0CD123E0B2F5006F2DD0B2F5805F46
:1002C0002DD0B2F5005F2DD0B2F5804F21D0206047
:1002D00040A003F0FDF90020FFF77EFF284600F064
:1002E000B5FA0120FFF778FF02F05FFA02F046FA54
:1002F000BDE8704001F0F2BD216036A005E00120AC
:10030000206036A001E0216036A0BDE8704003F017
:10031000DFB9216035A007E0216036A004E021604C
:1003200036A001E0216037A003F0D2F9BDE87040AB
:1003300094E7216035A003F0CBF90020FFF74CFFD4
:10034000284600F083FAFFF767FF206070BD204960
:1003500001204860704700F04BFA00F0A3F92D48E7
:1003600000F0C6F900F090FA4FF4FA7000F06EFA5F
:100370000020FFF731FF4FF4967000F067FA01207C
:10038000FFF72AFF02F011FA02F0F8F901F0A6FDDA
:1003900000250F4C4FF47A770126384600F056FAC4
:1003A000A068002808DD61680A2905D1401EA06008
:1003B000002801DC2660A560FFF767FFEDE700007D
:1003C000405C004004080140000021420050000849
:1003D000000000205245414459000000535543435A
:1003E00045535300554E4B4F574E00004C4152471A
:1003F00045000000464C4153480000004552524120
:10040000505000004E4F415050000000415050529B
:10041000554E000040420F0001F012BE02F0FCBB3E
:10042000704700000CB500214B4801910091026813
:1004300042F4803202604FF4A063026802F400329A
:100440000092019A521C0192009A12B9019A9A42A2
:10045000F3D10268920333D5012100913F490A6824
:1004600042F010020A600A6822F003020A600A6879
:1004700042F002020A60416841604168416041689F
:1004800041F480614160416821F47C114160416820
:1004900041F4E8114160016841F080710160016838
:1004A0008901FCD5416821F003014160416841F0B8
:1004B000020141604168C1F381010229FAD10CBDFA
:1004C00000910CBD244810B5016841F001010160A4
:1004D0004168234A114041600168224A114001608D
:1004E000016821F480210160416821F4FE0141602E
:1004F0004FF41F018160FFF795FF1B494FF000602B
:10050000086010BD144910B54868184A10F00C0373
:10051000174803D0042B01D0082B0AD00260496889
:10052000134AC1F30311121D515C0268CA400260F4
:1005300010BD4A684B6802F470124FF0020413F4C5
:10054000803F04EB924202D04B689B0301D5094BDC
:1005500000E0064B5A43E1E7001002400020024051
:100560000000FFF8FFFFF6FE08ED00E000127A0041
:100570000C00002000093D00008870472DE9F04183
:1005800016460F460546002408E000BF37F8141051
:10059000284600F010FE641CA4B2AD1CB442F5D392
:1005A000BDE8F0813D4B10B598420AD300200346C8
:1005B00004E000BF21F81030401C80B29042F9D313
:1005C00010BD002306E000BF30F8024B21F81340B5
:1005D0005B1C9BB29342F7D310BD2DE9F05F15462B
:1005E0008A46834600F0E9FCABF10060C0F34806A0
:1005F000870AC6F50074A54200D82C46DFF8A09003
:100600004FF0006000EB872080464FF400722449D1
:10061000FFF7C8FF00204FF6FF7106E0331839F8E6
:1006200013208A4203D1401C80B2A042F6D3A042DC
:1006300025D2404600F0FCFC00204A4607E000BFFF
:100640003AF810108319401C22F8131080B2A0420F
:10065000F6D3134940464FF4007200BFFFF78EFFF8
:10066000A54210D0281B0AEB440AA344002685B2F9
:100670004FF400747F1CA542C2D82C46C0E7224626
:1006800051465846EAE7BDE8F05F00F0A2BC13B55A
:10069000012201A9FFF7A1FF1CBD000000A007086F
:1006A0002402002038B50121102000F0AAFB4FF4ED
:1006B0000054ADF8004010208DF803000320064DD3
:1006C0008DF802006946284600F0B1F92146284617
:1006D00000F01BFA38BD000000100140704740498F
:1006E0000A885206FCD53E4AC1B2121D11807047DD
:1006F00070B5054686B0012144F2050000F081FB8B
:100700004FF40070ADF8100003248DF8124018204B
:10071000344E8DF8130004A9304600F088F93015E6
:10072000ADF8100004208DF8130004A9304600F045
:100730007EF925208DF814008DF815408DF81640AF
:1007400001208DF8170005A800F0C7F80020ADF8CB
:100750000400ADF80600ADF80800ADF80C000C2060
:100760001F4CADF80A0000956946204600F07CFE5B
:10077000012240F22551204600F0F3FE01212046DF
:1007800000F0E5FE06B070BD70B5154C40F2255185
:10079000204600F09DFF00280ED0204600F031FFDB
:1007A000C2B2114801880B0406D44C044FF0000378
:1007B00006D50A2A01D0038070BD41F400410DE046
:1007C0000D2A09D0C1F30D04084D491C89B22A55E0
:1007D0000180C729EFD870BD41F48041018070BD10
:1007E00000380140000801402000002024060020BD
:1007F00010B56FF0040000F0B0F820482049006800
:10080000B0FBF1F0C1B21F4801EB41020170C2EB35
:10081000C1114FF6FF7202EAC101418010BD1949B2
:10082000097848434FF0E021486100228A61086955
:1008300040F0010008610869C30701D0C003FAD580
:10084000086920F0010008618A6170470D494988F4
:1008500048434FF0E021486100228A61086940F076
:10086000010008610869C30701D0C003FAD508690F
:1008700020F0010008618A61704700000C00002030
:1008800000127A00280000204FF4A06000F020B889
:100890000948804709480047FEE7FEE7FEE7FEE714
:1008A000FEE7FEE7FEE7FEE7FEE7FEE70448054950
:1008B000054A064B70470000C5040008ED0000081B
:1008C000D0100020D0160020D0120020D01200201E
:1008D0002849084328490860704770B50F23C47839
:1008E00001780122F4B1244C2468457804F4E064D2
:1008F000C4F5E064240AC4F10406E3408478B540FA
:100900001C402C4301F1E021230181F800340078E0
:1009100000F01F018A404009800000F1E020C0F88B
:10092000002170BD01F01F0082404809800000F1E5
:10093000E020C0F8802170BD104A114001430E48EC
:10094000001F016070470C4A121D0029116801D078
:10095000014300E08143116070474FF0E02104281B
:10096000086903D020F004000861704740F00400DB
:10097000FAE700000000FA050CED00E080FFFF1F21
:10098000914910B5884206D10121042000F04BFAAC
:10099000002104203BE08D49884206D10121082036
:1009A00000F041FA0021082031E08949884206D14F
:1009B0000121102000F037FA0021102027E085499E
:1009C000884206D10121202000F02DFA00212020AC
:1009D0001DE08149884206D10121402000F023FA20
:1009E0000021402013E07D49884206D1012180206A
:1009F00000F019FA0021802009E0794988420AD1E3
:100A000084150121204600F00EFA00212046BDE8A1
:100A1000104000F008BA10BD10B50121084600F0E2
:100A200002FA0021BDE81040012000F0FCB9F0B549
:100A3000CA78002502F00F03D20601D58A78134345
:100A40000A784FF00F0E12F0FF0F4FF001021DD089
:100A5000D0F800400F8802FA05F63740B74211D1AE
:100A60004FEA850C0EFA0CF724EA070703FA0CF498
:100A70003C43CF78282F02D0482F02D002E04661B5
:100A800000E006616D1C082DE4D304600C88FF2C87
:100A90001ED944685FF0000606F1080702FA07F560
:100AA0000F882F40AF420FD14FEA860C0EFA0CF799
:100AB000BC4303FA0CF73C43CF78282F00D14561A3
:100AC000CF78482F00D10561761C082EE4D344600E
:100AD000F0BD4FF6FF710180022181700421C170C9
:100AE00070470246002092680A4200D001207047F9
:100AF000806880B2704702460020D2680A4200D067
:100B000001207047C06880B2704701617047416141
:100B100070470AB10161704741617047C160704719
:100B200041F48032826181618261816980697047AC
:100B30002C4B10B51A684FF68074224042EA001020
:100B40000843186010BD2849C8617047F0B5254CAE
:100B5000002801DAE36900E06368420D120185B202
:100B6000C0F301579540C0F30346032F05D0C202DE
:100B70000AD50322B240934307E023F07062636812
:100B800023F07063636002E0AB4343F0706201B135
:100B90002A43002801DAE261F0BD6260F0BD10B5C1
:100BA0008A0721F003040F49130F21440F228C6898
:100BB0009A4094438C608A68984002438A6010BDD2
:100BC0000949C1F8DC00704700080140000C0140F1
:100BD000001001400014014000180140001C0140B9
:100BE000002001400000014000002042A4480168AC
:100BF00041F0010101604168A24A11404160016871
:100C0000A14A11400160016821F48021016041681E
:100C100021F4FE0141604FF41F0181607047984943
:100C20000A6822F480320A600A6822F480220A608C
:100C3000B0F5803F07D0B0F5802F03D1086840F4AD
:100C4000A02008607047086840F48030F9E7024649
:100C5000002053098A49012B0AD0022B0AD0496A85
:100C600002F01F02012393400B4200D00120704785
:100C70000968F5E7096AF3E718B500204FF4A064A6
:100C800000903120FFF7E3FF0099491C0091A14239
:100C900001D00028F5D03120FFF7D9FF002800D07F
:100CA000012018BD76490A6822F0F80242EAC00025
:100CB00008607047754908607047714A5368084377
:100CC00023F47C13184350607047704908667047DE
:100CD0006B4A516821F00301014351607047684835
:100CE000406800F00C007047654A516821F0F0013F
:100CF000014351607047624A516821F4E061014349
:100D0000516070475E494A6822F4605242EAC0006E
:100D1000486070475A4A0029517A01D0014300E0E7
:100D20008143517270475949C1F8D8007047544AFD
:100D3000516821F4404101435160704750490022FD
:100D400081F8202081F82020012802D0042802D137
:100D5000052081F8200070474D49086070474849D8
:100D60000A6A02430A627047494944390860704779
:100D700030B543494A6812F00C03464A03D0042BAD
:100D800001D0082B21D002604A680F23424C03EAAD
:100D90001212A35C0268DA4042604B68072505EA3C
:100DA0001323E35C22FA03F383604B6805EAD32341
:100DB000E35CDA40C2604968032303EA9131231FF0
:100DC000595CB2FBF1F1016130BD4A684B6802F435
:100DD00070124FF0020413F4803F04EB924202D0F1
:100DE0004B689B0301D52D4B00E02A4B5A43CAE7C1
:100DF000234A0029516901D0014300E08143516138
:100E000070471F4A0029916901D0014300E08143E6
:100E1000916170471A4A0029D16901D0014300E06D
:100E20008143D1617047164A0029D16801D001433E
:100E300000E08143D1607047114A0029116901D057
:100E4000014300E081431161704711494039086056
:100E500070470E49C86470470949C871704708480F
:100E6000416A41F0807141627047054A01460020A5
:100E700092680A4200D00120704701498872704789
:100E8000001002400000FFF8FFFFF6FE00004242A3
:100E90008004424200127A003000002000093D0028
:100EA000374900200860091D0860091D0860091DF8
:100EB00008603349334814310860704730B5304911
:100EC0008379026853B30B6893430B600A1D136860
:100ED0000468A343136002790A4413680468234337
:100EE0001360274A083213680468A3431360131D74
:100EF0001C680568AC431C604479102C05D0214463
:100F00000A68006802430A6030BD11680468214322
:100F10001160196800680143196030BD0079084408
:100F200001689143016030BD0021016001710C2214
:100F3000427181717047124910310A6802430A6098
:100F4000704701460E4A0020143212680A4200D04F
:100F5000012070470A49143108607047084A014669
:100F600000201268064B0A4014331B680B4202D063
:100F7000002A00D0012070470149143108607047F1
:100F800000040140FFFF0F00FD4A116801F0380125
:100F9000014311607047FA490A6822F008020A60AA
:100FA0000A6802430A607047F5490A6822F0100295
:100FB0000A600A6802430A607047F148F1494160DB
:100FC000F14941607047EE48EE494160EE494160A9
:100FD0007047EB48016941F0800101617047E848C2
:100FE000016941F0800101617047E5490420CA6848
:100FF000D20701D001207047CA68520701D50220EC
:101000007047C968C906FBD50320704700B5034681
:10101000FFF7EBFF03E000BFFFF7E7FF5B1E0128D0
:1010200003D0002B00D1052000BD002BF4D1FAE73E
:1010300070B505464FF430263046FFF7E7FF042829
:1010400011D1CF4C206940F0020020616561206918
:1010500040F0400020613046FFF7D8FF216941F69B
:10106000FD721140216170BD30B54FF43025284626
:10107000FFF7CCFF042810D1C14C206940F00400D8
:101080002061206940F0400020612846FFF7BEFF44
:10109000216941F6FB721140216130BD00B5034664
:1010A000FFF7A3FF03E000BFFFF79FFF5B1E0128D0
:1010B00003D0002B00D1052000BD002BF4D1FAE7AE
:1010C00030B54FF430252846FFF7E8FF042810D14B
:1010D000AB4C206940F004002061206940F04000E2
:1010E00020612846FFF7DAFF216941F6FB721140C3
:1010F000216130BDA2490020C969890700D50120BE
:10110000704770B5A525FFF7F5FF00B100254FF436
:1011100030263046FFF77AFF042827D1984C9948AB
:10112000A0609948A060206940F0200020612069FB
:1011300040F0400020613046FFF768FF41F6EF764F
:1011400004280ED1206941F6DF7108402061206932
:1011500040F0100020618D4805804FF40030FFF70B
:1011600055FF052802D021693140216170BDF8B5D5
:10117000064600204FF4003C00900D466046FFF705
:1011800045FF042816D17E4C206940F00100206103
:1011900035806046FFF73AFF41F6FE77042806D116
:1011A000B61C280C009630806046FFF72FFF21699F
:1011B00039402161F8BDF0B506464FF400370D46C1
:1011C0003846FFF723FF04280DD16D4C206940F00D
:1011D0000100206135803846FFF718FF216941F68C
:1011E000FE7211402161F0BDF0B506464FF40037A4
:1011F0000D463846FFF70AFF042813D1604C6148BA
:10120000A0606148A060206940F010002061358036
:101210003846FFF7FBFE052804D0216941F6EF723E
:1012200011402161F0BD2DE9F041C04300F0FF0CF9
:10123000C0F30727C0F30746050E4FF400384046B9
:10124000FFF7E4FE042837D14D4C4E49A1604E49CA
:10125000A160216941F010012161BCF1FF0F08D0AC
:101260004A480830A0F800C04046FFF7CFFE0428E7
:101270001BD1FF2F07D045480A3007804046FFF7B3
:10128000C5FE042811D1FF2E07D040480C3006803F
:101290004046FFF7BBFE042807D1FF2D07D03B488F
:1012A0000E3005804046FFF7B1FE052804D02169C5
:1012B00041F6EF7211402161BDE8F08170B505463D
:1012C0004FF430263046FFF7A1FE042818D12C4CED
:1012D0002C48A0602C48A060206940F020002061CC
:1012E000206940F0400020613046FFF78FFE41F654
:1012F000DF71042805D0052802D022690A40226146
:1013000070BD206908402061206940F01000206114
:101310001E480DB1002100E0A52101803046FFF7F5
:1013200075FE0528ECD0216941F6EF72114021616C
:1013300070BDF0B5124C0746124816460D46A06027
:101340001148A0604FF4003C6046FFF75FFE0428A0
:1013500014D1206940F01000206135430B493D4312
:10136000891C45F0F80008806046FFF74FFE05280D
:1013700004D0216941F6EF7211402161F0BD0000F7
:101380000020024023016745AB89EFCD00F8FF1F25
:101390001C48C069800870471A48006A704719499C
:1013A00000200968890600D501207047154A0029E8
:1013B000116901D0014300E081431161704701468A
:1013C0000020104A012903D0D2680A4203D1704795
:1013D000D169C907FBD0012070470A49C86070472E
:1013E00008490420CA68D20701D001207047CA68A2
:1013F000520701D502207047C968C906FBD50320F2
:101400007047000000200240C44910B588420AD14C
:1014100001218C032046FFF706FD2046BDE8104061
:101420000021FFF700BDBE49884202D101214C04D2
:1014300010E0BC49884202D101218C040AE0BA497B
:10144000884202D10121CC0404E0B84988420AD183
:1014500001210C052046FFF7EFFC2046BDE81040B7
:101460000021FFF7E9BC10BD30B50446008A85B005
:101470000D464CF6FF710840E98801432182A1899D
:101480004EF6F3100140A8882A8910436A890A435E
:101490001043A081A08A4FF6FF410840A98901436B
:1014A000A1826846FFF764FC9C48844201D10398FE
:1014B00000E00298A189090400EBC00101EB0010D3
:1014C000296801D5490000E08900B0FBF1F06422F1
:1014D000B0FBF2F109010B096FF018056B4300EB4B
:1014E0008300A3891D044FF0320306D503EBC0002F
:1014F000B0FBF2F000F0070005E003EB0010B0FBDA
:10150000F2F000F00F000843208105B030BD4FF429
:101510001651016000218180C18001810C2242812D
:101520008181704710B5038A4FF2FF0213400A8889
:101530004C8822438C88C9880C4322431A43028278
:1015400010BD0021018041808180C1807047002949
:10155000818902D041F4005101E021F400518181E0
:10156000704710B5C1F3421301F01F040121A140DF
:10157000012B07D0022B07D01430002A026805D0B7
:101580000A4304E00C30F8E71030F6E78A430260C3
:1015900010BD002A828A01D00A4300E08A43828279
:1015A0007047028A22F00F020282028A0A430282F4
:1015B0007047828922F40062828182890A43828193
:1015C00070470029818902D041F0020101E021F039
:1015D000020181817047028A22F020020282028A7F
:1015E0000A43028270470029018A02D041F48041F7
:1015F00001E021F4804101827047C1F3080181803C
:1016000070478088C0F308007047818941F001016C
:1016100081817047028BD2B20283028B42EA0121A0
:1016200001837047028B02F47F420283028B0A43DC
:10163000028370470029818A02D041F0200101E035
:1016400021F02001818270470029818A02D041F077
:10165000100101E021F01001818270470029818A88
:1016600002D041F0080101E021F0080181827047B9
:101670000029818902D041F4004101E0C1F30E014B
:10168000818170470029818A02D041F4006101E024
:1016900021F4006181827047828A22F004028282F2
:1016A000828A0A43828270470029818A02D041F0EF
:1016B000020101E021F00201818270470246002010
:1016C00012880A4200D001207047C9430180704748
:1016D00030B501F01F0201240025C1F3421304FAC2
:1016E00002F2012B0FD0022B0FD0838A4FEA112177
:1016F0000088134204FA01F400EA040001D000B1AA
:101700000125284630BD8389F0E7038AEEE70A0AFF
:1017100001219140C9430180704700000038014019
:101720000044004000480040004C00400050004091
:1017300010B5F74C30B1F748006800688047206862
:101740000A3010BD216801200882002010BDF04839
:1017500010B50068F04AC1785278914203D8827877
:101760000AB982880AB1022010BD8172E948006876
:1017700040688047002010BD10B5E54C30B1E54809
:1017800000688068804720680C3010BD2168012007
:101790000882002010BD10B5DD4CE04A20681268B8
:1017A000C17892694079904721688A7A22B118B944
:1017B000087908B9887808B1022010BDD5480068BA
:1017C000C068804720684179C172C17801730020E8
:1017D00010BDCF4910B5096860B1D1480022028020
:1017E0000A7853060AD002F07F02012A18D0022A92
:1017F00018D001E002200882002010BD497A8A0634
:1018000003D5027842F002020270490603D501783E
:1018100001F0FE0102E0017841F00101017011E0E8
:10182000BF4810BD4A7911071306BE4A02EB916109
:10183000D1F8001C02D5C1F3011101E0C1F301315F
:101840000129E8D0B348006800698047E8E72DE93E
:10185000F041AF480068017811F07F0102D0022901
:1018600005D05FE0417A01F0DF01417249E0418833
:10187000F1BB0179E1BB4179AA4D21F080040A0650
:1018800005EB8402A44BD2F8002C03D5C2F301125D
:10189000120102E0C2F3013212031E782346A6426F
:1018A00040D92AB3807A18B308064FEA84000ED5CF
:1018B0002844D0F8000CC0F3011001281DD11846AF
:1018C00000F075FD2046302100F06BFC15E0461954
:1018D000D6F8000CC0F3013001280ED14BF68F77FB
:1018E00094B1184600F052FDD6F8000C384000E0E4
:1018F00018E080F44050C6F8000C86480068406943
:1019000080470020BDE8F081874890F82C10002027
:1019100000F0C0FDD5F8000C384080F44050C5F808
:10192000000CEAE70220EDE770B579487D4D0368C9
:10193000597921F0800005EB80000C06D0F8004CAE
:1019400021F0800203D5C4F30114240102E0C4F3A2
:1019500001342403704D2D7895420ED95A8862B90E
:101960005CB19A7A4AB10906D0F8001C07D548F64E
:10197000BF72114081F0100106E0022070BD4BF6ED
:101980008F72114081F48051C0F8001C61480068DA
:1019900080698047002070BD5D4810B50068417ABD
:1019A00041F0200141725B480068C0698047002017
:1019B00010BD574A13685A8A10B10868104470471E
:1019C0008888801A1882002070472DE9F047DFF8D8
:1019D0004081564F4FF03009D8F8001001F1100542
:1019E000088A0E7A08B9042E04D0AC88A04216D812
:1019F000042615E04A48801E0178012903D00726F5
:101A0000102038802BE04A4A00211268494B12040A
:101A100003EBD2325160A7F8009001701FE002265C
:101A2000844200D90446A96820468847824600209F
:101A300000F0FBFC01462246504600F043FB2146E5
:101A4000002000F009FD28883B49001B2880688899
:101A500020446880A7F800904FF440500880D8F8E0
:101A600000000672BDE8F08770B5294D286801783E
:101A700044784A0606D001F07F0001282BD00228C6
:101A80002ED038E0092C06D0052C07D0032C0ED020
:101A9000012C17D02FE0FFF75AFE2BE0C1787F29E9
:101AA00031D8817879BB818869BB807A2AE0C17896
:101AB000012920D18188F1B9407A80061BD5FFF732
:101AC0006BFF17E0C178012915D1818899B9407A57
:101AD00080060AD40FE00B2C0DD1FFF75CFE09E065
:101AE000012C02D0032C03D005E0FFF7B0FE01E08B
:101AF000FFF71AFF58B10949204609684969884724
:101B0000032802D018B1082024E0092022E015E0C3
:101B10004800002050000020B80100204C000020A8
:101B200042000020005000406001002058000020CA
:101B3000505C00400060004056000020DC4A062057
:101B400000211268DB4B120403EBD2325160DA4AF7
:101B5000302111802968087270BDF8B5D74CD84D76
:101B600009262068002729684278062A05D0AAB1EC
:101B7000082A4ED00A2A52D06EE0027852066BD163
:101B80008078012804D0022804D0032804D063E020
:101B9000C96959E0096A57E0496A55E04288BABB09
:101BA000C288022A58D1027992BB0278530601D129
:101BB000838833B102F07F02012A05D0022A0DD0BA
:101BC0004AE0AFF2F1313FE08A6940790021904765
:101BD000F0B92068807A0028F3D13DE0417901F026
:101BE0000F0001F070020B06B64901EB8001D1F83D
:101BF000001C03D5C1F30111090102E0C1F3013159
:101C00000903B14B1B78834226D90AB90029D8D1E0
:101C100022E0007840061FD1AFF2EB4114E00278D9
:101C200002F07F02012A17D1827AAAB142889AB9BA
:101C300002798AB9C288012A0ED18A6940790021C5
:101C4000904748B9AFF2CF4131B1206847828161F6
:101C500000208847002006E029682068096940784C
:101C60008847032813D021680A8AA2F57F43FF3BE7
:101C70000BD002280ED06AB10878000625D5C88896
:101C8000009082420AD9088218E00E72F8BD2068DE
:101C90000672F8BD4FF008000872F8BD0ED2286831
:101CA0008A4B90F82C00824201D21F7006E0B2FBF2
:101CB000F0F400FB142008B901201870286890F88F
:101CC0002C008882BDE8F8407FE603200872804936
:101CD00000030880F8BD7F4810B590F82C10002054
:101CE00000F0D8FB75480068007A082802D009285F
:101CF00009D006E076494FF4805008806E491020E4
:101D00000880002010BD012010BD70B56848006833
:101D10006A4D0004C10B67480144098989B200EB90
:101D200041042868017A09290FD02178017061786F
:101D30004170A08800F016FD29684880208900F0D5
:101D400011FD29688880A089C88028680121017256
:101D5000C08820B1FFF701FFBDE87040BBE7FFF787
:101D600083FEF9E7F0B55849564D48F68F770A7863
:101D7000002109E0CEB205EB8603D3F8004C3C40CD
:101D80003443C3F8004C491C9142F3D3484940F016
:101D90008000091F0860F0BD10B5484C2168087A22
:101DA000022804D0042802D0062805D018E0FFF746
:101DB0000CFE2068007A14E0487805280CD10878D9
:101DC000400609D1FEF7C3FA2068C078FFF7CAFFC2
:101DD00041480068006A8047394800688068804749
:101DE000082021680872BDE8104074E710B5334C34
:101DF0002068007A032804D0052802D0072805D0DF
:101E000008E000F00EF82068007A04E02C48006832
:101E1000C0688047082021680872BDE810405AE772
:101E200070472DE9F047254EDFF88C803027356864
:101E300035F8100FA968A9B100B3AC88844200D965
:101E400004462046884781462888001B28806888E9
:101E500020446880002000F0F3FA014622464846FC
:101E600000F043F9288848B119494FF440500880E0
:101E70000021084600F0F0FAA8F800702888A98828
:101E8000884201D3032001E018B1052031680872AF
:101E9000E8E5316806200872054900200968054A0E
:101EA000090402EBD1314860A8F80070DAE50000BF
:101EB000505C0040006000405800002048000020B6
:101EC0004C00002000500040B801002040000020DD
:101ED00056000020600100205000002006480549FF
:101EE000022201600A72064A0449C0E90112086828
:101EF00000470000EC0600204800002060010020A0
:101F0000BC0100202DE9F84FDFF89CB14BF68F762D
:101F100048F6BF77644C654D40F68F7948F60F78E8
:101F20000BF1440BDFF888A132E000BF47F6FF70E9
:101F3000106008885F4A10F00F00107032D05E49C0
:101F400001EB8001D1F8002C92B2009212040BD563
:101F5000D1F8002C02EA0902C1F8002C574901EB24
:101F6000800050F8040C80470098000610D55148B6
:101F70005149007801EB8001D1F8002C02EA0802F7
:101F8000C1F8002C4E4901EB800050F8040C80474A
:101F9000DBF800005A465146AAF800000004C5D4F8
:101FA000BDE8F88F2068C0F3013000032880206866
:101FB000C0F30110000168802068304080F40050B8
:101FC00020602068384080F0200020600888C0062B
:101FD00003D5206880B2010616D5206800EA080003
:101FE0002060FFF7D9FE20E0890401D580F400507D
:101FF0002060206869883840CA061ED4890601D549
:1020000080F020002060CBE7010506D5206800EABB
:1020100009002060FFF779FE07E00004B8D52068CA
:1020200000EA09002060FFF7E1FE206829883040BF
:10203000CA04D9D580F48050D6E780F01000DDE7DF
:102040002DE9F041184C1B4E1B4F4434184D25E030
:1020500047F6FF702060288800F00F0107EB810031
:102060003170D0F8002C92B2130408D5D0F8002CAF
:1020700040F68F731A40C0F8002C104809E0120691
:102080000CD5D0F8002C48F60F731A40C0F8002C7D
:102090000B4800EB810050F8040C80472068288032
:1020A0000004D5D4BDE8F081005C0040560000205B
:1020B0004801002044000020005000402C01002076
:1020C00010010020104B10B5521C520803EB4101C7
:1020D0000AD000BF10F8013B521E10F8014B43EA32
:1020E000042321F8043BF5D110BD074B521C5208C4
:1020F00003EB410106D000BF31F8043B20F8023B5E
:10210000521EF9D17047000000600040F649086097
:102110007047F548006880B27047F349091D0860B0
:102120007047F148001D006880B27047EE480830E3
:10213000006880B27047EC490C3108607047EA488B
:102140000C30006880B27047E74920F0070010317A
:1021500008607047E4481030006880B27047E34A76
:1021600002EB8000C0F8001C7047E04901EB8000E2
:10217000D0F8000C80B270478200DC480244D2F8EC
:10218000000C48F68F1318400843C2F8000C704743
:10219000D64901EB8000D0F8000CC0F3412040028A
:1021A00070478200D1480244D2F8000C48F6BF7351
:1021B0001840CB0601D580F01000890601D580F0CB
:1021C0002000C2F8000C70478200C8480244D2F8D0
:1021D000000C4BF68F731840CB0401D580F480506F
:1021E000890401D580F40050C2F8000C704700B596
:1021F0000A460346FFF7B9FF9900BC4B012A194470
:1022000007D0022A04D120F0100000BFC1F8000C52
:1022100000BD20F48050F9E7B44901EB8000D0F80C
:10222000000CC0F3011000017047B04901EB8000C1
:10223000D0F8000CC0F30130000370478100AB48B8
:102240000144D1F8000C48F6BF72104080F0300015
:10225000C1F8000C70478100A4480144D1F8000C7B
:102260004BF68F72104080F44050C1F8000C70475C
:1022700081009E480844D0F8001C48F68F7241F453
:1022800080711140C0F8001C7047810097480844D5
:10229000D0F8001C48F68F621140C0F8001C70474F
:1022A000810092480844D0F8001C48F68F62114023
:1022B000C0F8001C704781008C480844D0F8001C0E
:1022C00048F68F7241F480711140C0F8001C7047CD
:1022D000810086480844D0F8001C48F68F7241F40B
:1022E00080711140C0F8001C704781007F4808448D
:1022F000D0F8001C48F68F621140C0F8001C7047EF
:102300007A4901EB8000D0F8000CC0F301100128DD
:1023100000D000207047754901EB8000D0F8000C18
:10232000C0F30130012800D00020704781006F48C1
:102330000844D0F8001C40F68F721140C0F8001C11
:102340007047810069480844D0F8001C48F60F72B5
:102350001140C0F8001C7047810064480844D0F860
:10236000001C48F68F72114041F48041C0F8001CF7
:10237000704781005D480844D0F8001C48F68F7211
:10238000114041F04001C0F8001C704781005748DF
:102390000844D0F8001C490408D5D0F8001C48F6C1
:1023A0008F72114041F48041C0F8001C70478100D9
:1023B0004E480844D0F8001C490608D5D0F8001C47
:1023C00048F68F72114041F04001C0F8001C704780
:1023D000820046480244D2F8000C48F68F73184039
:1023E0000843C2F8000C7047404901EB8000D0F868
:1023F000000C00F00F0070473B4A21F00101103241
:10240000126892B202EBC000394A42F810107047CD
:10241000354A21F001011032126892B202EBC0007D
:10242000334A02EB4000816070472F491031096840
:1024300089B201EBC0002E4931F8100080B270471C
:1024400029491031096889B201EBC000284901EB24
:102450004000008980B27047234A1032126892B25D
:1024600002EBC000224A02EB4000416070473E2967
:1024700009D94A09C90601D1521E92B24FF400414E
:1024800041EA822104E04A08C90700D0521C9102A7
:1024900001607047144A1032126892B202EBC00019
:1024A000134A0C3202EB40023E2909D94809C906F9
:1024B00001D1401E80B24FF4004141EA802004E087
:1024C0004808C90700D0401C8002106070470649C8
:1024D0001031096889B201EBC000054901EB4000E9
:1024E0008088C0F309007047405C00400050004005
:1024F000006000409E49096889B201EBC0009D4917
:1025000001EB40008089C0F30900704730B521F02D
:10251000010497490B6822F001029BB203EBC00350
:102520005D00944BEC50096889B201EBC00003EBED
:102530004000826030BD8E4A21F00101126892B2E3
:1025400002EBC0008B4A42F810107047884A21F015
:102550000101126892B202EBC000864A02EB400011
:10256000816070478249096889B201EBC0008149E6
:1025700031F8100080B270477D49096889B201EBDB
:10258000C0007C4901EB4000008980B270472DE912
:10259000F043774D012912D002290ED1296889B262
:1025A00001EBC0014B0073490B445A602B689BB28E
:1025B00003EBC00001EB4000C260BDE8F083296876
:1025C0006C4B89B201EBC0011B1D03EB410C53099D
:1025D00051085E1E4C1C4FF400493E2A07D91F4685
:1025E0005FEAC26800D1B7B249EA872705E00F4623
:1025F0005FEAC27800D02746BF02CCF800702D6891
:10260000ADB205EBC0005B4D0C3505EB40003E2A3A
:1026100005D9D10600D1B3B249EA832103E0D2073C
:1026200000D0214689020160C7E7514B01290AD039
:10263000022907D1196889B201EBC0004D4901EBAD
:10264000400042607047196889B201EBC0004949F7
:10265000091D01EB40013E2A09D95009D20601D1DA
:10266000401E80B24FF4004242EA802004E050084D
:10267000D20700D0401C8002086070473C4B012903
:102680000AD0022907D1196889B201EBC000394983
:1026900001EB4000C2607047196889B201EBC000CD
:1026A00034490C3101EB40013E2A09D95009D206C8
:1026B00001D1401E80B24FF4004242EA802004E083
:1026C0005008D20700D0401C80020860704728499B
:1026D000096889B201EBC000264901EB40008088FF
:1026E000C0F3090070472249096889B201EBC000B4
:1026F000204901EB40008089C0F3090070471C4A63
:10270000116889B201EBC0014B001A490B449B8947
:1027100013F47C4F01D001207047126892B202EB93
:10272000C00001EB400080888005F5D00220704792
:10273000114B48F68F7203EB8000012909D0022962
:1027400006D1D0F8001C114041F48041C0F8001CB3
:102750007047D0F8001C114041F04001F6E741EA13
:1027600000207047C1B2000A40EA01207047000013
:10277000505C0040006000400050004010B5002058
:10278000FEF7D1FA0121BDE81040C805FEF742BBB3
:1027900036490320086070473548817A334809B1CB
:1027A000052100E00121016070473EB54FF4A060B3
:1027B000FEF78EF84FF480242046FEF7DDFB08205C
:1027C00001948DF8090001248DF80A4001A8FEF754
:1027D00075FB14208DF800008DF8014000258DF860
:1027E00002508DF803406846FEF777F82A208DF8EE
:1027F00000008DF801506846FEF76FF83EBD1D4998
:102800000020C1F8B40170471A490120C1F8B40191
:10281000704770477047174900B10120C1F8B401F3
:102820007047154810B50168001D0368001D026857
:10283000002915D011480C0A817004710C0C8471A8
:10284000090E01728372190A0173190C8173190E32
:1028500001748274110A0175110C8175110E0176D3
:1028600010BD002000F00CB870470000E00100200F
:10287000EC06002000002242E8F7FF1FF4000020D1
:1028800010B501004FF0010002D1FEF796FB0020C9
:1028900010BD70B50D46010014464FF0010005D182
:1028A0001A462146284600F0F8FE002070BD70B59B
:1028B0000D46010016461C464FF001000CD11A4689
:1028C0003146284600F0C4FD28B90D48620831465B
:1028D0002844FDF767FE002070BD01004FF00100A5
:1028E0000CD108494FF448400860091F4FF40060BC
:1028F0000860091F4FF0C8600860002070470000A2
:10290000005000086400002010B50C46BB49BA4ACC
:102910000A6008730D229821B848FFF7D3FB0D21F8
:102920000120FFF799FDB6480521002C017007D062
:10293000042101703021BDE810400120FFF731BCB7
:1029400010BDB04810B50178AD4B41F010010170D9
:102950001A78022A0AD04FF44054032A15D0042AC8
:1029600001D0052A1BD10020187012E0A34A203A9A
:10297000D47B282C13D141F002010170507BD3E9A4
:102980000112BDE8104000F0AABB01210020FFF7B2
:10299000BBFF2146BDE810400220FFF715BC10BD6B
:1029A00010B578B14FF48054012805D002280FD11A
:1029B00010210120FFF7F5FB2146BDE81040022061
:1029C000FFF702BC1021BDE810400120FFF7E9BB72
:1029D00010BD70B58A4B894C0020203C5988A4F169
:1029E000400202E0155C2554401C0D468842F9D394
:1029F000824862681F2D4260A268826007D0022070
:102A0000FFF7CEFF00202060607B1A2221E0E17BEF
:102A1000282901D02A290AD1D4F81100227D00BA30
:102A200020F0FF0010435860E08A40BA9860764A70
:102A30002068904251D1754A607B1268904203D859
:102A4000A27B0AB1102A0CD90220FFF7A9FF607BF4
:102A50002422052100F09DFABDE8704000210120EC
:102A600052E7252958D01ADC152971D00DDC082928
:102A70006ED005DCB9B3032936D004292DD163E02B
:102A80000A2965D0122928D132E01A390A2924D21C
:102A9000DFE801F03632235E32232323233E8A29E6
:102AA00056D00EDC552953D006DC28293CD02A29E3
:102AB00040D02F2911D143E05A2925D088290CD1A3
:102AC00046E0A82944D004DC8F2941D09E2904D1B6
:102AD0003EE0AA293CD0AF293AD00220FFF760FFA0
:102AE000607B2022B5E71BE0BDE8704000F0BABA79
:102AF000BDE8704000F03CBABDE8704000F0BABAE2
:102B0000BDE8704000F0A6BABDE8704000F0A6BA7B
:102B1000BDE8704000F041BABDE8704000F06ABA0C
:102B2000BDE8704000F066BBD3E90112BDE870401B
:102B300000F0D5BAD3E90112BDE8704000F0FFBA49
:102B4000BDE8704000F029BBBDE8704000F06BBBF1
:102B5000BDE8704000F07CBB2DE9F041294C274EC8
:102B60002078203E40F010002070F77B0220FFF715
:102B7000C1FC234D0246D8216880A6F14000FFF732
:102B8000B4FA287818B1012804D0022005E0BDE885
:102B9000F0411EE72A2F0CD00120FFF701FF707BC8
:102BA0002422052100F0F5F9BDE8F04100210220C2
:102BB000AAE6207840F001002070D5E90112707B70
:102BC000BDE8F04100F0BBBA10B50C460A469821AA
:102BD000FFF778FA21460120FFF73EFC3021012063
:102BE000FFF7DFFA06490320087004488168091BD3
:102BF00081600021017310BD5553425368070020C6
:102C0000E8000020E9010020555342434C01002018
:102C1000FFF797BEFFF7A0BF70B50D4801680D4CD8
:102C2000218021880C4D2A881140490505D54FF691
:102C3000FF310160094840688047208829880840A2
:102C4000000403D5BDE87040FFF75CB970BD00001B
:102C5000445C004048010020540000206001002036
:102C600010B5FFF7DEFD7B4800240068847200F099
:102C700005F97948046079494FF4044008807649A1
:102C8000091F08607648046010BD70B575480025BE
:102C90007049857274480968C07948722846FFF700
:102CA00053FA4FF400710020FFF766FA202100204C
:102CB000FFF777FA18210020FFF7AAFB6B4C0020E2
:102CC00014F82C1FFFF7E6FB58210020FFF794FBB8
:102CD0000020FFF7E5FA0020FFF7BDFA00210120F0
:102CE000FFF74AFA98210120FFF786FB20210120F7
:102CF000FFF757FA00210120FFF766FA00210220B2
:102D0000FFF73AFAD8210220FFF782FB2178022050
:102D1000FFF7C0FB4FF440510220FFF755FA0021A6
:102D20000220FFF73EFA21780020FFF7B3FB0020D6
:102D3000FFF791FA0020FFF715F8494901200860D4
:102D40004C494B4808604C480570BDE87040FFF79F
:102D500061BD404810B50068807A00280BD040491A
:102D6000052008600120FFF722FB0220FFF70EFB81
:102D700041490020087010BD3E483D490068884226
:102D800002D00220FFF70CBE7047354904200860CE
:102D900070477047704710B13448143870472D4958
:102DA000012009680882002070472A4900B5096897
:102DB0000A7802F07F02212A08D1FE2806D148882D
:102DC00020B9888810B9C888012801D0022000BD28
:102DD000AFF23D00886100204882FFF7DCFF002051
:102DE00000BD1C4910B509680A7802F07F02212A4B
:102DF00007D1FF2805D1488818B9888808B9C8883C
:102E000008B1022010BD0120FFF7D1FA0220FFF720
:102E1000BDFA18491648086017490020087010BD0F
:102E200009B9002800D00220704710491039FEF778
:102E3000C0BD0E490839FEF7BCBD06490968C9780E
:102E4000052901D900207047084A303202EBC10140
:102E5000FEF7AFBD48000020445C00405400002055
:102E6000E0010020EC060020FC3F0008600100208B
:102E70005553424348070020E800002010B50120C8
:102E8000FFF7C9FC3748012101600021364A016083
:102E9000031D19604FF4E05111800160002010BD46
:102EA00010B5304C01202060211D00200860FFF784
:102EB000B2FC03202060002010BD2A48016889B2BE
:102EC00041F008010160016889B241F0040101602C
:102ED000FFF75EBC10B5234C206880B220F00400E0
:102EE0002060FFF759FC4FF40440206010BD70B51E
:102EF0001E4C072800D0207021780626042519488A
:102F000006292CD2DFE801F00306090E1620FFF790
:102F1000E1FF24E0FFF7DEFF0AE0022060700320FB
:102F2000207070BD6078401E607060780028F8D115
:102F3000257070BD016889B241F010010160052063
:102F400020700A20607070BD6178491E61706178E0
:102F50000029F8D1016889B221F0100101602670C2
:102F600070BD0000405C004054000020E4010020DF
:102F7000C3490A7CD20702D0C248052105E030B11E
:102F8000C148C97C242900D92421FFF71DBEBF48B0
:102F9000F7E7BF4881700273704710B50446FFF72A
:102FA0009CFC70B1B6483A220221407BFFF7F1FF4A
:102FB00001210846FFF7A8FCBDE810400020FFF7FC
:102FC000EFBCB448B44950F82420100E0871100C1E
:102FD0004871100A8871B148CA7150F82400020C77
:102FE0004A72020A8A72C872BDE810400C21AA48CF
:102FF000FFF7EABD10B50446FFF76FFC70B1A048BB
:103000003A220221407BFFF7C4FF01210846FFF767
:103010007BFCBDE810400020FFF7C2BC9D48A049E2
:1030200050F82420521E100E0870100C4870100A20
:1030300088709A48CA7050F82400020E0A71020C77
:103040004A71020A8A71C871BDE81040082194488B
:10305000FFF7BABD04219348FFF7B6BD0821924897
:10306000FFF7B2BD8648C17C122900D912218848D9
:10307000FFF7AABD01210020FFF746BC70B5854CC3
:103080001A4454F82040A2420DD92A2902D1022024
:10309000FFF786FC0020FFF783FC7D4905222120F5
:1030A0008A70087311E07D4D754C55F82000A268B8
:1030B0005843824211D02A290DD00020FFF770FC1E
:1030C000607B24220521FFF764FF00210120FFF728
:1030D0001BFC002070BD0220F0E7012070BD2DE92F
:1030E000F041724D8046164628780F4630B10228CE
:1030F00023D14046BDE8F04100F0DAB8604C1346F9
:103100000A46607B2821FFF7B9FF002815D0207BF5
:1031100000064FF0020003D5287032463946E8E732
:10312000FFF73EFC607B24220521FFF732FFBDE85C
:10313000F04101210846FFF7E7BBBDE8F08170B51B
:103140005A4D2B782BB1012B26D1BDE8704000F0F1
:103150000CB94B4C13460A46607B2A21FFF78EFFC1
:10316000002819D0207B000608D401202870BDE873
:1031700070404FF440510220FFF726B80020FFF7BF
:103180000FFC607B24220521FFF703FFBDE87040A0
:1031900000210120FFF7B8BB70BD10B5384CA06806
:1031A00028B9207C400702D40121002009E0022038
:1031B000FFF7F6FB607B24220521FFF7EAFE0021E2
:1031C0000120BDE81040FFF79FBB10B52C4CA06854
:1031D00050B10220FFF7E4FB607B20220521FFF7BE
:1031E000D8FE0021012001E001210020BDE81040AF
:1031F000FFF78ABB10B5FFF770FB70B120483A2289
:103200000221407BFFF7C5FE01210846FFF77CFB4A
:10321000BDE810400020FFF7C3BB0121BDE810400E
:103220000020FFF771BB10B5FFF757FB00280ED049
:1032300013483A220221407BFFF7ABFE01210846EA
:10324000FFF762FBBDE810400020FFF7A9BB10BDEF
:1032500010B50B4CA06810B1207B000601D50020F2
:1032600000E00220FFF79CFB607B20220521FFF796
:1032700090FE0021BDE810400120FFF745BB000093
:103280004807002068000020910000206D00002009
:10329000C100002064000020DB000020600000204E
:1032A000D3000020B5000020B9000020E800002075
:1032B00070B5604C0646604D207810B1012808D0EA
:1032C00044E055F8260041435043C4E9031001206F
:1032D0002070606860B15948E16940220844982133
:1032E000FEF7F0FE606840386060E069403018E04A
:1032F00035F82600514A83B23046E168FFF7D7FA25
:1033000010F0FF0F03D0607840F00800607040229A
:1033100098214A48FEF7D6FE55F8260040386060EE
:103320004020E06140210120FFF796F83021012084
:10333000FEF737FFE0684030E060206940382061E8
:103340003F48816840398160FFF759FA20690028B9
:103350000AD16060E0613B4A0321E0601170207097
:10336000BDE87040FFF750BA70BD2DE9F041314C17
:10337000A3682678304F0025403316B1012E08D0BF
:1033800045E057F8206071435643C4E90516012112
:1033900021702946DFF8B0E0284A25620AE000BF24
:1033A0001EF80160D4F808C002F80C60A668761C0C
:1033B000A660491CA6689E42F2D3244E216262692F
:1033C00031880A446261A3695B1AA36157F820102F
:1033D000B3FBF1F701FB17336BB92746A5608BB23E
:1033E000511A164AFFF755FA10F0FF0F03D07878FC
:1033F00040F004007870124832888168891A816030
:103400004FF440510220FEF7DFFEFFF7F8F9A06904
:1034100018B10C480078042809D1A56001210020CA
:10342000FFF772FA2570BDE8F041FFF7EDB9BDE88E
:10343000F0810000E80100206000002078070020F3
:1034400068070020E800002008070020EA000020AC
:1034500030B502004FF000034FF4006011D0B2F518
:10346000805F2AD0B2F5584F27D0B2F5604F36D0E2
:103470005FF001021446521C01F8013B8442F9DB63
:1034800030BD9F4C0022A55C521C01F8015B3E2A16
:10349000F9DB4FF40074921C02E000BF01F8013B1D
:1034A0001546521CA542F9DB02E000BF01F8013BC2
:1034B0001446521C8442F9DB30BD914C0022241F7B
:1034C000A55C521C01F8015B042AF9DB02E000BF95
:1034D00001F8013B1446521C8442F9DB30BD894C93
:1034E0000022A55C521C01F8015B0B2AF9DB844C1D
:1034F00000223E34A55C521C01F8015B2F2AF9DB47
:103500000B3201E001F8013B1446521C8442F9DB06
:1035100030BD10B5022318021446403100E02031BE
:10352000CA7A202A03D01A465B1C8242F7D3834210
:1035300008D82022744800F0D3FB73490020C882C9
:10354000088303E02021704800F00FFC204610BDE6
:103550002DE9F74FDFF8B09184B009F11604174652
:10356000D9F81C80A4F10E000026032267A1009068
:1035700000F06BFBDFF898A1664D4FF4007B70B153
:10358000032265A1009800F060FB4FF4806808B347
:10359000032262A1009800F058FB404657E0BAF8B9
:1035A0000000D9F81C10C002814210D8DDE90401E6
:1035B0005B4BC7F34F021844FDF70FF820683844FF
:1035C0002060404565DB0020206058463FE04FF416
:1035D00080403CE04B4C6FF078490C3C2078A0B91F
:1035E000FF202070BAF80000A08040464FF4A041B0
:1035F000B1FBF0F2A4F80280A1884AA08A1A92B224
:1036000001FB0893E28000F0FDF953A0049900F05B
:10361000F9F93CE00598815DA06800F0B4F810F07D
:10362000FF0002D002282FD030E06946A06800F0E9
:10363000CAF940B34B490098884206D30146A38893
:10364000608803FB0092914203D94FF480502860B8
:103650001FE0444A52421144B1FBF0F200FB121049
:1036600040B941A0009900F0CDF9FDF7A6FC009803
:10367000FDF7DEFCFDF7A1FC9DF808004208DDE93E
:103680000001FCF77BFF01E0C5F800B0761CBE42EC
:10369000C0D307B03846BDE8F08F10B568B1B0F5BB
:1036A000805F0AD0B0F5584F07D0B0F5604F07D013
:1036B000B0F5903F01D3FFF74BFF4FF4006010BD12
:1036C000FFF727FF00F05AF80E490C398860F4E73D
:1036D00010B5044600F0E5FAC2B20020094905E041
:1036E000235C0B54401CC0B2082808D29042F7D388
:1036F0002022082803D20A54401CC0B2F9E710BDAA
:103700007040000818020020780F002042494E0047
:10371000E0F7FF1F000000204845580053454300D4
:103720000030FF070D0A46616C736853697A6520A3
:103730003D2025642C204672656553697A65203DDD
:103740002025642C20456E6441646472203D202550
:1037500038780D0A000000000D0A4C4142203D203F
:1037600025387800005000080D0A457261736541E4
:10377000646472203D202538780000009E48704720
:10378000D62100F0F2BA2DE9F04104004FF0010516
:103790004FF0FF360DD094F8653004220227974889
:1037A000092B2ED2DFE803F008103D5C80BF2D2DE1
:1037B000F6003046BDE8F0813A2922D1012084F894
:1037C000650084F86A10ABE094F86430C3F102033A
:1037D000E15494F86410491E11F0FF0184F864105C
:1037E000EBD161782378095C185C41EA001010F095
:1037F000FF0084F86B0005D0322870D804F8642FDD
:103800006770DEE0302020706070A070E070207182
:10381000312060714620A071E071082084F86500B5
:103820003FE094F86420C2F10402A15494F86410BB
:10383000491E11F0FF0184F8641034D161782278B8
:10384000095C125C41EA021184F86C10E178A278FC
:10385000095C105C41EA001084F86D0003205DE013
:1038600094F86430C3F10203E15494F86410491EE3
:1038700011F0FF0184F8641015D161782378095C98
:10388000185C41EA001010F0FF0084F8700003D0CB
:10389000042801D0052822D184F8652094F86B0013
:1038A000400084F864008CE094F8642094F86B3055
:1038B000C2EB4302A15494F86410491E11F0FF01B9
:1038C00084F864107DD194F86B2004F171015206E4
:1038D000160E002223465FEAC67C14D110E06CE08D
:1038E00003EB420C13F812E09CF801C01EF800E054
:1038F0001CF800C04CEA0E1C01F802C0521CD2B2E7
:10390000B2EB560FECD394F87000042805D194F86C
:103910006B2004F1660000F0E3F9052084F86500EF
:1039200084F864704DE094F86420C2F10202A1545E
:1039300094F86410491E11F0FF0184F8641040D11E
:1039400061782278095C105C41EA0010C3B284F807
:10395000D53094F86B1094F86C0094F86D200844FE
:10396000104494F870201044C2B2002006E02518DC
:10397000401C95F87150C0B22A44D2B28142F6D8A8
:10398000981810F0FF0F18D1002084F86500054644
:1039900017E0FFE794F86400C0F10802D2B2A25C1D
:1039A0008A420AD1401E10F0FF0084F8640008D15A
:1039B0002046FFF7E5FE022503E02046FFF7E0FE84
:1039C00035462846F6E690F870200AB10020704788
:1039D00090F86D300B7090F86C304B7090F8673049
:1039E0008B7090F86630CB7000F171024A6090F8ED
:1039F0006B00087270470000980F0020AD4000086F
:103A0000704700000FB4044910B503AA029800F0F3
:103A10002BFA10BC5DF814FB2400002070B504469E
:103A200085690068C10601D5302600E02026C00760
:103A300007D070BDD4E9012130469047206A401C70
:103A400020626D1EF6D570BD70B50446856900789C
:103A5000C00707D170BDD4E9012120209047206A1A
:103A6000401C20626D1EF6D570BD00002DE9F041AE
:103A70000646002410687529314616A510D0AFF30C
:103A80000080002802DA404213A507E031688A0767
:103A900001D512A502E0490704D511A5012401E0D2
:103AA000AFF3008000210A2206F1240709E0B0FBF1
:103AB000F2FCB0FBF2F302FB1C00303078541846E5
:103AC000491C0028F3D123462A463046BDE8F04180
:103AD00000F071B9000000002D0000002B00000074
:103AE0002000000070B504460D4621461068AFF373
:103AF00000802188090502D50F4A7A4402E00E4A67
:103B00007A440E32002104F1240305E000F00F0690
:103B10000009965D5E54491C0028F7D120780023E7
:103B2000000704D5702D02D009B1022311322046BE
:103B3000BDE8704000F03FB9F60500002DE9F04700
:103B40004FF0000A89460446C0F820A02046E168EC
:103B50008847002876D0252806D0D4E9012190474F
:103B6000206A401C2062F1E7E16820460025884772
:103B7000C4F81CA006460027C4F818A02A2E09D0B5
:103B8000304600F02BFA38B304EB8708303EC8F813
:103B9000186019E059F8041B204604EB8702916174
:103BA000E1688847012F064618D1E069002820DA2D
:103BB00025F020051DE0D8F8180000EB800006EB8A
:103BC00040003038C8F818002046E16888470646AB
:103BD00000F004FA0028EED1012F0AD02E2E08D1D1
:103BE0002046E16888477F1C0646022F45F02005E5
:103BF000C4DBA069002803DA404245F00105A0615A
:103C0000E80701D025F01005B6B1A6F1410019284A
:103C100002D8203645F400654A46314620462560E4
:103C20004D46FCF7BDFA58B1012806D0ED1D25F030
:103C3000070000F1080989E704E005F1040985E7B8
:103C400030468AE7206ABDE8F08740EA010310B5F4
:103C50009B070FD1042A0DD310C808C9121F9C421C
:103C6000F8D020BA19BA884201D9012010BD4FF00E
:103C7000FF3010BD1AB1D30703D0521C07E000205B
:103C800010BD10F8013B11F8014B1B1B07D110F8B8
:103C9000013B11F8014B1B1B01D1921EF1D11846BB
:103CA00010BD10B5431C02E010F8011B71B1810773
:103CB000FAD14FF0013202C88C1A8C4314EAC211B7
:103CC000F9D0C01A0A0603D0C01E10BDC01A10BD1C
:103CD0000A0401D0801E10BD0902FCD0401E10BD98
:103CE000032A40F2308010F0030C00F0158011F828
:103CF000013BBCF1020F624498BF11F801CB00F800
:103D0000013B38BF11F8013BA2F1040298BF00F853
:103D100001CB38BF00F8013B11F0030300F0B6807F
:103D2000083AC0F0088051F8043B083A51F804CB37
:103D3000A0E80810F5E7121D5CBF51F8043B40F8FD
:103D4000043BAFF30080D20724BF11F8013B11F808
:103D500001CB48BF11F8012B24BF00F8013B00F84C
:103D600001CB48BF00F8012B70474FF00002042937
:103D7000C0F0128010F0030C00F0BC80CCF1040CF9
:103D8000BCF1020F18BF00F8012BA8BF20F8022BCE
:103D9000A1EB0C0100F0AEB85FEAC17C24BF00F8D3
:103DA000012B00F8012B48BF00F8012B704770472A
:103DB0007047704770472DE9F0470D469946924687
:103DC000044600F124080168880604D5E06921F062
:103DD0001001216000E00120A84201DD471B00E046
:103DE0000027A1697A1902EB0900081AA06120785E
:103DF000C00602D42046FFF711FE002608E0D4E9F1
:103E000001211AF806009047206A401C761C2062A7
:103E10004E45F4DB2078C0060AD52046FFF7FEFDAC
:103E200006E0D4E9012130209047206A401C20623E
:103E3000381EA7F10107F4DC07E0D4E9012118F8E6
:103E400005009047206A401C2062281EA5F101054C
:103E5000F3DC2046FFF7F8FD2078000602D50220AB
:103E6000BDE8F0870120FBE7074B70B50D467B44AA
:103E700000F06BF80446284600F07AF810B14FF0D5
:103E8000FF3070BD204670BD6DC8FFFF10B5203AF1
:103E9000C0F00B80B1E81850203AA0E81850B1E803
:103EA0001850A0E81850BFF4F5AF5FEA027C24BFB9
:103EB000B1E81850A0E8185044BF18C918C0BDE8B0
:103EC00010405FEA827C24BF51F8043B40F8043B79
:103ED00008BF7047D20728BF31F8023B48BF11F82E
:103EE000012B28BF20F8023B48BF00F8012B704788
:103EF0004FF0000200B5134694469646203922BF83
:103F0000A0E80C50A0E80C50B1F12001BFF4F7AFCD
:103F1000090728BFA0E80C5048BF0CC05DF804EBAF
:103F2000890028BF40F8042B08BF704748BF20F81D
:103F3000022B11F0804F18BF00F8012B70470000D2
:103F400001694A1C02610878704700B58FB0CDE95D
:103F500001310021059105497944CDE9031011464D
:103F60006846FFF7EBFD0FB000BD0000E5FFFFFF67
:103F7000007B00F080007047754600F02BF8AE46DD
:103F800005006946534620F00700854618B020B565
:103F9000FCF78CFCBDE820404FF000064FF0000716
:103FA0004FF000084FF0000B21F00701AC46ACE8E1
:103FB000C009ACE8C009ACE8C009ACE8C0098D464E
:103FC000704710B50446AFF300802046BDE81040AE
:103FD000FCF7FBB8004870477010002030380A2802
:103FE00001D201207047002070471201000200003A
:103FF000004084042257000201020301090220004C
:10400000010100C0FA090400000208065004070577
:104010008102400000070502024000000403090479
:10402000160349006F0054002D0053007400750002
:10403000640069006F002603550053004200200011
:104040004D005300440042006F006F0074002000D8
:104050004C006F00610064006500720010035300A3
:10406000540020004D00610073007300F8FFFFFF53
:10407000EB3C904D53444F53352E30000804020062
:104080000200020000F80D003F00FF0000000000E9
:1040900000C80000800029BDA5DD024E4F204E4122
:1040A0004D4520202020464154313620202020003C
:1040B0004B9C429238923800009D4292380000009A
:1040C000000000424F4F544C4F41444552200800DD
:1040D0000000000000000000009D42923800010234
:1040E000030405060708093A3B3C3D3E3F400A0BE6
:1040F0000C0D0E0F303132333435363738394142FA
:104100004344454640305800303132333435363739
:104110003839616263646566403078003C4100086C
:1041200000000020240200002801000818420008B6
:1041300024020020AC1400008401000841320A422D
:104140000384A24A04C00901020304060708096D9A
:10415000020406081C091220012235800202202DCB
:1041600053544D2001180E534420466C617368204F
:104170004469736B10ED312E302024BC4E414E2625
:10418000292439AD6206627029C4011239AF0210C8
:1041900002141A03531254124D123312321A20020F
:1041A000C113112C0C1808211E040A1515208113A7
:1041B000EA3F3308121AFC08295A1A61301A8B0494
:1041C00013932D1B0895041AAB041AE30413212E34
:1041D0001B082B041A33041A3B04413240131C40C1
:1041E0003308041A200832161A360832261AF41335
:1041F000321A1A5C10321023030129782A534C9981
:10420000889A79101A8B0C0138100C524541445988
:08421000202020545854000046
:04000005080000ED02
:00000001FF
