:020000040800F2
:105000003010002001510008095100080B51000820
:105010000D5100080F510008115100080000000058
:105020000000000000000000000000001351000814
:105030001551000800000000175100081951000820
:105040001B5100081B5100081B5100081B51000890
:105050001B5100081B5100081B5100081B51000880
:105060001B5100081B5100081B5100081B51000870
:105070001B5100081B5100081B5100081B51000860
:105080001B5100081B5100081B5100083570000817
:10509000817000081B5100081B5100081B510008BB
:1050A0001B5100081B5100081B5100081B51000830
:1050B0001B5100081B5100081B5100081B51000820
:1050C0001B5100081B5100081B5100081B51000810
:1050D0001B510008796F00081B5100081B51000884
:1050E0001B5100081B51000823700008DFF80CD08A
:1050F00000F04AF800480047BD7400083010002056
:105100000648804706480047FEE7FEE7FEE7FEE761
:10511000FEE7FEE7FEE7FEE7FEE7FEE7F16E0008CA
:10512000ED50000840EA01039B0703D009E008C9DD
:10513000121F08C0042AFAD203E011F8013B00F85C
:10514000013B521EF9D27047D2B201E000F8012BA8
:10515000491EFBD270470022F6E710B513460A46F7
:1051600004461946FFF7F0FF204610BD30B504464F
:105170000020034600E05B1C934203D2E05CCD5C60
:10518000401BF8D030BD0000064C074D06E0E0683B
:1051900040F0010394E8070098471034AC42F6D37E
:1051A000FFF7A8FF007600082076000870B58C187D
:1051B00010F8015B15F0070301D110F8013B2A112B
:1051C00006D110F8012B03E010F8016B01F8016B18
:1051D0005B1EF9D12B0705D40023521E0DD401F814
:1051E000013BFAE710F8013BCB1A921C03E013F8DD
:1051F000015B01F8015B521EF9D5A142D8D3002012
:1052000070BD10B578B14FF48054012805D0022844
:105210000FD11021012001F003FC2146BDE8104010
:10522000022001F0B9BB1021BDE81040012001F0BF
:10523000F7BB10BDC1B2000A40EA01207047000070
:1052400070B5614B614C00205988A4F1400202E026
:10525000155C2554401C0D468842F9D35B486268B2
:1052600020301F2D4260A268826007D00220FFF725
:10527000C8FF00202060607B1A2221E0E17B282902
:1052800001D02A290AD1D4F81100227D00BA20F0D9
:10529000FF0010435860E08A40BA98604C4A20688A
:1052A000904252D14B4A607B1268904203D8A27B55
:1052B0000AB1102A0DD90220FFF7A3FF607B242238
:1052C000052101F049FCBDE870400021012001F0FA
:1052D0001FBC252958D01ADC152971D00DDC0829EE
:1052E0006ED005DCB9B3032936D004292DD163E093
:1052F0000A2965D0122928D132E01A390A2924D284
:10530000DFE801F03632235E32232323233E8A294D
:1053100056D00EDC552953D006DC28293CD02A294A
:1053200040D02F2911D143E05A2925D088290CD10A
:1053300046E0A82944D004DC8F2941D09E2904D11D
:105340003EE0AA293CD0AF293AD00220FFF759FF0E
:10535000607B2022B4E71BE0BDE8704001F01ABA80
:10536000BDE8704001F034B9BDE8704001F01EBAEC
:10537000BDE8704001F066B9BDE8704001F05CB96D
:10538000BDE8704001F0D0B9BDE8704001F094B9BB
:10539000BDE8704001F00EBAD3E90112BDE87040DB
:1053A00001F056B9D3E90112BDE8704001F038BAF6
:1053B000BDE8704001F01ABABDE8704001F0F0B8E5
:1053C000BDE8704001F01EB9C800002008030020AD
:1053D000555342432C0100202DE9F041184E194F3E
:1053E000194C1A4D26E000BF47F6FF702060288850
:1053F00000F00F0107EB81003170D0F8002C92B261
:10540000130408D5D0F8002C40F68F731A40C0F86A
:10541000002C0F4809E012060CD5D0F8002C48F6F5
:105420000F731A40C0F8002C0A4800EB810050F8B6
:10543000040C8047206828800004D5D4BDE8F081A2
:105440002600002000500040445C0040280100205D
:105450000C010020F00000202DE9F84FDFF834B1F6
:105460004BF68F7648F6BF774A4C4B4D40F68F7916
:1054700048F60F780BF1440BDFF820A132E000BFB3
:1054800047F6FF7010600888454A10F00F00107052
:1054900032D0444901EB8001D1F8002C92B2009245
:1054A00012040BD5D1F8002C02EA0902C1F8002C35
:1054B0003D4901EB800050F8040C8047009800063D
:1054C00010D537483749007801EB8001D1F8002C1E
:1054D00002EA0802C1F8002C344901EB800050F8C0
:1054E000040C8047DBF800005A465146AAF8000039
:1054F0000004C5D4BDE8F88F2068C0F30130000374
:1055000028802068C0F301100001688020683040C6
:1055100080F4005020602068384080F02000206037
:105520000888C00603D5206880B2010616D5206819
:1055300000EA0800206000F09BFC20E0890401D50F
:1055400080F400502060206869883840CA061ED464
:10555000890601D580F020002060CBE7010506D543
:10556000206800EA0900206001F0FCFA07E000046E
:10557000B8D5206800EA0900206000F0FBFE206832
:1055800029883040CA04D9D580F48050D6E780F00D
:105590001000DDE7005C00403600002028010020FC
:1055A00026000020005000400C010020F0000020E8
:1055B000810008480844D0F8001C490408D5D0F8F8
:1055C000001C48F68F72114041F48041C0F8001C65
:1055D0007047000000500040810008480844D0F89F
:1055E000001C490608D5D0F8001C48F68F721140FF
:1055F00041F04001C0F8001C70470000005000401E
:10560000810005480844D0F8001C48F68F6211401C
:10561000C0F8001C70470000005000402DE9F04722
:10562000DFF89480254F4FF03009D8F8001001F1D1
:105630001005088A0E7A08B9042E04D0AC88A0425E
:1056400015D8042614E01E480178012903D0072646
:10565000102038802BE01B4A002112681A4B1204DC
:1056600003EBD2325160A7F8009001701FE00226D0
:10567000844200D90446A968204688478246002013
:1056800000F0B6FB01462246504601F003FD2146DC
:10569000002001F0B7F928880C49001B2880688891
:1056A00020446880A7F800904FF440500880D8F854
:1056B00000000672BDE8F0872800002038000020B6
:1056C00022000020505C00400060004036000020B6
:1056D0002DE9F047224EDFF88C803027356835F809
:1056E000100FA968A9B100B3AC88844200D9044660
:1056F0002046884781462888001B288068882044E7
:105700006880002000F054FB01462246484600F025
:1057100051FE288848B114494FF4405008800021B8
:10572000084601F06FF9A8F800702888A988884217
:1057300001D3032001E020B1052031680872BDE8E3
:10574000F087316806200872084900200968084A75
:10575000090402EBD1314860A8F80070EFE70000BF
:10576000280000203800002036000020505C004057
:1057700000600040F8B55D4C5D4D092620680027AB
:1057800029684278062A05D0AAB1082A4DD00A2AEB
:1057900050D06BE00278520668D18078012804D09E
:1057A000022804D0032804D060E0C96956E0096AE1
:1057B00054E0496A52E04288B2BBC288022A55D1FD
:1057C00002798ABB0278530601D1838833B102F093
:1057D0007F02012A04D0022A0CD047E045493DE06F
:1057E0008A69407900219047F0B92068807A0028C2
:1057F000F4D13BE0417901F00F0001F070020B069B
:105800003D4901EB8001D1F8001C03D5C1F3011122
:10581000090102E0C1F301310903384B1B788342CF
:1058200024D90AB90029D9D120E0007840061DD139
:10583000334913E0027802F07F02012A16D1827AFE
:10584000A2B1428892B9027982B9C288012A0DD1E7
:105850008A6940790021904740B92A4931B12068CE
:105860004782816100208847002006E0296820687F
:10587000096940788847032813D021680A8AA2F56D
:105880007F43FF3B0BD002280ED06AB10878000698
:1058900026D5C888009082420AD9088218E00E7284
:1058A000F8BD20680672F8BD4FF008000872F8BD18
:1058B0000ED22868144B90F82C00824201D21F703F
:1058C00006E0B2FBF0F400FB142008B901201870C8
:1058D000286890F82C008882BDE8F840FFF79EBE4B
:1058E00003200872094900030880F8BD2800002041
:1058F0002C000020296D0008005000409801002075
:10590000BD6C0008016D0008220000203600002058
:1059100000F044BC00F076BC30B502004FF000034C
:105920004FF4006011D0B2F5805F2AD0B2F5584F25
:1059300027D0B2F5604F36D05FF001021446521CFA
:1059400001F8013B8442F9DB30BD244C0022A55C08
:10595000521C01F8015B3E2AF9DB4FF40074921CE3
:1059600002E000BF01F8013B1546521CA542F9DBDD
:1059700002E000BF01F8013B1446521C8442F9DBEF
:1059800030BD164C0022241FA55C521C01F8015B9F
:10599000042AF9DB02E000BF01F8013B1446521C67
:1059A0008442F9DB30BD0E4C0022A55C521C01F88C
:1059B000015B0B2AF9DB094C00223E34A55C521C2A
:1059C00001F8015B2F2AF9DB0B3201E001F8013B02
:1059D0001446521C8442F9DB30BD00007A75000881
:1059E000D801002010B568B1B0F5805F0AD0B0F5DD
:1059F000584F07D0B0F5604F07D0B0F5B03F01D396
:105A000000F00CF84FF4006010BD00F0EFF801F06A
:105A10004DFD01490861F5E7C40100202DE9F74F6C
:105A2000DFF8A8A16A4C84B0DAF81C9020781646FA
:105A30000AF116074FF4806898B9FF202070654876
:105A40000088A08040464FF4A041B1FBF0F2A4F8DA
:105A50000280A1888A1AE2806FF0784201FB082058
:105A6000E0605A48032208305BA10090FFF77EFBFC
:105A70005A4D4FF4805B68B1032259A10098FFF79B
:105A800075FB002861D0032256A10098FFF76EFB3A
:105A9000404675E000200090E1886088A0464143C0
:105AA000DAF81C0081424DD300243DE0B8F8022012
:105AB000DFF834A1B4FBF2F102FB114101EB0A0C57
:105AC000B8F80810404601FB02CCD44502D3C368A5
:105AD0009C4502D9C5F800B028E0434B5B426344C3
:105AE000B3FBF2F002FB103050B901FB02A2491CDB
:105AF0000092A8F8081000F0E9F8009800F098F873
:105B000000F0E4F8B8F80200B4FBF0F100FB11413A
:105B10000098084405990A5D2144497802EB012167
:105B200089B200F0B7F8A41CB442BFD3386830443F
:105B30003860484545DB00203860A8F808004FF47D
:105B400000701DE04FF480401AE0002737E0059810
:105B5000C15D206901F06EFB10F0FF0002D0022849
:105B600029D02BE06946206901F088FC10B31E485B
:105B70000099814203D30846E168884202D9584619
:105B800028601EE001461848404208446188B0FB86
:105B9000F1F201FB120020B900F098F8009800F033
:105BA00047F800F093F89DF808004208DDE900018D
:105BB00000F086FE02E04FF4007028607F1CB742C0
:105BC000C5D307B03046BDE8F08F0000380B002089
:105BD000C4010020E0F7FF1F42494E0000000020F2
:105BE00048455800534543000050000810B50223B3
:105BF00018021446403100E02031CA7A202A03D02E
:105C00001A465B1C8242F7D3834208D820220748F9
:105C1000FFF788FA05490020C882088303E02021A5
:105C20000248FFF798FA204610BD0000380B00200C
:105C300070B505464FF43026304600F053F804287E
:105C400011D1094C206940F0020020616561206992
:105C500040F040002061304600F044F8216941F6F0
:105C6000FD721140216170BD0020024008490420EE
:105C7000CA68D20701D001207047CA68520701D50F
:105C800002207047C968C906FBD503207047000091
:105C900000200240F0B506464FF400370D46384666
:105CA00000F020F804280DD1074C206940F00100D5
:105CB00020613580384600F015F8216941F6FE7202
:105CC00011402161F0BD000000200240034802495C
:105CD000416003494160704723016745002002404D
:105CE000AB89EFCD00B50346FFF7C0FF03E000BF6F
:105CF000FFF7BCFF5B1E012803D0002B00D105205D
:105D000000BD002BF4D1FAE7F0B5CA78002502F007
:105D10000F03D20601D58A7813430A784FF00F0E8D
:105D200012F0FF0F4FF001021CD004680F8802FA36
:105D300005F63740B74211D14FEA850C0EFA0CF741
:105D400024EA070703FA0CF43C43CF78282F02D04B
:105D5000482F02D002E0466100E006616D1C082D6C
:105D6000E4D304600C88FF2C1ED944685FF0000661
:105D700006F1080702FA07F50F882F40AF420FD14E
:105D80004FEA860C0EFA0CF7BC4303FA0CF73C43BF
:105D9000CF78282F00D14561CF78482F00D10561F9
:105DA000761C082EE4D34460F0BD0161704700000A
:105DB0000549096889B201EBC000044901EB4000C4
:105DC000008980B270470000505C004000600040D5
:105DD0000549096889B201EBC000044901EB4000A4
:105DE0008089C0F309007047505C004000600040AB
:105DF0000449096889B201EBC000034931F8100079
:105E000080B27047505C00400060004008B1044818
:105E1000704704490120096808820020704700008B
:105E20002C010020280000200F4810B50168001D3B
:105E30000368001D0268002915D00C480C0A817007
:105E400004710C0C8471090E01728372190A0173BA
:105E5000190C8173190E01748274110A0175110CE9
:105E60008175110E017610BDE8F7FF1FD4000020E8
:105E700010B5154C2168087A022804D0042802D0F5
:105E8000062805D018E0FFF7C9FB2068007A14E067
:105E9000487805280CD10878400609D101F0F4F8BB
:105EA0002068C07800F028FD08480068006A804734
:105EB0000748006880688047082021680872BDE8AC
:105EC000104000F087BA00002800002030000020B9
:105ED0002C00002038B50121102000F0B3FA4FF457
:105EE0000054ADF8004010208DF803000320064D4B
:105EF0008DF8020069462846FFF706FF214628462E
:105F0000FFF753FF38BD0000001001400249012097
:105F1000C1F8B4017047000000002242024900208D
:105F2000C1F8B401704700000000224201004FF0A8
:105F300001000CD106494FF448400860091F4FF496
:105F400000600860091F4FF0C860086000207047BB
:105F50004400002070B50D46010016461C464FF067
:105F600001000CD11A4631462846FFF7D5FC28B966
:105F7000034862083146284400F084FC002070BDCC
:105F80000050000870B50D46010014464FF00100A6
:105F900005D11A4621462846FFF724FD002070BD92
:105FA0000D4900B509680A7802F07F02212A08D15C
:105FB000FE2806D1488820B9888810B9C8880128E9
:105FC00001D0022000BD0548886100204882FFF70B
:105FD0001DFF002000BD0000280000200D5E00080D
:105FE000014900F07FBE000038010020014900F0A7
:105FF00079BE00003001002005490968C9780529EB
:1060000001D900207047034A02EBC10100F06ABECB
:10601000280000207001002009B9002800D00220CB
:10602000704700000F4910B509680A7802F07F0236
:10603000212A07D1FF2805D1488818B9888808B9CE
:10604000C88808B1022010BD0120FFF7C5FA022060
:10605000FFF7AEFA054904480860054900200870BA
:1060600010BD0000280000205553424308030020C3
:10607000C800002070B5314800253249857230488B
:106080000968C0794872284600F02EFC4FF4007170
:10609000002000F0DBFC2021002000F0C1FC1821D2
:1060A000002000F049FC284C002014F82C1F00F0C0
:1060B00053FC5821002000F095FC0020FFF7A0FAC7
:1060C000002000F07FFC0021012000F0BFFC98219F
:1060D000012000F087FC2021012000F0A1FC00211C
:1060E000012000F059FC0021022000F0AFFCD82173
:1060F000022000F021FC2178022000F02DFC4FF45A
:106100004051022000F048FC0021022000F088FCF1
:106110002178002000F020FC002000F053FC00203B
:1061200000F0EAFB0949012008600A4908480860B4
:1061300009480570BDE8704000F0A4BFAC02002023
:106140000675000828000020400100209C01002066
:106150005553424308030020C80000207047704791
:1061600010B5FFF761FE094800240068847200F052
:1061700053F90748046007494FF404400880044974
:10618000091F08600448046010BD000028000020BA
:10619000445C0040340000209C010020164810B5EB
:1061A0000178164B41F0100101701A78022A0AD0CA
:1061B0004FF44054032A14D0042A01D0052A1AD1DE
:1061C0000020187011E00E4AD47B282C13D141F026
:1061D00002010170507BD3E90112BDE8104000F0CC
:1061E00037BA0121002000F093FC2146BDE81040A1
:1061F000022000F0D1BB10BDA1010020C80000208A
:10620000080300202DE9F0411B4C1C4E207840F083
:1062100010002070F77B0220FFF7DAFD184D0246D0
:10622000D8216880A6F1400000F0C4F8287818B1A1
:10623000012805D0022006E0BDE8F041FFF700B8D4
:106240002A2F0DD00120FEF7DCFF707B24220521D0
:1062500000F082FCBDE8F0410021022000F058BCB3
:10626000207840F001002070D5E90112707BBDE874
:10627000F04100F0D5BA0000A10100200803002081
:10628000C800002070470000024A11400143024844
:106290000160704780FFFF1F08ED00E070B5304DD2
:1062A0002868017844784A0606D001F07F0001286A
:1062B0002BD002282ED038E0092C06D0052C07D090
:1062C000032C0ED0012C17D02FE000F073FD2BE033
:1062D000C1787F2931D8817879BB818869BB807A80
:1062E0002AE0C178012920D18188F1B9407A80065D
:1062F0001BD500F07BFD17E0C178012915D18188FD
:1063000099B9407A80060AD40FE00B2C0DD100F029
:10631000BFFD09E0012C02D0032C03D005E000F002
:1063200055FC01E000F074FD58B10E4920460968A3
:1063300049698847032802D018B108200DE00920D8
:106340000BE0094A062000211268084B120403EBF7
:10635000D2325160064A302111802968087270BD1E
:10636000280000202C000020505C0040006000400D
:106370003800002010B50D4C2068007A032804D0A6
:10638000052802D0072805D008E0FFF7A1F920680A
:10639000007A04E006480068C06880470820216849
:1063A0000872BDE8104000F015B800002800002079
:1063B0002C000020064B521C520803EB410105D073
:1063C00031F8043B20F8023B521EF9D1704700001F
:1063D000006000400C4810B590F82C10002000F030
:1063E000BBFA0A480068007A082802D0092809D0B8
:1063F00006E007494FF480500880064910200880C5
:10640000002010BD012010BD400100202800002008
:10641000360000203800002010B5012000F002FEF8
:106420000648012101600021054A0160031D196031
:106430004FF4E05111800160002010BD405C00402D
:1064400034000020044A0029916901D0014300E092
:1064500081439161704700000010024070B52E4CDE
:1064600006462E4D207810B1012808D044E055F89A
:10647000260041435043C4E90310012020706068A6
:1064800060B12748E16940220844982100F002FEEB
:10649000606840386060E069403018E035F82600F8
:1064A0001F4A83B23046E168FFF754FD10F0FF0F3A
:1064B00003D0607840F008006070402298211848AE
:1064C00000F0E8FD55F82600403860604020E061AB
:1064D0004021012000F096FA3021012000F0A0FABE
:1064E000E0684030E0602069403820610D488168F4
:1064F00040398160FFF712FD206900280AD16060F1
:10650000E061094A0321E06011702070BDE870402D
:10651000FFF7FCBC70BD0000A0010020400000207F
:106520003803002028030020C800002070B5184C54
:106530001A4454F82040A2420DD92A2902D102203F
:10654000FEF75FFE0020FEF75CFE124905222120C7
:106550008A70087311E0114D0F4C55F82000A268A5
:106560005843824211D02A290DD00020FEF749FE5F
:10657000607B2422052100F0EFFA0021012000F0C9
:10658000C7FA002070BD0220F0E7012070BD0000B6
:1065900044000020A100002008030020400000204B
:1065A00010B5FFF7C3FC00280ED008483A2202219C
:1065B000407B00F0D1FA0121084600F0A9FABDE8BD
:1065C00010400020FEF71DBE10BD00000803002093
:1065D00008490A7CD20702D00748052105E030B1FE
:1065E0000648C97C242900D9242100F0A9BC04480C
:1065F000F7E7000008030020480000207100002099
:106600004D00002010B50B4CA06810B1207B000697
:1066100001D5002000E00220FEF7F3FD607B202280
:10662000052100F099FA0021BDE81040012000F09A
:106630006FBA0000080300200821014800F080BC68
:10664000990000200421014800F07ABC9500002048
:106650002DE9F041164D8046164628780F4630B198
:10666000022823D14046BDE8F041FFF7F7BE114CA8
:1066700013460A46607B2821FFF758FF002815D0F3
:10668000207B00064FF0020003D5287032463946C1
:10669000E8E7FEF7B6FD607B2422052100F05CFAF6
:1066A000BDE8F0410121084600F032BABDE8F081B2
:1066B000C80000200803002010B50446FFF736FC90
:1066C00070B115483A220221407B00F045FA0121C1
:1066D000084600F01DFABDE810400020FEF791BD0D
:1066E0000E480F4950F82420521E100E0870100C4E
:1066F0004870100A88700B48CA7050F82400020EC7
:106700000A71020C4A71020A8A71C871BDE8104010
:106710000821034800F014BC0803002044000020B6
:10672000B30000204000002010B50446FFF7FEFB38
:1067300070B114483A220221407B00F00DFA012189
:10674000084600F0E5F9BDE810400020FEF759BD0D
:106750000D480E4950F82420100E0871100C487195
:10676000100A88710A48CA7150F82400020C4A7253
:10677000020A8A72C872BDE810400C21034800F07A
:10678000DFBB00000803002044000020BB00002005
:10679000400000200348C17C122900D91221024880
:1067A00000F0CEBB08030020A10000200121002042
:1067B00000F0AEB910B5FFF7B9FB70B10A483A2244
:1067C0000221407B00F0C8F90121084600F0A0F941
:1067D000BDE810400020FEF714BD0121BDE81040C7
:1067E000002000F095B900000803002010B50B4C04
:1067F000A06828B9207C400702D40121002009E0CC
:106800000220FEF7FEFC607B2422052100F0A4F9A3
:1068100000210120BDE8104000F07AB908030020F3
:1068200070B5164D2B782BB1012B26D1BDE87040E9
:1068300000F046BC124C13460A46607B2A21FFF743
:1068400075FE002819D0207B000608D4012028708E
:10685000BDE870404FF44051022000F09DB8002088
:10686000FEF7CFFC607B2422052100F075F9BDE81E
:1068700070400021012000F04BB970BDC80000201D
:10688000080300200D4B10B598420AD300200346A0
:1068900004E000BF21F81030401C80B29042F9D3D0
:1068A00010BD002306E000BF30F8024B21F8134072
:1068B0005B1C9BB29342F7D310BD000000A00708F9
:1068C0002DE9F04116460F460546002408E000BFBA
:1068D00037F814102846FFF7DDF9641CA4B2AD1C8C
:1068E000B442F5D3BDE8F081024920F0070008600A
:1068F00070470000505C0040F0B50C490C4D48F664
:106900008F770A78002109E0CEB205EB8603D3F831
:10691000004C3C403443C3F8004C491C9142F3D333
:10692000044940F080000860F0BD0000980100209C
:10693000005000404C5C0040054A21F00101126803
:1069400092B202EBC000034A02EB40008160704744
:10695000505C0040006000400D4A12683E2992B22F
:1069600002EBC0000B4A02EB400209D94809C906F4
:1069700001D1401E80B24FF4004141EA802004E082
:106980004808C90700D0401C800210607047000012
:10699000505C00400C600040820009480244D2F87C
:1069A000000C4BF68F731840CB0401D580F4805057
:1069B000890401D580F40050C2F8000C7047000033
:1069C00000500040810006480144D1F8000C4BF60D
:1069D0008F72104080F44050C1F8000C70470000E6
:1069E00000500040054A21F00101126892B202EB0A
:1069F000C000034A42F8101070470000505C00408D
:106A000000600040044A126892B202EBC000034AE0
:106A100002EB400041607047505C00400060004065
:106A2000820009480244D2F8000C48F6BF731840AF
:106A3000CB0601D580F01000890601D580F020003A
:106A4000C2F8000C7047000000500040820005486A
:106A50000244D2F8000C48F68F1318400843C2F8DD
:106A6000000C7047005000400CB5002126480191F1
:106A70000091026842F4803202604FF4A063026821
:106A800002F400320092019A521C0192009A12B94B
:106A9000019A9A42F3D10268920333D50121009101
:106AA0001A490A6842F010020A600A6822F00302DA
:106AB0000A600A6842F002020A6041684160416867
:106AC0004160416841F480614160416821F47C117A
:106AD0004160416841F4E8114160016841F0807112
:106AE000016001688901FCD5416821F00301416022
:106AF000416841F0020141604168C1F3810102290E
:106B0000FAD10CBD00910CBD0010024000200240E3
:106B100010B50C460E490D4A0A6008730D229821E3
:106B20000B4800F0B7FA0D210120FFF76BFF094871
:106B30000521002C017007D0042101703021BDE82F
:106B400010400120FFF76CBF10BD000055534253A9
:106B500028030020C800002001488170027370479C
:106B6000A100002070B516480068174D0004C10B45
:106B700014480144098989B200EB41042868017A6C
:106B800009290FD02178017061784170A088FEF743
:106B900051FB296848802089FEF74CFB29688880D2
:106BA000A089C880286801210172C08828B1FEF739
:106BB000E1FDBDE87040FFF70DBCFFF76FFBF8E7A4
:106BC000505C004000600040280000202DE9F041AA
:106BD00035480068017811F07F0102D0022905D004
:106BE0005FE0417A01F0DF01417249E04188E9BB91
:106BF0000179D9BB41792E4D21F080040A0605EBBD
:106C000084022A4BD2F8002C03D5C2F301121201E0
:106C100002E0C2F3013212031E782346A64240D995
:106C200022B3807A10B308064FEA84000ED52844B8
:106C3000D0F8000CC0F3011001281DD11846FEF752
:106C4000CBFC20463021FFF7EBFE15E04619D6F8C5
:106C5000000CC0F3013001280ED14BF68F7794B1B0
:106C60001846FEF7A5FCD6F8000C00E019E0384005
:106C700080F44050C6F8000C0E4800684069804718
:106C80000020BDE8F0810C4890F82C100020FFF7A0
:106C900063FED5F8000C384080F44050C5F8000C75
:106CA000EAE70220EDE7000028000020980100201C
:106CB00000500040300000204001002010B5074C7B
:106CC00030B1074800680068804720680A3010BD6E
:106CD000216801200882002010BD0000280000204B
:106CE00030000020054A13685A8A10B10868104421
:106CF00070478888801A188200207047280000207A
:106D000010B5074C30B1074800688068804720689C
:106D10000C3010BD216801200882002010BD000049
:106D200028000020300000201E4910B5096860B11D
:106D30001D48002202800A7853060AD002F07F0222
:106D4000012A18D0022A18D001E00220088200206F
:106D500010BD497A8A0603D5027842F00202027019
:106D6000490603D5017801F0FE0102E0017841F007
:106D70000101017011E00C4810BD4A79110713069A
:106D80000A4A02EB9161D1F8001C02D5C1F301114E
:106D900001E0C1F301310129E8D00548006800692C
:106DA0008047E8E728000020240000200050004031
:106DB000300000200A4810B500680A4AC1785278AD
:106DC000914203D882780AB982880AB1022010BDA4
:106DD00081720548006840688047002010BD0000AF
:106DE000280000209801002030000020064810B53F
:106DF0000068417A41F02001417204480068C0698E
:106E00008047002010BD0000280000203000002036
:106E100070B51B481B4D0368597921F0800005EBC4
:106E200080000C06D0F8004C21F0800203D5C4F39A
:106E30000114240102E0C4F301342403124D2D781F
:106E400095420ED95A8862B95CB19A7A4AB109065C
:106E5000D0F8001C07D548F6BF72114081F0100130
:106E600006E0022070BD4BF68F72114081F4805114
:106E7000C0F8001C0548006880698047002070BD8C
:106E80002800002000500040980100203000002021
:106E900010B50E4C0E4A20681268C178926940798C
:106EA000904721688A7A22B118B9087908B9887898
:106EB00008B1022010BD07480068C06880472068FC
:106EC0004179C172C1780173002010BD28000020F3
:106ED0002C000020300000204FF0E0210428086939
:106EE00003D020F004000861704740F00400FAE786
:106EF0000F4810B5016841F00101016041680D4A79
:106F00001140416001680C4A11400160016821F4A0
:106F100080210160416821F4FE0141604FF41F01AE
:106F20008160FFF7A1FD05494FF00060086010BDCA
:106F3000001002400000FFF8FFFFF6FE08ED00E041
:106F400010B50C460A46982100F0A4F8214601200D
:106F5000FFF758FD30210120FFF762FD04490320AF
:106F6000087004488168091B81600021017310BD0D
:106F7000C80000202803002070B5154C40F22551B0
:106F8000204600F02BF800280ED0204600F045F8EF
:106F9000C2B2104801880B0406D44C044FF0000321
:106FA00006D50A2A01D0038070BD41F400410DE0EE
:106FB0000D2A09D0C1F30D04074D491C89B22A5589
:106FC0000180C729EFD870BD41F48041018070BDB8
:106FD000003801401C000020E401002030B501F021
:106FE0001F0201240025C1F3421304FA02F2012B0F
:106FF0000FD0022B0FD0838A4FEA11210088134251
:1070000004FA01F400EA040001D000B10125284689
:1070100030BD8389F0E7038AEEE78088C0F308007B
:1070200070477047024900B10120C1F8B4017047B0
:1070300000002242FEF7D0B970B50D4801680D4C32
:10704000218021880C4D2A881140490505D54FF62D
:10705000FF3101600948406880472088298808403E
:10706000000403D5BDE87040FEF7F6B970BD00001E
:10707000445C004028010020340000204001002032
:10708000FFF7DABF704700000149012048607047F0
:1070900000000020094B10B5521C520803EB4101BF
:1070A0000AD000BF10F8013B521E10F8014B43EA12
:1070B000042321F8043BF5D110BD0000006000401E
:1070C0002DE9F041304CA3682678304F002540333D
:1070D00016B1012E08D044E057F8206071435643A2
:1070E000C4E90516012121702946DFF8A4E0294AE8
:1070F000256209E01EF80160D4F808C002F80C60AF
:10710000A668761CA660491CA6689E42F2D3224E51
:107110002162626931880A446261A3695B1AA361D2
:1071200057F82010B3FBF1F701FB17336BB9274673
:10713000A5608BB2511A174AFEF724FF10F0FF0F1B
:1071400003D0787840F00400787014483288816861
:10715000891A81604FF440510220FFF71DFCFEF7B1
:10716000DDFEA06918B10E480078042809D1A56099
:1071700001210020FFF7CCFC2570BDE8F041FEF7AF
:10718000C5BEBDE8F0810000A00100204000002045
:10719000C802002038030020CA0000202803002075
:1071A000C800002002E008C8121F08C1002AFAD156
:1071B00070477047002001E001C1121F002AFBD177
:1071C0007047000010B56FF00400FFF785FE094816
:1071D00009490068B0FBF1F0C1B2084801EB410277
:1071E0000170C2EBC1114FF6FF7202EAC10141808A
:1071F00010BD00000800002000127A001E000020D0
:107200000B49498848434FF0E021486100228A61D8
:10721000086940F0010008610869C30701D0C00394
:10722000FAD5086920F0010008618A617047000002
:107230001E0000202DE9F04104004FF001054FF041
:10724000FF360DD094F86530042202278A48092BB6
:107250002ED2DFE803F008103D5C80C02D2DF70032
:107260003046BDE8F0813A2922D1012084F865003A
:1072700084F86A10ACE094F86430C3F10203E1547E
:1072800094F86410491E11F0FF0184F86410EBD1EA
:1072900061782378095C185C41EA001010F0FF0067
:1072A00084F86B0005D0322870D804F8642F67701A
:1072B000DFE0302020706070A070E070207131201D
:1072C00060714620A071E071082084F865003FE0FD
:1072D00094F86420C2F10402A15494F86410491E89
:1072E00011F0FF0184F8641034D161782278095CD0
:1072F000125C41EA021184F86C10E178A278095C12
:10730000105C41EA001084F86D0003205EE094F800
:107310006430C3F10203E15494F86410491E11F083
:10732000FF0184F8641015D161782378095C185C3A
:1073300041EA001010F0FF0084F8700003D0042828
:1073400001D0052822D184F8652094F86B00400014
:1073500084F864008DE094F8642094F86B30C2EBFC
:107360004302A15494F86410491E11F0FF0184F8FF
:1073700064107ED194F86B2004F171015206160E50
:10738000002223465FEAC67C15D111E06DE000BF04
:1073900003EB420C13F812E09CF801C01EF800E069
:1073A0001CF800C04CEA0E1C01F802C0521CD2B2FC
:1073B000B2EB560FECD394F87000042805D194F882
:1073C0006B2004F16600FDF7ADFE052084F8650032
:1073D00084F864704DE094F86420C2F10202A15474
:1073E00094F86410491E11F0FF0184F8641040D134
:1073F00061782278095C105C41EA0010C3B284F81D
:10740000D53094F86B1094F86C0094F86D20084413
:10741000104494F870201044C2B2002006E02518F1
:10742000401C95F87150C0B22A44D2B28142F6D8BD
:10743000981810F0FF0F18D1002084F86500054659
:1074400017E0FFE794F86400C0F10802D2B2A25C32
:107450008A420AD1401E10F0FF0084F8640008D16F
:10746000204600F027F8022503E0204600F022F82D
:1074700035462846F5E60000B775000890F87020FC
:107480000AB10020704790F86D300B7090F86C30A6
:107490004B7090F867308B7090F86630CB7000F1CD
:1074A00071024A6090F86B0008727047004870479C
:1074B000580B0020D621FDF74EBE00004FF4A0412E
:1074C0004FF00060FEF7E0FEFFF77CFEFEF702FDE6
:1074D0000025074C5FF00106C4F8B4516420FFF7A3
:1074E0008FFEC4F8B4616420FFF78AFEF4E7000061
:1074F00000002242120100020000004084042257D2
:1075000000020102030109022000010100C0FA0982
:10751000040000020806500407058102400000072D
:1075200005020240000004030904160349006F002D
:1075300054002D00530074007500640069006F0052
:10754000260355005300420020004D005300440024
:1075500042006F006F00740020004C006F0061005B
:1075600064006500720010035300540020004D00B9
:10757000610073007300F8FFFFFFEB3C904D534434
:107580004F53352E3000080402000200020000F8BC
:107590000D003F00FF000000000000C80000800058
:1075A00029BDA5DD024E4F204E414D452020202013
:1075B000464154313620202020004B9C4292389284
:1075C0003800009D429238000000000000424F4FFA
:1075D000544C4F4144455220080000000000000078
:1075E0000000009D429238000102030405060708CE
:1075F000093A3B3C3D3E3F400A0B0C0D0E0F00008C
:107600002076000800000020E4010000AC510008D2
:10761000E4760008E40100204C0E0000B47100087C
:1076200041420A84A24A0400093201020304060707
:10763000080935800202202D53544D2001180E53A5
:107640004420466C617368204469736B10ED312EE1
:10765000302024BC4E414E2629244203620662702B
:1076600039A401114208021002141A0353125412D1
:107670004D123312321A2002C11311590C18088509
:1076800062040A1515208113F4742B08129E1275DA
:107690002A085A136161140875601B085D081A5F97
:1076A0000413A15F1B0825101A19041AED0C1AE126
:1076B000041AF9044132401A263832041A2A082AD8
:1076C00016141908322622D433201A1A66103210E2
:1076D000033E0301100C52454144592020205458C8
:0476E0005400000052
:04000005080050EDB2
:00000001FF
